:020000040800F2
:10000000A04D0020E902000849200008FD1C00085E
:100010004520000871080008E124000800000000E5
:10002000000000000000000000000000290200089D
:10003000750800080000000085020008C1200008C3
:100040000303000803030008030300080303000878
:100050000303000803030008030300080303000868
:100060000303000803030008030300080303000858
:100070000303000803030008030300080303000848
:100080000303000803030008030300080303000838
:100090000303000803030008030300080303000828
:1000A00003030008BD210008030300080303000840
:1000B0000303000803030008030300080303000808
:1000C00003030008030300080303000803030008F8
:1000D00003030008030300080303000803030008E8
:1000E00003030008030300080303000803030008D8
:1000F00003030008030300080303000803030008C8
:1001000003030008030300080303000803030008B7
:1001100003030008030300080303000803030008A7
:100120000303000803030008030300080303000897
:100130000303000803030008030300080303000887
:100140000303000803030008030300080303000877
:100150000303000803030008030300080303000867
:100160000303000803030008030300080303000857
:100170000303000803030008030300080000000055
:10018000030300080303000800F002F800F03CF845
:100190000AA090E8000C82448344AAF10107DA45E2
:1001A00001D100F031F8AFF2090EBAE80F0013F0F8
:1001B000010F18BFFB1A43F001031847703F0000FE
:1001C000903F0000103A24BF78C878C1FAD852078F
:1001D00024BF30C830C144BF04680C6070470000C1
:1001E0000023002400250026103A28BF78C1FBD840
:1001F000520728BF30C148BF0B6070471FB503F0DE
:100200001DFF1FBD10B510BD00F066F91146FFF7C8
:10021000F5FF02F08BFD00F084F903B4FFF7F2FF65
:1002200003BC00F087F900002C4B19680868B0E89F
:10023000F04F80F30988BFF36F8F4FF0000080F319
:10024000118870470000000008480068006880F3CB
:1002500008884FF0000080F3148862B661B6BFF3DF
:100260004F8FBFF36F8F00DF00BF00BF08ED00E0CE
:10027000DFF80C00016841F470010160704700BFB5
:1002800088ED00E0EFF30980BFF36F8F134B1A681E
:100290001EF0100F08BF20ED108A20E9F04F10600B
:1002A00009B44FF0500080F31188BFF34F8FBFF3B4
:1002B0006F8F03F0E7FB4FF0000080F3118809BC5B
:1002C00019680868B0E8F04F1EF0100F08BFB0ECD6
:1002D000108A80F30988BFF36F8F704728000020D1
:1002E000EFF3058070470000094880470948004740
:1002F000FEE7FEE7FEE7FEE7FEE7FEE7FEE7FEE7D6
:10030000FEE7FEE704480549054A064B7047000032
:10031000A921000889010008A0470020A04D002065
:10032000A0490020A049002053EA020C00F0698097
:100330002DE9F04B4FF00006002B1FBFB3FA83F5F9
:1003400003FA05F424FA05F65E4012BF1643B2FA2A
:1003500082F502FA05F4C5F120051EBF22FA05FC5C
:1003600044EA0C04203556EA044C4FEA144418BF02
:10037000641C4FF000084FF00009904271EB030C31
:1003800039D3002919BFB1FA81F701FA07F6B0FA9B
:1003900080F700FA07F6C7F120071EBF20FA07FC16
:1003A00046EA0C062037B6FBF4FCA7EB0507103F26
:1003B00007F01F0BCBF120060CFA0BFB2CFA06F60C
:1003C00044BFB3460026202FA4BF5E464FF0000B6B
:1003D0005BEA060C08BF4FF0010B19EB0B09ABFBF6
:1003E000027C48EB0608C01B06FB02CC0BFB03CCCF
:1003F00071EB0C01C1E70B46024641464846BDE899
:10040000F08B13B54FF000004FF00001AFF3008008
:10041000BDE81C40704710B5203AC0F00B80B1E831
:100420001850203AA0E81850B1E81850A0E8185029
:10043000BFF4F5AF5FEA027C24BFB1E81850A0E832
:10044000185044BF18C918C0BDE810405FEA827C4C
:1004500024BF51F8043B40F8043B08BF7047D20763
:1004600028BF31F8023B48BF11F8012B28BF20F804
:10047000023B48BF00F8012B70474FF0000200B567
:10048000134694469646203922BFA0E80C50A0E8B7
:100490000C50B1F12001BFF4F7AF090728BFA0E865
:1004A0000C5048BF0CC05DF804EB890028BF40F831
:1004B000042B08BF704748BF20F8022B11F0804F73
:1004C00018BF00F8012B7047704770477047000055
:1004D000004870473C4700207546FFF7F9FFAE46DD
:1004E00005006946534620F00700854618B020B540
:1004F000FFF708FFBDE820404FF000064FF000076F
:100500004FF000084FF0000B21F00701AC46ACE8BB
:10051000C009ACE8C009ACE8C009ACE8C0098D4628
:10052000704710B50446AFF300802046BDE8104088
:10053000FFF773BE01491820ABBEFEE7260002009C
:100540007047000010B52DED028BA648406800EE04
:10055000100ABCEEC00A10EE100A84B2A24890F84D
:100560005C0001287DD1502C15D006DC322C09D03E
:100570003C2C0AD0462C17D10AE0642C0ED0782CE3
:1005800012D10EE09FED998A0FE09FED988A0CE062
:100590009FED968A09E09FED958A06E09FED938A8C
:1005A00003E09FED928A00E000BF00BF8E4890F804
:1005B0005A0040B1012807D1BFEE000A28EE000A18
:1005C000B0EE408A00E000BF00BF874890F85B00B3
:1005D000052874D2DFE800F0B4D903376C008248F4
:1005E00090F85A0001281CD1DFED801AB0EE481AAD
:1005F000DFED7F0AB0EE000A7E4803F00FF87D4879
:1006000090ED010A784880ED000A90ED000AB5EE01
:10061000C00AF1EE10FA15D10020734981F85A0092
:1006200010E0DFED721AB0EE481ADFED730AB0EE9B
:10063000000A704802F0F2FF6E4890ED010A6A4825
:1006400080ED000A00BF684890F85A00F0B9F0EE5B
:10065000481A9FED661ADFED690AB0EE000A654898
:1006600000E0B9E002F0DAFF624890ED010A5E486E
:1006700080ED000A90ED000AB5EEC00AF1EE10FA26
:1006800015D10120584981F85A0010E0F1EE481ABE
:100690009FED561ADFED5A0AB0EE000A554802F0F7
:1006A000BDFF544890ED010A4F4880ED000A00BF9D
:1006B0004D4890F85A0018B1012840D11EE089E059
:1006C000494890ED000AB4EEC80AF1EE10FA11D2D2
:1006D000DFED461AB0EE481ADFED470AB0EE000A29
:1006E000444802F09BFF434890ED010A3E4880EDEC
:1006F000000A02E03C4880ED008A00BF3A4890EDD5
:10070000000AF1EE480AB4EEE00AF1EE10FA11DD4B
:10071000F1EE481A9FED351ADFED390AB0EE000A06
:10072000344802F07BFF334890ED010A2E4880EDFB
:10073000000A04E0B1EE480A2B4880ED000A00BF31
:10074000294890F85A00012809D19FED280A264827
:1007500080ED000A0020244981F85A0014E0224864
:1007600090F85A0080B9DFED211AB0EE481ADFED9B
:10077000220AB0EE000A1F4802F050FF1D4890ED1B
:10078000010A194880ED000A00BF174890F85A0086
:1007900048B99FED160A144880ED000A012012495D
:1007A00081F85A0015E0104890F85A00012810D13D
:1007B000DFED0E1AB0EE481ADFED0F0AB0EE000AB8
:1007C0000C4802F02BFF0B4890ED010A064880ED23
:1007D000000A00BF00BF01E003F09AF9BDEC028BF4
:1007E00010BD0000E04600209841002000000000FD
:1007F00000004843404500200000C842000048C3B4
:100800000000C8C2174840780B2825D2DFE800F066
:100810002406090C0F1215181B1E21009FED120A49
:100820001BE09FED110A18E09FED0F0A15E09FED08
:100830000E0A12E09FED0C0A0FE09FED0B0A0CE090
:100840009FED090A09E09FED080A06E09FED060A00
:1008500003E09FED050A00E000BF00BF034880ED04
:10086000000A7047D34600200000000070450020B9
:1008700000BFFEE7704772B600BFFEE7F0B5044662
:100880000D461E4694F8207020688368A86800B959
:1008900000E000BF012F01D0022F7DD103F0806066
:1008A00030B903F0006018B903F0805000287ED002
:1008B000C3F30161012088403060A86860B9B5F8D1
:1008C00000C0E86840EA4C5C206800F5C07000EBAE
:1008D0000110C0F800C00FE0D5E901C040EACC002B
:1008E000D5F80CC040EA0C00D4F800C00CF5C07C70
:1008F0000CEB011CCCF80000D5F810C0206800F506
:10090000C07000EB0110C0F804C0287D01280ED192
:10091000206800F5C07000EB0110406840F4807C56
:10092000206800F5C07000EB0110C0F804C0D07959
:10093000000692F806C040EA0C4092F805C040EA72
:100940000C2092F804C040EA0C00D4F800C00CF56A
:10095000C07C0CEB011CCCF80C00D078000692F89F
:1009600002C040EA0C4092F801C040EA0C2092F824
:1009700000C040EA0C00D4F800C00CF5C07C0CEBC1
:10098000011CCCF80800206800F5C07000EB0110D5
:10099000006840F0010C01E00FE008E0206800F57D
:1009A000C07000EB0110C0F800C00020F0BD606A0C
:1009B00040F4001060620120F8E7606A40F4802093
:1009C00060620120F2E70146002091F82020012A10
:1009D00001D0022A11D10B689B6803F0806303B138
:1009E000401C0B689B6803F0006303B1401C0B685C
:1009F0009B6803F0805303B1401C704770B50446F8
:100A00000CB9012070BD94F8200010B9204600F008
:100A1000AFF82068006840F001002168086000F02D
:100A20004BFA05460DE000F047FA401B0A2808D9AA
:100A3000606A40F400306062052084F820000120E4
:100A4000E0E72068406800F001000028EBD0206853
:100A5000006820F002002168086000F02DFA0546C9
:100A60000DE000F029FA401B0A2808D9606A40F41A
:100A700000306062052084F820000120C2E7206871
:100A8000406800F002000028EBD1207E012806D14A
:100A90002068006840F080002168086005E0206858
:100AA000006820F0800021680860607E012806D17F
:100AB0002068006840F040002168086005E0206878
:100AC000006820F0400021680860A07E012806D15F
:100AD0002068006840F020002168086005E0206878
:100AE000006820F0200021680860E07E012806D11F
:100AF0002068006820F010002168086005E0206888
:100B0000006840F0100021680860207F012806D1AD
:100B10002068006840F008002168086005E020684F
:100B2000006820F0080021680860607F012806D175
:100B30002068006840F004002168086005E0206833
:100B4000006820F0040021680860D4E9020108432D
:100B500021690843616908436168491E08432168A7
:100B6000C86100206062012084F82000002049E76D
:100B700010B586B00446142101A8FFF77EFC474952
:100B80002068884239D146480068401C44490860C2
:100B90000846006801280FD100BF0020009041489E
:100BA000006840F000703F4908600846006800F0A7
:100BB0000070009000BF00BF00BF002000903948C7
:100BC0001038006840F008003649103908600846BF
:100BD000006800F00800009000BF00BF03200190F3
:100BE0000220029000200390032004900920059029
:100BF00001A92D4800F05EF84DE02C49206888429C
:100C000049D100BF002000902648006840F0806075
:100C1000244908600846006800F08060009000BF2A
:100C200000BF1F480068401C1D4908600846006856
:100C300001280FD100BF002000901A48006840F042
:100C40000070184908600846006800F000700090C5
:100C500000BF00BF00BF002000901248103800689D
:100C600040F002000F49103908600846006800F0A3
:100C70000200009000BF00BF4FF4405001900220DE
:100C8000029000200390032004900920059001A900
:100C9000074800F00FF806B010BD000000640040E7
:100CA0001400002040380240000C02400068004060
:100CB00000040240F8B502460B460025002400203F
:100CC0000021D6E0012606FA01F51E6806EA0504B1
:100CD000AC4274D11E7906F00306012E04D01E79B1
:100CE00006F00306022E13D190684F000326BE4083
:100CF000B0434F00DE68BE4030439060506801262C
:100D00008E40B0431E79C6F300168E4030435060CB
:100D10001E7906F00306032E09D0D0684F00032683
:100D2000BE40B0434F009E68BE403043D0601E7945
:100D300006F00306022E13D1CF0802F1200656F862
:100D400027004E07F70E0F26BE40B0434F07FF0E99
:100D50001E69BE403043CF0802F1200646F8270046
:100D600010684F000326BE40B0431E7906F003060C
:100D70004F00BE40304310605E6806F44036002EDF
:100D800076D000BF002600963C4E366846F480467A
:100D90003A4F3E603E46366806F48046009600BFF5
:100DA00000BF374E8F0856F827008E07370F0F26E3
:100DB000BE40B043334EB24202D1002624E057E099
:100DC000314EB24201D101261EE0304EB24201D175
:100DD000022619E02E4EB24201D1032614E02D4E18
:100DE000B24201D104260FE02B4EB24201D10526BA
:100DF0000AE02A4EB24201D1062605E0284EB24250
:100E000001D1072600E008268F073F0FBE40304380
:100E10001B4E8F0846F82700224E3068A0435E68BC
:100E200006F4801606B120431E4E3060361D306831
:100E3000A0435E6806F4001606B12043194E361D25
:100E40003060184E361F3068A0435E6806F40036E6
:100E500006B12043134E361F3060361F3068A04362
:100E60005E6806F4803606B120430E4E083E3060C0
:100E7000491C1029FFF426AFF8BD00004438024099
:100E8000083801400000024000040240000802400F
:100E9000000C024000100240001402400018024002
:100EA000001C0240083C0140024613690B400BB194
:100EB000012000E0002070470148006870470000F2
:100EC00018000020034800680349097808440149D4
:100ED00008607047180000202000002010B50D4861
:100EE000006840F400700B4908600846006840F450
:100EF000806008600846006840F480700860032045
:100F000000F0D6F80F2000F007F800F055F80020A8
:100F100010BD0000003C0240F0B587B0044600263A
:100F2000002700BF002000901E48006840F40030F9
:100F30001C4908600846006800F40030009000BFBB
:100F400000BF01A902A800F089F900F0BFF946002E
:100F50001548B6FBF0F0471E14481549086040F2EA
:100F6000E7311348C1604760002101618160816100
:100F700000F062FC054695B90D4800F091FC05466D
:100F80006DB9192000F042F8102C07D2002221463A
:100F9000192000F04FF80748046000E001252846BA
:100FA00007B0F0BD4438024040420F000044014009
:100FB000280400201C00002008B500BF002000907D
:100FC0001148006840F480400F49086008460068F6
:100FD00000F48040009000BF00BF00BF00200090E0
:100FE000081F006840F08050091F0860084600682C
:100FF00000F08050009000BF00BF00220F21901E23
:1010000000F018F808BD00004438024001460846C8
:1010100000280DDB00BF00BF00F01F0301229A4033
:1010200043099B0003F1E023C3F8002100BF00BF88
:1010300000BF70472DE9F05F80460D461646002739
:1010400001F050FA074639462A46334601F00700B8
:10105000C0F1070ABAF1040F02D94FF0040A01E007
:10106000C0F1070AD14600F1040ABAF1070F02D213
:101070004FF0000A01E0A0F1030AD4464FF0010A44
:101080000AFA09FAAAF1010A0AEA020A0AFA0CFAA9
:101090004FF0010B0BFA0CFBABF1010B0BEA030B4E
:1010A0004AEA0B042146404601F024FABDE8F09FCD
:1010B00000BF00F00702064B19684FF6FF03194006
:1010C000044B0B4343EA0221014B196000BF7047F8
:1010D0000CED00E00000FA0570B504460D460CB9B1
:1010E000012070BD5848006800F00700A84209D2EE
:1010F00055490D700846006800F00700A84201D06D
:101100000120EEE7207800F0020002281DD12078AF
:1011100000F00400042805D14C48006840F4E05079
:101120004A490860207800F00800082805D147489F
:10113000006840F46040454908604448006820F079
:10114000F000A168084341490860207800F00100E0
:10115000A8B36068012807D13C4808380068C0F38C
:101160004040B8B90120BCE76068022802D060683E
:10117000032807D1354808380068C0F3406048B9F3
:101180000120AEE7314808380068C0F3400008B9D4
:101190000120A6E72D48006820F00300616808439D
:1011A0002A490860FFF788FE064609E0FFF784FE3B
:1011B000801B41F28831884202D9032091E707E081
:1011C0002248006800F00C006168B0EB810FEDD19F
:1011D0001D48006800F00700A84209D91A490D709F
:1011E0000846006800F00700A84201D0012078E717
:1011F000207800F00400042807D11448006820F487
:10120000E050E168084311490860207800F00800C8
:10121000082808D10D48006820F46040216940EAA0
:10122000C1000A49086000F061F808490968C1F383
:101230000311074A515CC840064908600648006827
:10124000FFF76AFE00204CE7003C024008380240ED
:10125000D4400008240000201C0000200F2202605F
:101260000D4A126802F0030242600B4A126802F053
:10127000F0028260084A126802F4E052C260064A34
:10128000126802F46042D2080261044A126802F055
:1012900007020A607047000008380240003C024024
:1012A00001480068704700002400002000B5FFF7E7
:1012B000F7FF04490968C1F38221034A515CC84021
:1012C00000BD000008380240E440000800B5FFF708
:1012D000E7FF04490968C1F34231034A515CC84041
:1012E00000BD000008380240E44000082DE9F04746
:1012F000002400250026A1462548006800F00C00C7
:1013000020B1042805D008283AD105E0DFF8849000
:1013100039E0DFF8809036E01D48001F006800F0DB
:101320003F041B48001F006800F4800078B1194892
:101330001749091F0968C1F38811A0FB0170014614
:10134000224600233846FEF7EFFF05460EE011481F
:101350000F49091F0968C1F38811A0FB01700146FC
:10136000224600233846FEF7DFFF05460848001FE7
:101370000068C0F30140401C4600B5FBF6F902E0EE
:10138000DFF8109000BF00BF4846BDE8F0870000BE
:10139000083802400024F400F8B504460CB90120D6
:1013A000F8BD207800F00100002874D0F9480068EA
:1013B00000F00C0004280DD0F648006800F00C0086
:1013C000082813D1F348001F006800F48000B0F52E
:1013D000800F0BD1EF4808380068C0F34040002868
:1013E00059D06068002856D10120D9E700BF606855
:1013F000B0F5803F08D1E7480838006840F48030F5
:10140000E449083908601EE06068B0F5A02F0DD1EE
:10141000E0480838006840F48020DE490839086058
:101420000846006840F4803008600CE0D94808386D
:10143000006820F48030D749083908600846006801
:1014400020F48020086000BF606890B1FFF734FD91
:10145000054606E0FFF730FD401B642801D9032054
:101460009EE7CC4808380068C0F340400028F1D01F
:1014700011E0FFF721FD054606E0FFF71DFD401BCB
:10148000642801D903208BE7C24808380068C0F3FC
:1014900040400028F1D1207800F0020002285FD1FE
:1014A000BC48006800F00C0058B1BA48006800F071
:1014B0000C0008281CD1B748001F006800F4800009
:1014C000B0B9B44808380068C0F3400020B1E06803
:1014D000012801D0012063E7AE480838006820F0F9
:1014E000F800216940EAC100AA490839086037E0DC
:1014F000E06800B30120A8490860FFF7DDFC05465D
:1015000006E0FFF7D9FC401B022801D9032047E77A
:10151000A04808380068C0F340000028F1D09D487A
:101520000838006820F0F800216940EAC1009949B4
:101530000839086014E0002097490860FFF7BCFCF8
:10154000054606E0FFF7B8FC401B022801D903203E
:1015500026E7904808380068C0F340000028F1D121
:10156000207800F0080008282CD16069A8B101207B
:101570008A490860FFF7A0FC054606E0FFF79CFCDF
:10158000401B022801D903200AE782486C3000681A
:10159000C0F340000028F1D014E000207F4908602B
:1015A000FFF78AFC054606E0FFF786FC401B022891
:1015B00001D90320F4E677486C300068C0F340009E
:1015C0000028F1D1207800F00400042870D1002711
:1015D00070483830006800F0805090B900BF00209B
:1015E00000906C483830006840F0805069493831CC
:1015F00008600846006800F08050009000BF00BFFF
:1016000001276748006800F48070B0B9644800683A
:1016100040F4807062490860FFF74EFC054606E022
:10162000FFF74AFC401B022801D90320B8E65C48BA
:10163000006800F480700028F2D000BFA068012884
:1016400008D154486830006840F0010051496831C1
:1016500008601DE0A06805280DD14E48683000687C
:1016600040F004004B49683108600846006840F0CB
:10167000010008600CE047486830006820F0010075
:101680004449683108600846006820F0040008609A
:1016900000BFA068A8B1FFF70FFC054609E0FFF7FF
:1016A0000BFC401B41F28831884202D9032077E6C7
:1016B00026E0384868300068C0F340000028EED0CB
:1016C00013E0FFF7F9FB054608E0FFF7F5FB401BC9
:1016D00041F28831884201D9032061E62D48683003
:1016E0000068C0F340000028EFD1012F07D129483E
:1016F0003830006820F0805026493831086000BF3B
:10170000A069002845D02348006800F00C00082894
:101710005DD0A069022845D100201F490866FFF767
:10172000CBFB054606E0FFF7C7FB401B022801D9AB
:10173000032035E6174808380068C0F340600028E9
:10174000F1D1D4E907010843616A40EA811101221D
:10175000A06AC2EB500041EA00412C20005D41EA42
:1017600000600C49091F086001200B490866FFF75B
:10177000A3FB054606E0FFF79FFB401B022801D9AB
:1017800003200DE6034808380068C0F340600028D5
:10179000F1D049E00838024000004742800E47423D
:1017A00000700040002021490866FFF785FB0546D0
:1017B00006E0FFF781FB401B022801D90320EFE57B
:1017C0001B480068C0F340600028F2D12CE0A069FB
:1017D000012800D1E4E51648001D0668A06901282B
:1017E00020D006F48001E06981421BD106F03F0160
:1017F000206A814216D147F6C0703040616AB0EB72
:10180000811F0FD106F440310122A06AC2EB5000C3
:10181000B1EB004F06D106F070612C20005DB1EBFA
:10182000006F01D00120BBE50020B9E50000474270
:10183000003802407047704710B504460CB90120CB
:1018400010BD94F83D0028B9002084F83C002046E3
:1018500000F025F8022084F83D00211D206800F0EA
:10186000B5FC012084F8460000BF84F83E00012149
:101870003F200155402001554120015500BF00BFC8
:10188000012084F8420043200155442001554520A1
:10189000015500BF012084F83D000020D0E77047CB
:1018A000014691F83D00012801D001207047022037
:1018B00081F83D000868C06840F001000B68D860FE
:1018C0001A4B086898421BD00868B0F1804F17D0B7
:1018D000174B0868984213D0164B086898420FD0EF
:1018E000154B086898420BD0144B0868984207D0F3
:1018F000134B0868984203D0124B086898420CD1E9
:101900000868806800F00702062A0CD008680068A2
:1019100040F001000B68186005E00868006840F0BE
:1019200001000B6818600020C0E7000000000140C3
:101930000004004000080040000C0040000401408A
:101940000040014000180040704770B50446206810
:10195000C5682068066906F00200022819D105F062
:101960000200022815D1401F21680861012020775C
:101970002068806900F0030018B12046FFF7E4FFFB
:1019800005E0204600F097F8204600F095F800208A
:10199000207706F00400042819D105F0040004287B
:1019A00015D1C04321680861022020772068806932
:1019B00000F4407018B12046FFF7C6FF05E020464E
:1019C00000F079F8204600F077F80020207706F044
:1019D0000800082819D105F00800082815D1C043CF
:1019E00021680861042020772068C06900F00300A6
:1019F00018B12046FFF7A8FF05E0204600F05BF88D
:101A0000204600F059F80020207706F0100010283A
:101A100019D105F01000102815D1C04321680861C4
:101A2000082020772068C06900F4407018B1204673
:101A3000FFF78AFF05E0204600F03DF8204600F061
:101A40003BF80020207706F0010048B105F00100C6
:101A500030B16FF0010021680861204600F02EF8D7
:101A600006F08000802809D105F08000802805D18B
:101A7000C043216808612046FFF7DCFE06F0400005
:101A8000402809D105F04000402805D1C043216815
:101A90000861204600F01EF806F02000202809D139
:101AA00005F02000202805D1C043216808612046A8
:101AB000FFF7C1FE70BD70477047000010B50446C7
:101AC00003492068884201D1FFF7FCF910BD0000EE
:101AD00000440140704710B504460CB9012010BD08
:101AE000A06900B100E000BF94F8410028B90020CF
:101AF00084F84000204600F029F8242084F84100B2
:101B00002068C06820F400502168C860204600F0BA
:101B1000D1FB2068006920F49040216808612068AA
:101B2000406920F02A00216848612068C06840F4BC
:101B300000502168C86000206064202084F84100C3
:101B400084F842000020606300BFC8E710B586B08B
:101B50000446142101A8FEF790FC604920688842E1
:101B60004DD100BF002000905D48006840F4801017
:101B70005B4908600846006800F48010009000BFD0
:101B800000BF00BF0020009055481038006840F0AA
:101B900004005349103908600846006800F004004A
:101BA000009000BF00BF00BF002000900846006802
:101BB00040F0080008600846006800F00800009047
:101BC00000BF00BF88140190022002900020039003
:101BD000032004900820059001A94248FFF76AF805
:101BE0000420019002200290002003900320049022
:101BF0000820059001A93C48FFF75CF86CE03B49E0
:101C00002068884233D100BF002000903448001D76
:101C1000006840F010003249091D0860084600685D
:101C200000F01000009000BF00BF00BF0020009037
:101C30002B481038006840F001002949103908602D
:101C40000846006800F00100009000BF00BF4FF49C
:101C5000C0600190022002900020039003200490B5
:101C60000720059001A92248FFF724F834E0214914
:101C70002068884230D100BF0020009018480068DA
:101C800040F48020164908600846006800F480206F
:101C9000009000BF00BF00BF002000901048103827
:101CA000006840F002000E491039086008460068DC
:101CB00000F00200009000BF00BF4FF440600190B0
:101CC000022002900020039003200490072005903A
:101CD00001A90948FEF7EEFF06B010BD0050004014
:101CE0004038024000080240000C02400010014051
:101CF00000000240004800400004024000BFFEE730
:101D000010B50D480D4908600620486000210B48B9
:101D10008160C1604FF4003101610901416100211E
:101D2000017641768176C17601774177FEF766FECE
:101D300008B1FEF7A0FD10BD0064004000030020C4
:101D400010B50D480D4908600620486000210B4879
:101D50008160C1604FF400310161090141610021DE
:101D6000017641768176C17601774177FEF746FEAE
:101D700008B1FEF780FD10BD006800402803002078
:101D800000B5A3B01C221E491CA8FEF744FB00218D
:101D90001CA801F01DF81B4908601C2218491C31C1
:101DA00015A8FEF738FB002115A801F011F8164917
:101DB00008601C22124938310EA8FEF72CFB0021C6
:101DC0000EA801F005F8114908601C220C49543195
:101DD00007A8FEF720FB002107A800F0F9FF0C4937
:101DE00008601C22064970316846FEF714FB00218A
:101DF000684600F0EDFF0749086023B000BD000011
:101E000048400008100000200800002000000020CA
:101E1000040000200C00002000B587B0142102A8A7
:101E2000FEF72BFB00BF002001902A48006840F01D
:101E30000400284908600846006800F0040001908A
:101E400000BF00BF00BF002001900846006840F0BE
:101E5000800008600846006800F08000019000BF24
:101E600000BF00BF002001900846006840F002005B
:101E700008600846006800F00200019000BF00BF43
:101E800000BF002001900846006840F00100086093
:101E90000846006800F00100019000BF00BF00BFCD
:101EA000002001900846006840F0080008600846DD
:101EB000006800F00800019000BF00BF0815029004
:101EC00000200390049002A90348FEF7F3FE07B038
:101ED00000BD0000303802400008024010B50B4839
:101EE0000B4908604FF4E1304860002108488160E8
:101EF000C16001610C21416100218161C161FFF775
:101F0000EAFD08B1FEF7B7FC10BD0000005000402C
:101F10005003002010B50B480B4908600B4848607F
:101F20004FF48051084881600021C16001610C219B
:101F3000416100218161C161FFF7CDFD08B1FEF76C
:101F40009AFC10BD0010014098030020A0860100FB
:101F500010B50B480B4908604FF47A3048600021F7
:101F600008488160C16001610C21416100218161EB
:101F7000C161FFF7B0FD08B1FEF77DFC10BD0000A8
:101F800000480040E00300201F48B0F90400C0EB07
:101F9000001000EE100AB8EEC00A1C4880ED000ADE
:101FA00090ED000AB5EEC00AF1EE10FA02DD90EDF8
:101FB000000A04E0154890ED000AB1EE400ADFED9A
:101FC000140AB4EEE00AF1EE10FA11DD0F4890EDBC
:101FD000000AB5EEC00AF1EE10FA04DD9FED0C0A1E
:101FE00080ED000A04E09FED0B0A084880ED000A2E
:101FF000064890ED000A80ED010A90ED000AB1EE6E
:10200000400A80ED020A70471847002098410020DE
:1020100000007A4400007AC40748B0F9000000EEDE
:10202000100AB8EEC00ADFED050A20EE200A0448C7
:1020300080ED000A70470000184700206F1203BAB5
:102040007045002000BFFEE700BFFEE72DE9F0412C
:102050002DED068B04460D461646B0EE408AF0EE96
:10206000608AB0EE419AF0EE619AB0EE42AAF0EECC
:1020700062AA1F460D4844F8840F0D48606054F86A
:1020800084C93B46F0EE6A2AB0EE4A2AF0EE691A9D
:10209000B0EE491AF0EE680AB0EE480A3246294618
:1020A0002046E047BDEC068BBDE8F081F52F000827
:1020B0001730000800BF012000F06CFEFBE70000B5
:1020C00010B500BF502080F31188BFF34F8FBFF3CE
:1020D0006F8F00BF01F08CFE18B14FF080500449A3
:1020E000086000BF002080F3118800BF10BD000011
:1020F00004ED00E000B593B0302107A8FEF7BDF96C
:10210000142102A8FEF7B9F900BF0020019024486D
:10211000006840F08050224908600846006800F0DE
:102120008050019000BF00BF00BF002001901D48FB
:10213000006840F480401B4908600846006800F4CD
:102140008040019000BF00BF01200790000408906C
:1021500002200D9041050E9108210F91A8211091A8
:10216000022111910421129107A8FFF715F908B176
:10217000FEF781FB0F2002900220039000200490C4
:102180004FF4A05005904FF480500690052102A80E
:10219000FEF7A2FF08B1FEF76EFB13B000BD000012
:1021A00040380240007000400348006840F470006E
:1021B000014908607047000088ED00E010B5024852
:1021C000FFF7C3FB10BD00002804002010B5026813
:1021D0002D4B98420ED0B0F1804F0BD02B4B984234
:1021E00008D02B4B984205D02A4B984202D02A4B5C
:1021F000984203D122F070024B681A43224B984256
:1022000020D0B0F1804F1DD0204B98421AD0204BE7
:10221000984217D01F4B984214D01F4B984211D0B0
:102220001E4B98420ED01E4B98420BD01D4B98422D
:1022300008D01D4B984205D01C4B984202D01C4B35
:10224000984203D122F44072CB681A4322F08003F3
:102250004C6943EA040202608B68C3620B688362C4
:10226000094B984202D00C4B984201D10B69036391
:1022700001234361036903F001031BB1036923F0E8
:102280000103036110BD0000000001400004004094
:1022900000080040000C00400004014000400140E4
:1022A000004401400048014000180040001C00406C
:1022B000002000402DE9F84F04462068006920F412
:1022C0004050E1680843216808612169A06808431B
:1022D00061690843E169084300902068C06849F2D9
:1022E0000C618843009908432168C86020684069F0
:1022F00020F44070A169084321684861764920684C
:10230000884203D075492068884203D1FEF7DEFF7A
:10231000814602E0FEF7CAFF8146E069B0F5004F52
:102320006CD102206168A0FB015003461920A9FB73
:10233000007001462A463846FDF7F6FF6421B0FBDF
:10234000F1F04FEA001A02206168A0FB01510B4630
:102350001920A9FB00712A463846FDF7E5FF8346A0
:1023600002206168A0FB015003461920A9FB0071FF
:102370002A463846FDF7D8FF6421B0FBF1F000EBA8
:10238000C00101EB0010ABEB8000322101EBC0007B
:102390006421B0FBF1F000F0F8000AEB400A0220E3
:1023A0006168A0FB015003461920A9FB007001469B
:1023B0002A463846FDF7B8FF834602206168A0FB35
:1023C000015003461920A9FB00712A463846FDF743
:1023D000ABFF6421B0FBF1F000EBC00101EB00109A
:1023E000ABEB8000322101EBC0006421B0FBF1F0C7
:1023F00000F007005044216888606AE004206168AA
:10240000A0FB015003461920A9FB007001462A4693
:102410003846FDF789FF824604206168A0FB015021
:1024200003461920A9FB007001462A463846FDF7ED
:102430007BFF6421B0FBF1F000EBC00101EB001069
:10244000AAEB8000322101EB00106421B0FBF1F017
:1024500000F0F00A04206168A0FB01700346192017
:10246000A9FB00513A462846FDF75EFF6421B0FB08
:10247000F1F00AEB001A04206168A0FB01510B4641
:102480001920A9FB00712A463846FDF74DFF834607
:1024900004206168A0FB015003461920A9FB0070CD
:1024A00001462A463846FDF73FFF6421B0FBF1F0B4
:1024B00000EBC00101EB0010ABEB8000322101EB1F
:1024C00000106421B0FBF1F000F00F0050442168CF
:1024D0008860BDE8F88F0000001001400014014042
:1024E00000BFFEE702480068C0F30220704700000A
:1024F0000CED00E010B5002804DB0A07130E054AB6
:10250000135406E00A07140E034A00F00F031B1FC2
:10251000D45410BD00E400E018ED00E090ED001A86
:1025200070EE201AB4EEE11AF1EE10FA03DD30EE8F
:10253000201A80ED001A90ED001AF1EE401A71EEAB
:10254000A01AB4EEE11AF1EE10FA05D2B1EE401A7B
:1025500031EE201A80ED001A704700002DE9F04797
:1025600088B007460C4615461E46DDF840804FF001
:10257000000A029700200490059008200690200A87
:102580008DF80000E0B28DF80100280A8DF80200F5
:10259000E8B28DF80300300A8DF80400F0B28DF82F
:1025A00005004FEA18208DF8060008F0FF008DF8AE
:1025B0000700D1460F48FEF706FA00F0FF0A0EE0CA
:1025C00009F1010000F0FF090A48FEF7FCF900F0EC
:1025D000FF0AB9F1140F02DB08B0BDE8F087BAF1C9
:1025E000000FEDD0044B6A4602A90248FEF746F9F7
:1025F00000BFF1E7000300209C0000201CB500F0A4
:10260000DDFB019000BF01F0C5F80F48007828B944
:102610000E480021C16001610D48818000200090BA
:102620000B48B0F904300948B0F90C20B0F90E108D
:102630004FF40070FFF792FF01F0D6F8012101A8D6
:1026400000F0B4FBDFE7000090000020984100207C
:102650007045002010B50A4890F8580020B10128B4
:1026600006D0022809D106E005480021016004E0F7
:10267000FFF78AFC00BFFDF765FF00BF10BD00003B
:102680009841002010B50123DFED3E2A9FED3D2A41
:10269000DFED3C1A9FED3B1ADFED3A0A9FED390A58
:1026A000002211463848FFF7D1FC0123DFED352A1F
:1026B0009FED342ADFED331A9FED321ADFED310A38
:1026C0009FED300A002211463048FFF7BFFC01237E
:1026D000DFED2C2A9FED2B2ADFED2A1A9FED291A18
:1026E000DFED280A9FED270A002211462848FFF750
:1026F000ADFC0123DFED232A9FED222ADFED211A15
:102700009FED201ADFED1F0A9FED1E0A00221146E1
:102710002048FFF79BFC0123DFED1A2A9FED192AC1
:10272000DFED181A9FED171ADFED160A9FED150A57
:10273000002211461848FFF789FC0123DFED112A1A
:102740009FED102ADFED0F1A9FED0E1ADFED0D0A37
:102750009FED0C0A002211461048FFF777FCB2EEFD
:102760000E0A0F4880ED020AB2EE0E0A80ED030A4F
:102770000C48806920B10C48806908B1012010BD67
:102780000020FCE700000000F84100208442002007
:10279000104300209C43002028440020B444002023
:1027A00028470020604100207C41002010B52148CE
:1027B00090ED020A80ED0D0A1F48B0F9040000EE0A
:1027C000100AB8EEC00A1B4880ED0E0A90ED010A0F
:1027D00080ED070A1948B0F9040000EE100AB8EEBF
:1027E000C00A144880ED080A90ED0D1AF0EE410A77
:1027F00090ED0E1AB0EE410A114800F019FBBDEE43
:10280000C00A10EE100A01B20A48C18190ED071A01
:10281000F0EE410A90ED081AB0EE410A094800F0C6
:1028200007FBBDEEC00A10EE100A00B20149888114
:1028300010BD0000984100207C4100206041002034
:102840009C4300208442002008B500F0B7FA0090B5
:10285000FFF718FF00BF00F09DFF00F047F9FFF7FA
:10286000F9FEFFF7A3FF00F0BFFF0121684600F06B
:102870009DFAF0E7034800210180C1600248018011
:10288000C1607047604100207C41002090ED0B0A40
:10289000D0ED0E0A20EE200AB5EEC00AF1EE10FAD5
:1028A00053DD90ED0B0AB5EEC00AF1EE10FA02DD31
:1028B00090ED0B0A03E090ED0B0AB1EE400AD0ED6B
:1028C000170AB4EEE00AF1EE10FA00D8704790ED66
:1028D000160AD0ED170A70EE200A90ED0B0AB5EE3D
:1028E000C00AF1EE10FA02DD90ED0B0A03E090ED64
:1028F0000B0AB1EE400AF4EEC00AF1EE10FA20DB4A
:10290000D0ED160A90ED0B0AB5EEC00AF1EE10FA02
:1029100002DD90ED0B0A03E090ED0B0AB1EE400AE8
:1029200030EEC00AD0ED170A30EE200AD0ED160ABC
:1029300080EE201A90ED100A21EE000A80ED100AB8
:1029400003E09FED030A80ED100A00BFBEE7000020
:102950000000000090ED0F0AD0ED1F0A60EE200A83
:1029600090ED200A90ED1F1A30EE011A80EE810AD8
:10297000D0ED150A90ED201A60EE810A90ED201A34
:10298000D0ED1F1A31EE211AC0EE811A30EE210A65
:1029900080ED0F0A7047704790ED0E0AD0ED100AD7
:1029A00030EE200A434981ED000A90ED0D0AD0ED8A
:1029B0000E0A30EE200AD0ED0F0A30EE200A3E4912
:1029C00081ED000A91ED000AB5EEC00AF1EE10FAB1
:1029D00002DD91ED000A04E0374991ED000AB1EE05
:1029E000400AD0ED1B0AF8EE600AB4EEE00AF1EE00
:1029F00010FA0EDD90ED0B0AD0ED0E0A20EE200A43
:102A0000B5EEC00AF1EE10FA03DD9FED2C0A80ED61
:102A1000100A284991ED000AB5EEC00AF1EE10FA4D
:102A200002DD91ED000A04E0224991ED000AB1EEC9
:102A3000400A016F09B1016F01E0016F494200EEE8
:102A4000901AF8EE600AB4EEE00AF1EE10FA03DD37
:102A50009FED1A0A80ED100A016F494200EE101A2C
:102A6000B8EE400A1349D1ED000AB4EEE00AF1EEE7
:102A700010FA06DB016F494200EE101AB8EE400A68
:102A800013E090ED1C0AB8EE400A0A49D1ED000AA5
:102A9000B4EEE00AF1EE10FA04D890ED1C0AB8EE9C
:102AA000400A02E0034991ED000A024981ED000A63
:102AB00070470000A8000020A400002000000000D3
:102AC00090ED0B0AD0ED0A0A30EE200AB0EE001AA3
:102AD000C0EE010A90ED010A20EE800AD0ED1F0A37
:102AE00020EE200A80ED100A704700003C48C068C4
:102AF000002810DA3B48C068002802DD3948C06869
:102B000002E03848C0684042002804DA0220364912
:102B100081F85B0062E03248C068002810DD31486F
:102B2000C068002802DD2F48C06802E02D48C06858
:102B30004042002804DD03202B4981F85B004DE072
:102B40002748C068002820DD2548C06800281CDA16
:102B50002448C068002802DD2248C06802E02148FD
:102B6000C0684042002810DD1E48C068002802DD11
:102B70001C48C06802E01B48C0684042002804DAD4
:102B80000420194981F85B0028E01548C068002836
:102B900010DA1448C068002802DD1248C06802E05C
:102BA0001048C0684042002804DA00200E4981F82D
:102BB0005B0013E00A48C06800280FDD0948C068C0
:102BC000002802DD0748C06802E00648C0684042AD
:102BD000002803DD0120044981F85B0070470000F4
:102BE000604100207C4100209841002010B5094838
:102BF000807920B1012806D0022809D106E00548D5
:102C00000021016004E0FFF707FA00BFFDF7FAFDBD
:102C100000BF10BD7045002010B50123DFED192A5B
:102C20009FED182ADFED171A9FED161ADFED150A32
:102C30009FED140A002211461348FFF707FA0123FB
:102C4000DFED102A9FED0F2ADFED0E1A9FED0D1A12
:102C5000DFED0C0A9FED0B0A002211460B48FFF72F
:102C6000F5F99FED0B0A0B4880ED000A9FED0A0A6B
:102C700080ED010A0948806908B1012010BD0020DB
:102C8000FCE7000000000000904500201C460020EA
:102C90006F1203BA28470020A69B443B54450020EE
:102CA00010B5114890ED000A80ED050A0F48B0F903
:102CB000040000EE100AB8EEC00A0B4880ED060AC8
:102CC00090ED051AF0EE410A90ED061AB0EE410AB9
:102CD000074800F0ADF8BDEEC00A10EE100A00B2D1
:102CE0000149888010BD0000704500205445002037
:102CF0001C46002008B500F061F80090FFF78CFF3B
:102D000000BF00F047FDFFF771FFFFF7C9FF00F0BC
:102D10006BFD0121684600F049F8F2E700BFEFF3D0
:102D2000058008B1012070470020FCE7FEF7D6F8C7
:102D3000FFF7E0F9FFF770F8FEF7E2FFFFF700F8A2
:102D4000FFF7CCF8FFF7E6F8FFF702F9FFF718F8FE
:102D500000F02FF800BFFEE701460020842901D0D3
:102D6000CA1C104470470000002008490870084938
:102D7000087000BF0648007810B900F099FC01E027
:102D800000F07AFC0A2000F005F8F3E7900000203C
:102D90009100002070B5044625460DB1294600E09B
:102DA0000121084600F0E0FD002070BD02468120B0
:102DB000704710B500F006FE002010BD10B5FFF7FB
:102DC000ADFF10B101F00AF810BD01F001F8FBE70A
:102DD0007FB504460D46606998B1A06988B1B4F921
:102DE0000800FFF7B9FF0646D4E90510CDE90061F8
:102DF00002902B462269D4E9001000F08BFF03906B
:102E000013E0B4F90800FFF7A7FF064603A8CDE9D1
:102E10000060238A9AB22B46D4E9001000F048FFE4
:102E2000012802D0002004B070BD0398FBE7000029
:102E300010B52DED028B0446B0EE408AF0EE608AAC
:102E400084ED088AC4ED058A38EEC80A84ED0B0AC1
:102E500094ED180AB5EEC00AF1EE10FA19D094ED0F
:102E60000B0AB5EEC00AF1EE10FA02DD94ED0B0A82
:102E700003E094ED0B0AB1EE400AD4ED180AB4EE6B
:102E8000E00AF1EE10FA04DD9FED590ABDEC028B69
:102E900010BD94ED190AB5EEC00AF1EE10FA17D084
:102EA00094ED0B0AB5EEC00AF1EE10FA02DD94EDD6
:102EB0000B0A03E094ED0B0AB1EE400AD4ED190AB7
:102EC000B4EEE00AF1EE10FA02D29FED490ADDE716
:102ED00094ED000AD4ED0B0A20EE200A84ED0D0AD1
:102EE00094ED010AD4ED0B0A20EE200A84ED100ABD
:102EF00094ED0B0AD4ED0A0A30EE600AD4ED020A12
:102F000020EE200A84ED0F0A94F8740000F004000B
:102F100010B12046FFF7D4FD94F8740000F02000B3
:102F200010B12046FFF7B2FC94F8740000F00200E4
:102F300010B12046FFF72FFD94F8740000F0400018
:102F400010B12046FFF706FD94F8740000F0010070
:102F500010B12046FFF720FD94ED0E0AD4ED100AC3
:102F600030EE200A84ED0E0AD4ED1C0AF8EE600A59
:102F7000B0EE600ADFED1E0A04F13800FFF7CEFA6A
:102F800094ED0D0AD4ED0E0A30EE200AD4ED0F0AAE
:102F900030EE200A84ED110AD4ED1B0AF8EE600A27
:102FA000B0EE600ADFED120A04F14400FFF7B6FA52
:102FB00094ED110A84ED120A94ED0A0A84ED090ACF
:102FC00094ED0B0A84ED0A0A94ED070A84ED060AD3
:102FD00094ED080A84ED070A94ED040A84ED030ACF
:102FE00094ED050A84ED040A94ED110A4EE7000001
:102FF000000000000267C166C0ED191A80ED000AEA
:10300000C0ED010A80ED021A80ED162AC0ED172AE4
:1030100080F87430704780ED000AC0ED010A80ED41
:10302000021A70472DE9F04105460E461C48076814
:103030001C480068001D00F057FB50B91948006893
:1030400090F82C10012088401749096881431648E0
:103050000160681C38B936B112480168091D13486F
:1030600000F08CFB1AE07C190E4800684460BC42FA
:1030700007D20C480168091D0D48006800F064FB88
:103080000CE008480168091D0A48006800F05CFB74
:1030900009480068844201D207480460BDE8F08115
:1030A0003C00002028000020400000204C050020AB
:1030B000300000202C0000205800002010B50446ED
:1030C00000F068FB23480068401C22490860224841
:1030D000006840B9204804600846006801280DD106
:1030E00000F03EF90AE01D48006838B91A48006847
:1030F000C06AE16A884201D817480460184800682D
:10310000401C1749086094F82C100120884015498C
:103110000968084313490860E16A01EB8101124A1A
:1031200002EB8100211D00F029FB00F05DFB0B4844
:10313000006868B108480068C06AE16A884207D23E
:103140004FF0805009490860BFF34F8FBFF36F8F76
:1031500010BD00003800002028000020440000209E
:1031600054000020400000207004002004ED00E026
:1031700010B516E000F00EFB0C48C068C468201DB6
:1031800000F0B2FA0A480068401E09490860094880
:103190000068401E0749086000F026FB204600F04A
:1031A0000BF8044800680028E4D110BD3805002061
:1031B000380000203400002010B5044694F8510077
:1031C00030B9206B00F02EFB204600F02BFB1AE0FC
:1031D00094F85100012803D1204600F023FB12E0AF
:1031E00094F85100022801D1012000E0002050B9DC
:1031F00000BF502080F31188BFF34F8FBFF36F8F54
:1032000000BF00BFFEE710BD30B54FF47053174844
:1032100000F007042CB1C01D20F00700134C041B64
:103220001B1B0246124C22600024114D6C60D0180A
:10323000083820F007000F4C206000240D4D2D6849
:103240006C600C4D2D682C601146441A4C60094C82
:1032500024680C60084D4C682C60084D4C682C604C
:103260004FF00044064D2C6030BD0000600500208A
:10327000640000206C00002074000020700000201A
:103280008000002000BFFFF773FF06480068012898
:10329000F9D94FF0805004490860BFF34F8FBFF356
:1032A0006F8FF0E77004002004ED00E02DE9FF5F70
:1032B00081460E469246DDE90E7B109CAAF1010084
:1032C000216B01EB800828F0070808F0070008B917
:1032D000012000E0002050B900BF502080F3118889
:1032E000BFF34F8FBFF36F8F00BF00BFFEE786B104
:1032F000002507E0715D04F134004155705D00B9AF
:1033000002E06D1C102DF5D300BF002143200155B4
:1033100002E0002084F83400072F00D30627E7627C
:1033200067640020A064201D00F00BFA04F118006F
:1033300000F007FA2461C7F10700A0616462002071
:10334000E06484F8500049464046039A00F050F982
:103350002060BBF1000F01D0CBF80040BDE8FF9F1B
:1033600010B5002407E004EB84010F4A02EB810052
:1033700000F0DAF9641C072CF5D30C4800F0D4F9FE
:103380000B4800F0D1F90B4800F0CEF90A4800F0E4
:10339000CBF90A4800F0C8F9044809490860044814
:1033A0000849086010BD000070040020FC040020E3
:1033B0001005002024050020380500204C050020C1
:1033C0002C0000203000002010B50146164800E017
:1033D000006803688B42FBD30246436813448B4268
:1033E00004D143684C682344436001460A464B6855
:1033F00013440468A34211D10C4C03682468A3420F
:1034000008D04B680468646823444B6003681B68F9
:103410000B6005E0054B1B680B6001E003680B6067
:10342000884200D0016010BD640000206C000020C4
:103430000A490968096809B9012100E0002121B1A0
:103440004FF0FF31064A116006E004490968C96877
:10345000C868034A41681160704700002C000020D2
:10346000580000200E480068401C08B9012000E008
:10347000002050B900BF502080F31188BFF34F8F58
:10348000BFF36F8F00BF00BFFEE700BF502080F387
:103490001188BFF34F8FBFF36F8F00BF00BFFEE7F0
:1034A000840000202DE9F04104464FF0000800F0B0
:1034B000E1FA4948006808B9FFF7A6FE47480068E6
:1034C0002040002870D1D4B1083404F00700B0B116
:1034D00004F00700C0F10800044404F0070008B934
:1034E000012000E0002050B900BF502080F3118877
:1034F000BFF34F8FBFF36F8F00BF00BFFEE7002CFD
:1035000052D03748006884424ED8364E304605685F
:1035100001E02E462D686868A04202D22868002883
:10352000F7D12D48006885423ED0306800F1080888
:10353000286830606868001B102819D92F1907F017
:10354000070008B9012000E0002050B900BF50205A
:1035500080F31188BFF34F8FBFF36F8F00BF00BFA1
:10356000FEE76868001B78606C603846FFF72CFF48
:103570001B4968680968081A194908600846006804
:1035800019490968884203D215480068164908603D
:103590001249686809680843686000202860134879
:1035A0000068401C1149086000F0C6FC08F00700E4
:1035B00008B9012000E0002050B900BF502080F37E
:1035C0001188BFF34F8FBFF36F8F00BF00BFFEE7BF
:1035D0004046BDE8F08100006C0000208000002023
:1035E000700000206400002074000020780000209B
:1035F000001F4FF080730360001F21F00103036080
:10360000001F054B036014380260001F6FF00203B7
:1036100003602038704700006534000880ED031A0D
:10362000C0ED021A80ED040AC0ED000A90ED012AF7
:10363000D0ED002A90ED043A02EE832A80ED012AB3
:1036400090ED012AD0ED032AB4EEE22AF1EE10FA51
:1036500004DD90ED032A80ED012A0CE090ED012AB3
:10366000D0ED022AB4EEE22AF1EE10FA03D290ED88
:10367000022A80ED012A70470B48807A012804D085
:1036800002280AD003280CD103E001200749087062
:1036900008E000200549087004E002200349087092
:1036A00000E000BF00BF70471847002090000020D6
:1036B0000B48807A032812D10948C07A01280ED11C
:1036C0000748B0F9060010F5167F08DA0448B0F98B
:1036D0000400B0F5167F02DD012002490870704732
:1036E000184700209100002001460A69D1E9013005
:1036F0009860D1E9010358605068884201D1886818
:103700005060002008611068401E1060106870470B
:10371000034B0360034B0B60802313607047000072
:10372000AC0000200001002000F1080141604FF0D2
:10373000FF31816000F10801C16001610021016079
:10374000704700210161704710B502460B685C1C90
:103750000CB9106907E002F1080000E04068446815
:1037600024689C42FAD944684C604C68A160886027
:1037700041600A611468641C146010BD42684A60AC
:1037800093688B60936859609160086103685B1C63
:103790000360704700BF502080F31188BFF34F8F44
:1037A000BFF36F8F00BF0E480068401C0C490860D3
:1037B00008460068012812D10A480068C0B208B95A
:1037C000012000E0002050B900BF502080F3118894
:1037D000BFF34F8FBFF36F8F00BF00BFFEE770478F
:1037E0008400002004ED00E00D48006850B900BFDF
:1037F000502080F31188BFF34F8FBFF36F8F00BF4E
:1038000000BFFEE706480068401E054908600846FC
:10381000006820B9002080F3118800BF00BF704706
:103820008400002070B506463546002E44D0083D81
:103830002C46224960680968084008B1012000E070
:10384000002050B900BF502080F31188BFF34F8F84
:10385000BFF36F8F00BF00BFFEE7206808B90120EB
:1038600000E0002050B900BF502080F31188BFF362
:103870004F8FBFF36F8F00BF00BFFEE70F49606837
:1038800009680840C0B12068B0B90C49606809688F
:103890008843606000F0EEF80949606809680844F0
:1038A000074908602046FFF78FFD06480068401C66
:1038B0000449086000F040FB70BD0000800000205B
:1038C000700000207C00002000204FF0E021086103
:1038D0008861064800684FF47A71B0FBF1F0401E31
:1038E0004FF0E02148610720086170472400002064
:1038F00070B5FCF7F5FC0446102C16D304F1E0205B
:1039000090F8F05315480078854201DB012000E073
:10391000002050B900BF502080F31188BFF34F8FB3
:10392000BFF36F8F00BF00BFFEE70D48006800F4D3
:10393000E0600C490968884201D8012000E00020BD
:1039400050B900BF502080F31188BFF34F8FBFF3F1
:103950006F8F00BF00BFFEE770BD00008800002031
:103960000CED00E08C00002070B504460025D4B1B9
:103970001248006808B9012000E0002050B900BFDB
:10398000502080F31188BFF34F8FBFF36F8F00BFBC
:1039900000BFFEE700F06EF800212046FFF742FB73
:1039A00000F0CAFA05463DB94FF08050044908605E
:1039B000BFF34F8FBFF36F8F70BD0000600000201A
:1039C00004ED00E010B586B000200590049003AA35
:1039D00004A905A8FFF79CFE0022DDE904101346A8
:1039E000CDE9002102901CA11D48039A00F092F934
:1039F0001C4908600846006808B1012400E0002462
:103A0000012C15D100BF502080F31188BFF34F8FD8
:103A1000BFF36F8F00BF4FF0FF30134908600120E4
:103A20001249086000201249086000F08DF810E08B
:103A3000601C08B1012000E0002050B900BF5020F8
:103A400080F31188BFF34F8FBFF36F8F00BF00BFAC
:103A5000FEE706B010BD000049444C4500000000E0
:103A6000853200085C00002058000020440000203F
:103A70003C00002002480068401C01490860704773
:103A8000600000201D48006818B101201C49086032
:103A900032E000201A4908601A480068B0FA80F045
:103AA000C0F11F0101EB8100174A52F8200008B154
:103AB000012000E0002050B900BF502080F31188A1
:103AC000BFF34F8FBFF36F8F00BF00BFFEE701EB67
:103AD00081020D4B03EB820042685268426000F1A4
:103AE00008024368934202D14268526842604268C9
:103AF000D268064B1A6000BF7047000060000020CB
:103B00004C0000204000002070040020280000200D
:103B100010B508210848FDF7C7F938B99FED070A25
:103B2000074880ED000AFEF7A5FE04E09FED050AB8
:103B3000034880ED000A10BD0008024000000000AC
:103B4000984100200000C8421CB552480068524904
:103B5000884201D0012000E0002050B900BF502071
:103B600080F31188BFF34F8FBFF36F8F00BF00BF8B
:103B7000FEE7484800684849491E884201D00120B4
:103B800000E0002050B900BF502080F31188BFF33F
:103B90004F8FBFF36F8F00BF00BFFEE73F4908465E
:103BA00000780190FF200A461070084600780090C7
:103BB0009DF8000000F0F0009DF80020904201D137
:103BC000012000E0002050B900BF502080F3118890
:103BD000BFF34F8FBFF36F8F00BF00BFFEE79DF8AD
:103BE000000000F050002E4A107007202D4A10608F
:103BF00009E02C480068401E2A4A10609DF8000029
:103C00004006000E00909DF8000000F08000802823
:103C1000EFD024480068C0F10700042801D101203A
:103C200000E0002050B900BF502080F31188BFF39E
:103C30004F8FBFF36F8F00BF00BFFEE719480068CA
:103C40000002184A10601046008800F4E06010601E
:103C5000124A019810700F482030006840F470003C
:103C60000C49203108600846006840F07040086048
:103C7000FFF72AFE00200C490860FCF7F9FA0B4810
:103C8000006840F0404009490860FCF7DDFA002078
:103C90001CBD000000ED00E071C20F4100E400E037
:103CA000880000208C0000208400002034EF00E019
:103CB0002DE9FF4F85B0804689461746DDE912ABF6
:103CC000B800FFF7EFFB064656B15420FFF7EAFBBA
:103CD00004460CB1266304E03046FFF7A3FD00E084
:103CE00000248CB1002084F85100CDE900ABCDE96F
:103CF00002403A4649464046089BFFF7D7FA20461D
:103D0000FFF7DCF9012501E04FF0FF35284609B047
:103D1000BDE8F08F2DE9F04F85B007468846914603
:103D20009A46DDE90EB6109C0EB1012000E000209D
:103D300050B900BF502080F31188BFF34F8FBFF3FD
:103D40006F8F00BF00BFFEE70CB1012000E0002034
:103D500050B900BF502080F31188BFF34F8FBFF3DD
:103D60006F8F00BF00BFFEE75420039003985428D4
:103D700001D1012000E0002050B900BF502080F3A5
:103D80001188BFF34F8FBFF36F8F00BF00BFFEE7F7
:103D900000BFB4B1AEB125462C462E63022085F893
:103DA0005100002004A953464A46CDE900B1CDE9AF
:103DB000025041463846FFF779FA2846FFF77EF968
:103DC00001E000200490049805B0BDE8F08F0000E9
:103DD00001490868704700003C00002070B5FFF7FB
:103DE00087FD002501480468204670BD3C00002086
:103DF0002DE9F0414FF000084448006800287CD1CC
:103E000043480068451C4248056015BB41480068AE
:103E1000006808B9012000E0002050B900BF502020
:103E200080F31188BFF34F8FBFF36F8F00BF00BFC8
:103E3000FEE7384807683848006836490860364861
:103E4000076036480068401C34490860FFF7F0FA04
:103E500000BF3348006885423CD300BF2D4800684E
:103E6000006808B9012000E0002020B14FF0FF30C9
:103E70002B4908602DE027480068C068C468666860
:103E8000B54202D22648066023E0201DFFF72CFC35
:103E9000A06A18B104F11800FFF726FC94F82C1062
:103EA000012088401F49096808431E490860E16AEB
:103EB00001EB81011C4A02EB8100211DFFF75EFC32
:103EC0001A49E06A0968C96A8842C7D34FF00108F5
:103ED000C4E700BF15480068C06A00EB80001249C3
:103EE00051F82000012801D94FF00108104800685E
:103EF00008B14FF0010805E0FFE70E480068401CDC
:103F00000C4908604046BDE8F081000060000020D8
:103F10003C0000202C000020300000205000002039
:103F200058000020400000207004002028000020DD
:103F30004C0000204800002070B5002400263648C0
:103F4000006850B900BF502080F31188BFF34F8F35
:103F5000BFF36F8F00BF00BFFEE7FFF71BFC2E48CB
:103F60000068401E2C4908600846006800284FD1B0
:103F70002A48006800284BD024E02948C068C4685B
:103F800004F11800FFF7B0FB201DFFF7ADFB94F81C
:103F90002C10012088402349096808432149086002
:103FA000E16A01EB8101204A02EB8100211DFFF74C
:103FB000E5FB1E49E06A0968C96A884202D301200C
:103FC0001B4908601648006808B9012000E000207D
:103FD0000028D2D00CB1FFF72BFA1648056865B15E
:103FE00000BFFFF705FF10B10120114908606D1EE9
:103FF000002DF6D100200F4908600D48006838B147
:10400000012630070C490860BFF34F8FBFF36F8F55
:10401000FFF7EAFB304670BD60000020380000204A
:10402000240500204000002070040020280000200B
:104030004C0000204800002004ED00E04FF04070EC
:10404000E1EE100A7047000014410008B520000896
:1040500000000000000000008000000000000000E0
:1040600000000000EC400008FD25000802000000F0
:10407000000000000002000000000000000000003E
:104080000841000849280008010000000000000065
:10409000000200000000000000000000FC400008DA
:1040A000F52C0008010000000000000000020000E4
:1040B000000000000000000020410008692D0008F9
:1040C000010000000000000080000000000000006F
:1040D00000000000000000000000000001020304D6
:1040E00006070809000000000102030463616E5F17
:1040F000636F6D6D5F5461736B00000067696D6283
:10410000616C5461736B000063686173736973540D
:1041100061736B0064656661756C745461736B00E8
:104120006D6F646573775461736B00004C410008D8
:1041300000000020AC000000C4010008F8410008A5
:10414000AC000020F44C0000E0010008000000007A
:10415000000000000000000000000000000000005F
:10416000000000000000000010000000010000003E
:104170000024F40000000000000000000000000027
:10418000000000000000000000000000000000002F
:10419000000000000000000000000000000000001F
:1041A000000000000000000000000000000000000F
:1041B00000000000000000000000000000000000FF
:1041C00000000000000000000000000000000000EF
:1041D000AAAAAAAA00000000000000000000010036
:1041E00000000000000000000000000000000000CF
:0841F0000000000000000000C7
:040000050800018965
:00000001FF
