:020000040800F2
:100000001051002009030008F13900088F3500085D
:10001000ED390008850A0008D543000800000000FB
:10002000000000000000000000000000490200087D
:10003000850F000800000000A5020008693A0008CA
:1000400023030008230300082303000823030008F8
:1000500023030008230300082303000823030008E8
:1000600023030008230300082303000823030008D8
:1000700023030008230300082303000823030008C8
:10008000790C0008890C0008230300086D0B000898
:100090003D0B00084D0B00085D0B00082303000812
:1000A00023030008653B000823030008230300081E
:1000B0002303000823030008230300082303000888
:1000C0002303000823030008230300082303000878
:1000D000230300089D420008B142000823030008E2
:1000E0002303000823030008230300082303000858
:1000F0002303000823030008230300082303000848
:100100002303000823030008230300082303000837
:100110002303000823030008230300082303000827
:100120002303000823030008990C00082303000898
:100130002303000823030008230300082303000807
:1001400023030008230300082303000823030008F7
:100150002303000823030008A90C00082303000858
:1001600023030008230300082303000823030008D7
:1001700023030008230300082303000800000000F5
:10018000230300082303000800F002F800F04CF8F5
:100190000AA090E8000C82448344AAF10107DA45E2
:1001A00001D100F041F8AFF2090EBAE80F0013F0E8
:1001B000010F18BFFB1A43F00103184768810000C4
:1001C000888100000A4410F8014B14F00F0508BFA5
:1001D00010F8015B240908BF10F8014B6D1E05D013
:1001E00010F8013B6D1E01F8013BF9D1641E03D0EC
:1001F000641E01F8015BFBD19142E4D3704700001B
:100200000023002400250026103A28BF78C1FBD81F
:10021000520728BF30C148BF0B6070471FB507F0B9
:10022000C2FD1FBD10B510BD00F0DCF91146FFF78F
:10023000F5FF05F0DDFB00F0FAF903B4FFF7F2FF7C
:1002400003BC00F0FDF900002C4B19680868B0E809
:10025000F04F80F30988BFF36F8F4FF0000080F3F9
:10026000118870470000000008480068006880F3AB
:1002700008884FF0000080F3148862B661B6BFF3BF
:100280004F8FBFF36F8F00DF00BF00BF08ED00E0AE
:10029000DFF80C00016841F470010160704700BF95
:1002A00088ED00E0EFF30980BFF36F8F134B1A68FE
:1002B0001EF0100F08BF20ED108A20E9F04F1060EB
:1002C00009B44FF0500080F31188BFF34F8FBFF394
:1002D0006F8F06F0F3FB4FF0000080F3118809BC2C
:1002E00019680868B0E8F04F1EF0100F08BFB0ECB6
:1002F000108A80F30988BFF36F8F70472C000020AD
:10030000EFF305807047000009488047094800471F
:10031000FEE7FEE7FEE7FEE7FEE7FEE7FEE7FEE7B5
:10032000FEE7FEE704480549054A064B7047000012
:10033000513B000889010008104B0020105100209B
:10034000104D0020104D002053EA020C00F069808F
:100350002DE9F04B4FF00006002B1FBFB3FA83F5D9
:1003600003FA05F424FA05F65E4012BF1643B2FA0A
:1003700082F502FA05F4C5F120051EBF22FA05FC3C
:1003800044EA0C04203556EA044C4FEA144418BFE2
:10039000641C4FF000084FF00009904271EB030C11
:1003A00039D3002919BFB1FA81F701FA07F6B0FA7B
:1003B00080F700FA07F6C7F120071EBF20FA07FCF6
:1003C00046EA0C062037B6FBF4FCA7EB0507103F06
:1003D00007F01F0BCBF120060CFA0BFB2CFA06F6EC
:1003E00044BFB3460026202FA4BF5E464FF0000B4B
:1003F0005BEA060C08BF4FF0010B19EB0B09ABFBD6
:10040000027C48EB0608C01B06FB02CC0BFB03CCAE
:1004100071EB0C01C1E70B46024641464846BDE878
:10042000F08B13B54FF000004FF00001AFF30080E8
:10043000BDE81C407047032A40F2308010F0030CE6
:1004400000F0158011F8013BBCF1020F624498BF27
:1004500011F801CB00F8013B38BF11F8013BA2F1C4
:10046000040298BF00F801CB38BF00F8013B11F03F
:10047000030300F02580083AC0F0088051F8043BDF
:10048000083A51F804CBA0E80810F5E7121D5CBF4C
:1004900051F8043B40F8043BAFF30080D20724BF7F
:1004A00011F8013B11F801CB48BF11F8012B24BF13
:1004B00000F8013B00F801CB48BF00F8012B704762
:1004C00010B5203AC0F00B80B1E81850203AA0E8EF
:1004D0001850B1E81850A0E81850BFF4F5AF5FEA23
:1004E000027C24BFB1E81850A0E8185044BF18C9D6
:1004F00018C0BDE810405FEA827C24BF51F8043B7D
:1005000040F8043B08BF7047D20728BF31F8023BD0
:1005100048BF11F8012B28BF20F8023B48BF00F864
:10052000012B70474FF000020429C0F0128010F038
:10053000030C00F01B80CCF1040CBCF1020F18BFBF
:1005400000F8012BA8BF20F8022BA1EB0C0100F052
:100550000DB85FEAC17C24BF00F8012B00F8012B25
:1005600048BF00F8012B70474FF0000200B513465A
:1005700094469646203922BFA0E80C50A0E80C50C3
:10058000B1F12001BFF4F7AF090728BFA0E80C5074
:1005900048BF0CC05DF804EB890028BF40F8042B6D
:1005A00008BF704748BF20F8022B11F0804F18BFDA
:1005B00000F8012B704770477047704710B500F086
:1005C00009F8006810BD10B5044600F003F8046097
:1005D00010BD000000487047AC4A0020004870473A
:1005E000AC4A00207546FFF7F9FFAE4605006946A4
:1005F000534620F00700854618B020B5FFF792FE5D
:10060000BDE820404FF000064FF000074FF0000813
:100610004FF0000B21F00701AC46ACE8C009ACE894
:10062000C009ACE8C009ACE8C0098D46704710B5F8
:100630000446AFF300802046BDE81040FFF7FDBD43
:1006400001491820ABBEFEE72600020070470000FB
:1006500010B52DED028BA648406800EE100ABCEEE6
:10066000C00A10EE100A84B2A24890F85C0001287B
:100670007DD1502C15D006DC322C09D03C2C0AD070
:10068000462C17D10AE0642C0ED0782C12D10EE043
:100690009FED998A0FE09FED988A0CE09FED968A76
:1006A00009E09FED958A06E09FED938A03E09FEDB8
:1006B000928A00E000BF00BF8E4890F85A0040B117
:1006C000012807D1BFEE000A28EE000AB0EE408AEA
:1006D00000E000BF00BF874890F85B00052874D297
:1006E000DFE800F0B4D903376C00824890F85A0074
:1006F00001281CD1DFED801AB0EE481ADFED7F0A29
:10070000B0EE000A7E4805F067FE7D4890ED010AD4
:10071000784880ED000A90ED000AB5EEC00AF1EECF
:1007200010FA15D10020734981F85A0010E0DFED6E
:10073000721AB0EE481ADFED730AB0EE000A704884
:1007400005F04AFE6E4890ED010A6A4880ED000A05
:1007500000BF684890F85A00F0B9F0EE481A9FEDD3
:10076000661ADFED690AB0EE000A654800E0B9E0FC
:1007700005F032FE624890ED010A5E4880ED000A05
:1007800090ED000AB5EEC00AF1EE10FA15D1012085
:10079000584981F85A0010E0F1EE481A9FED561AB8
:1007A000DFED5A0AB0EE000A554805F015FE544830
:1007B00090ED010A4F4880ED000A00BF4D4890F8C7
:1007C0005A0018B1012840D11EE089E0494890ED57
:1007D000000AB4EEC80AF1EE10FA11D2DFED461AA3
:1007E000B0EE481ADFED470AB0EE000A444805F0C3
:1007F000F3FD434890ED010A3E4880ED000A02E017
:100800003C4880ED008A00BF3A4890ED000AF1EEC6
:10081000480AB4EEE00AF1EE10FA11DDF1EE481AE2
:100820009FED351ADFED390AB0EE000A344805F0C5
:10083000D3FD334890ED010A2E4880ED000A04E014
:10084000B1EE480A2B4880ED000A00BF294890F815
:100850005A00012809D19FED280A264880ED000A98
:100860000020244981F85A0014E0224890F85A00E8
:1008700080B9DFED211AB0EE481ADFED220AB0EEA2
:10088000000A1F4805F0A8FD1D4890ED010A19480F
:1008900080ED000A00BF174890F85A0048B99FED54
:1008A000160A144880ED000A0120124981F85A0006
:1008B00015E0104890F85A00012810D1DFED0E1A0B
:1008C000B0EE481ADFED0F0AB0EE000A0C4805F052
:1008D00083FD0B4890ED010A064880ED000A00BF39
:1008E00000BF01E006F030F9BDEC028B10BD000046
:1008F000504A002038440020000000000000484317
:10090000E04700200000C842000048C30000C8C201
:1009100010B52DED0A8B4E48C07A012824D14D48E0
:100920000089C82811D004DC782808D0B42815D153
:1009300008E0F0280CD0B0F5967F0FD10BE0B3EEB5
:10094000098A0CE09FED448A09E09FED448A06E0A5
:100950009FED438A03E09FED438A00E000BF00BFA4
:10096000414880ED028A70E03948C07A03286CD192
:100970003D4890ED010A3D48D0ED000A30EE200AD6
:10098000394880ED010A33480089C82817D004DCB3
:10099000782808D0B42824D10BE0F02815D0B0F581
:1009A000967F1ED117E0B7EE080A2F4880ED000AA7
:1009B00018E0B0EE000A2C4880ED000A12E0B0EE1C
:1009C000040A294880ED000A0CE0B0EE080A264827
:1009D00080ED000A06E0B0EE0C0A234880ED000A24
:1009E00000E000BF00BF2048D0ED000A9FED201AB4
:1009F00081EE200AD0ED010A20EE200A10EE104A06
:100A0000204607F05FF941EC1C0BB0EE4C0AF0EE0B
:100A10006C0A03F0D9FDB0EE40BAF0EE60BA9FED7B
:100A2000150B53EC102B51EC1B0B06F057FF41EC50
:100A30001A0B9FED120B53EC102B06F0F5FC41EC5A
:100A4000190B06F0BFFC08498860BDEC0A8B10BD8D
:100A5000884A0020434A0020000048420000A0428B
:100A60000000F04200002043104800209C000020BD
:100A7000DB0FC940000000000000494000000000FA
:100A80000000594000BFFEE770B506460C4615460B
:100A90002846E91705EB91718910616100202061FA
:100AA000012020622146304600F064FB70BD2DE934
:100AB000F04107460E461546002436E02046E11771
:100AC00004EB91718910A4EB810131B1012909D0A6
:100AD00002290CD0032919D10EE055F82400400159
:100AE000306013E055F82400400170600EE055F8C6
:100AF00024004001B06009E055F824004001F06096
:100B0000224631463846FFF7BFFF00BF00BF601CDA
:100B100055F8200040F6FF71884204D12246314644
:100B20003846FFF7B1FF601CC4B255F8240040F608
:100B3000FF718842C2D1BDE8F081000010B50248C3
:100B400000F090FC10BD00009003002010B502489A
:100B500000F088FC10BD00009003002010B5024892
:100B600000F080FC10BD00009003002010B502488A
:100B700000F078FC10BD00009003002070B5064620
:100B80000C4615462846E91705EB917189100E3180
:100B900061610120206120622146304600F0EAFABE
:100BA00070BD2DE9F04107460E461546002436E09B
:100BB0002046E11704EB91718910A4EB810131B15A
:100BC000012909D002290CD0032919D10EE055F8CA
:100BD00024004001306013E055F8240040017060AB
:100BE0000EE055F824004001B06009E055F82400FB
:100BF0004001F060224631463846FFF7BFFF00BF94
:100C000000BF601C55F8200040F6FF71884204D1F7
:100C1000224631463846FFF7B1FF601CC4B255F892
:100C2000240040F6FF718842C2D1BDE8F081000087
:100C300030B58BB004460D46012007900020089087
:100C40000E200A900A492068884205D12A4601A947
:100C50002046FFF72CFF08E006492068884204D1AF
:100C60002A4601A92046FFF79CFF0BB030BD0000CB
:100C7000006400400068004010B5024800F076FFB4
:100C800010BD00000806002010B5024800F06EFFFD
:100C900010BD00006806002010B5024800F066FF95
:100CA00010BD00004805002010B5024800F05EFFAE
:100CB00010BD0000A8050020014608781038182350
:100CC000B0FBF3F20848805CC865032A05D90868C0
:100CD0006FF30900001D886503E008686FF30900E1
:100CE0008865886D70470000647E0008014600201A
:100CF0008A6A8B69CBB932B1012A0DD0022A03D09E
:100D0000032A10D10EE000BFCB6A03F08073B3F169
:100D1000807F00D1012007E0CB6AB3F1C07F00D112
:100D2000012001E000E000BF34E08B69B3F5005F13
:100D30001AD132B1012A07D0022A03D0032A11D1D5
:100D40000AE000BF01200EE0CB6A03F08073B3F12C
:100D5000807F00D1012006E0CB6AB3F1C07F00D1D3
:100D6000012000E000BF15E032B1012A05D0022ABF
:100D700004D0032A0CD103E000BF00BF012008E02B
:100D8000CB6A03F08073B3F1807F00D1012000E0D3
:100D900000BF00BF704730B50468246824F4802485
:100DA00005682C60046863608468402C04D1046882
:100DB000A2600468E16003E00468A1600468E26086
:100DC00030BD000008B50848406800900749009809
:100DD0000968884204D206480068401C044908603B
:100DE00002490098086008BD001000E0D000002013
:100DF000CC00002010B52DED028B82B004460E48C9
:100E00004068019020680199081A00EE100AF8EE77
:100E1000400A0A4890ED000AB8EE400A80EE801AB7
:100E2000B0EE418A01982060FFF7CCFFB0EE480A8F
:100E300002B0BDEC028B10BD001000E0C00000202D
:100E40001249096841F08071104A11600021104A6E
:100E500051601146096841F0010111600D4941439B
:100E60000D4A1160114609684FF47A72B1FBF2F134
:100E70000A4A116008490968064AB1FBF2F1084ABA
:100E800011600021074A116070470000FCED00E08E
:100E9000001000E040420F00C0000020C40000200D
:100EA000C8000020CC00002010B501460A2900DC53
:100EB00009B9002010BD042202EB8102D0B2002348
:100EC000074C04F821308A00521CA35480238A0066
:100ED000921CA3547F238A00D21CA35400BFE9E7CD
:100EE0007449002010B52DED020B0C4890F82D0030
:100EF000401C0A4981F82D00084690F82D000A2868
:100F000000DD1CBD054890F82D00401E8006020E35
:100F10000249684600F03AF800BFF2E77449002041
:100F200010B5044600F026F8114991F82D00FFF79E
:100F3000BBFF0F4981F82C0000200CE000BF2168A6
:100F4000096801F040010029F9D00949095C2268CB
:100F50005160411CC8B2064991F82C108142EDDC69
:100F60000020034981F82D0081F82C0010BD0000FD
:100F70007449002010B50248007803F061FA10BDF2
:100F8000A4000020704772B600BFFEE730B50346EC
:100F90001C788C545D78541C0D559D78941C0D550F
:100FA000DD78D41C0D5530BD30B5034613B94FF66E
:100FB000FF7030BD09E013F8014B82EA0400C0B2B3
:100FC000054D35F8100080EA2222081EA1F101012A
:100FD000F1D11046EDE70000867F000830B50346EA
:100FE00005E013F8010B80EA02040448025D081EC4
:100FF000A1F10105A9B2F4D1104630BD857E0008EB
:1010000010B5024692F82030012B01D0022B06D1F8
:1010100010684069084314686061002010BD506A80
:1010200040F4802050620120F8E7F0B504460D46F8
:101030001E4694F8207020688368A86800B900E014
:1010400000BF012F01D0022F7DD103F0806030B9A5
:1010500003F0006018B903F0805000287ED0C3F37D
:101060000161012088403060A86860B9B5F800C00F
:10107000E86840EA4C5C206800F5C07000EB0110A5
:10108000C0F800C00FE0D5E901C040EACC00D5F8B7
:101090000CC040EA0C00D4F800C00CF5C07C0CEB8E
:1010A000011CCCF80000D5F810C0206800F5C07015
:1010B00000EB0110C0F804C0287D01280ED1206883
:1010C00000F5C07000EB0110406840F4807C20689F
:1010D00000F5C07000EB0110C0F804C0D079000624
:1010E00092F806C040EA0C4092F805C040EA0C2095
:1010F00092F804C040EA0C00D4F800C00CF5C07CA3
:101100000CEB011CCCF80C00D078000692F802C061
:1011100040EA0C4092F801C040EA0C2092F800C06E
:1011200040EA0C00D4F800C00CF5C07C0CEB011CAC
:10113000CCF80800206800F5C07000EB01100068D2
:1011400040F0010C01E00FE008E0206800F5C070FD
:1011500000EB0110C0F800C00020F0BD606A40F450
:10116000001060620120F8E7606A40F4802060624D
:101170000120F2E7F0B504460A46216894F82050B1
:10118000012D01D0022D7ED1424901F50071086880
:1011900040F001000860086820F47C50086008688E
:1011A000566A40EA06200860107D00F01F06012004
:1011B00000FA06F3C8699843C861A1F50071D069C7
:1011C000C8B9D1F80C029843C1F80C02908880B2DB
:1011D000968940EA064601F51070576940F8376075
:1011E000108880B2168940EA064601F510705769EA
:1011F00000EBC7004660D069012819D1D1F80C0274
:101200001843C1F80C02908880B2168840EA06465E
:1012100001F51070576940F83760908980B21689DF
:1012200040EA064601F51070576900EBC7004660BA
:10123000906928B9D1F804029843C1F8040204E087
:10124000D1F804021843C1F80402106928B9D1F892
:1012500014029843C1F8140204E0D1F814021843B0
:10126000C1F81402106A012804D1D1F81C021843F5
:10127000C1F81C02D1F8000220F00100C1F8000200
:101280000020F0BDFFE7606A40F48020606201202A
:10129000F7E7000000640040704770B5044694F81A
:1012A0002050012D01D0022D7DD151B92068C06898
:1012B00000F0030080B9606A40F400106062012011
:1012C00070BD2068006900F0030028B9606A40F42E
:1012D000001060620120F3E7206800F5D87000EB91
:1012E0000110006800F004009060906840B9206828
:1012F00000F5D87000EB01100068400D106007E0A9
:10130000206800F5D87000EB01100068C00850603C
:10131000206800F5D87000EB0110006800F00200B2
:10132000D060206800F5D87000EB0110406800F034
:101330000F00082802D30820106108E0206800F59B
:10134000D87000EB0110406800F00F0010612068B9
:1013500000F5D87000EB0110406800F47F40000AEF
:101360009061206800F5D87000EB01104068000C17
:101370005061206800F5D87000EB0110806818708B
:10138000206800F5D87000EB0110806800F47F4001
:10139000000A5870206800F5D87000EB01108068D2
:1013A00000F47F0000E03CE0000C9870206800F53D
:1013B000D87000EB01108068000ED870206800F52E
:1013C000D87000EB0110C0681871206800F5D87063
:1013D00000EB0110C06800F47F40000A58712068DB
:1013E00000F5D87000EB0110C06800F47F00000C1D
:1013F0009871206800F5D87000EB0110C068000EED
:10140000D87131B92068C06840F020002668F060CB
:1014100005E02068006940F0200026683061002067
:101420004EE7606A40F480206062012048E7014690
:10143000002091F82020012A01D0022A11D10B6846
:101440009B6803F0806303B1401C0B689B6803F04A
:10145000006303B1401C0B689B6803F0805303B129
:10146000401C70472DE9F05F04460025206846695E
:101470002068D0F80490206887682068D0F80CA015
:101480002068D0F810B02068D0F8188006F001006D
:10149000002855D007F00100C0B101202168886004
:1014A00007F0020018B1204600F0EDFA0EE007F058
:1014B000040010B145F4006508E007F0080010B121
:1014C00045F4805502E0204600F0DCFA07F4807015
:1014D000C8B14FF480702168886007F4007018B1BB
:1014E000204600F0D2FA0EE007F4806010B145F417
:1014F000005508E007F4006010B145F4804502E0B3
:10150000204600F0C1FA07F48030C8B14FF48030B3
:101510002168886007F4003018B1204600F0B7FA5F
:101520000EE007F4802010B145F4004508E007F410
:10153000002010B145F4803502E0204600F0A6FA04
:1015400006F0080038B10AF0100020B145F400752B
:1015500010202168C86006F0040040B10AF00800BD
:1015600028B108202168C860204600F01FFA06F064
:10157000020038B12068C06800F0030010B12046B6
:1015800000F016FA06F0400038B10BF0100020B160
:1015900045F4806510202168086106F0200040B104
:1015A0000BF0080028B1082021680861204600F0EF
:1015B0001BFA06F0100038B12068006900F0030043
:1015C00010B1204600F012FA06F4003040B109F0E4
:1015D000100028B1102021684860204600F022FA4F
:1015E00006F4803040B109F0080028B108202168D5
:1015F0004860204600F04CFA06F4004088B309F039
:10160000040078B306F4807020B108F0010008B13E
:1016100045F0010506F4007020B108F0020008B1A1
:1016200045F0020506F4806020B108F0040008B11E
:1016300045F0040506F40060A0B108F0700088B120
:1016400008F07000402817D006DC10280BD02028A6
:101650000CD0302819D10CE0502810D0602814D1BB
:1016600010E01DE019E045F008050FE045F0100519
:101670000CE045F0200509E045F0400506E045F0A6
:10168000800503E045F4807500E000BF00BF2068DE
:10169000806920F07000216888610420216848601A
:1016A0002DB1606A284360622046FFF7F5FDBDE872
:1016B000F09F70B504460CB9012070BD94F820006D
:1016C00010B9204600F0B0F82068006840F0010032
:1016D0002168086000F040FD05460DE000F03CFD8B
:1016E000401B0A2808D9606A40F400306062052077
:1016F00084F820000120E0E72068406800F0010045
:101700000028EBD02068006820F002002168086003
:1017100000F022FD05460DE000F01EFD401B0A28EA
:1017200008D9606A40F400306062052084F8200027
:101730000120C2E72068406800F002000028EBD1D9
:10174000207E012806D12068006840F080002168D2
:10175000086005E02068006820F0800021680860CB
:10176000607E012806D12068006840F040002168B2
:10177000086005E02068006820F0400021680860EB
:10178000A07E012806D12068006840F02000216872
:10179000086005E02068006820F0200021680860EB
:1017A000E07E012806D12068006820F01000216842
:1017B000086005E02068006840F0100021680860BB
:1017C000207F012806D12068006840F008002168C9
:1017D000086005E02068006820F0080021680860C3
:1017E000607F012806D12068006840F0040021686D
:1017F000086005E02068006820F0040021680860A7
:10180000D4E902010843216908436169084361681A
:10181000491E08432168C86100206062012084F8E5
:101820002000002049E7000010B586B004461421CE
:1018300001A8FEF799FE57492068884259D15648B9
:101840000068401C544908600846006801280FD110
:1018500000BF002000905148006840F000704F49E0
:1018600008600846006800F00070009000BF00BFEC
:1018700000BF0020009049481038006840F0080080
:101880004649103908600846006800F008000090DA
:1018900000BF00BF032001900220029000200390AF
:1018A000032004900920059001A93D4800F052FB57
:1018B00000220521132000F00DFD132000F0F6FC9E
:1018C00000220521142000F005FD142000F0EEFC9C
:1018D00000220521152000F0FDFC152000F0E6FC9B
:1018E00000220521162000F0F5FC162000F0DEFC99
:1018F0004DE02C492068884249D100BF002000906B
:101900002648006840F08060244908600846006866
:1019100000F08060009000BF00BF1F480068401CBE
:101920001D4908600846006801280FD100BF00204B
:1019300000901A48006840F0007018490860084696
:10194000006800F00070009000BF00BF00BF0020E2
:10195000009012481038006840F002000F4910391A
:1019600008600846006800F00200009000BF00BF59
:101970004FF4405001900220029000200390032079
:1019800004900920059001A9074800F0E3FA06B089
:1019900010BD0000006400401800002040380240E4
:1019A000000C024000680040000402407047000044
:1019B00010B504460949206888420DD1084BA3F1AF
:1019C0001C0200212046FFF768FC05491C39086805
:1019D0001C31044A1268904710BD000000640040AA
:1019E0006C490020A80000207047000010B5044694
:1019F0000949206888420DD1084BA3F11C0201213E
:101A00002046FFF74AFC05491C3908681C31044A86
:101A10001268904710BD0000006800406C4900202B
:101A2000AC000020704770B5044694F820000128EF
:101A300022D1022084F820002068006820F00100F4
:101A40002168086000F088FB05460DE000F084FB8B
:101A5000401B0A2808D9606A40F400306062052003
:101A600084F82000012070BD2068406800F001006B
:101A70000028EBD16062F6E7606A40F40020606203
:101A80000120F0E770477047704770477047704714
:101A9000704770B50446A56D00F05EFB064694F8ED
:101AA0003500022808D08020606500BF002084F83F
:101AB000340000BF012070BD2068006820F01600CF
:101AC000216808602068406920F080002168486132
:101AD000206C08B9A06C28B12068006820F00800CC
:101AE000216808602068006820F001002168086013
:101AF00010E000F031FB801B05280BD92020606529
:101B0000032084F8350000BF002084F8340000BFB3
:101B10000320D0E72068006800F001000028E8D129
:101B200094F85C103F208840A860012084F83500BC
:101B300000BF002084F8340000BF00BFBBE70146AF
:101B400091F83500022803D08020486501207047B5
:101B5000052081F835000868006820F001000A6857
:101B600010600020F3E70146486D7047F8B5044661
:101B7000002000908C4800684FF41651B0FBF1F73C
:101B8000A56D2E6894F85C1008208840304098B10C
:101B90002068006800F0040070B12068006820F040
:101BA00004002168086094F85C1008208840A86050
:101BB000606D40F00100606594F85C100120884081
:101BC000304068B12068406900F0800040B194F86E
:101BD0005C1001208840A860606D40F002006065E4
:101BE00094F85C1004208840304068B12068006898
:101BF00000F0020040B194F85C1004208840A86016
:101C0000606D40F00400606594F85C10102088401E
:101C1000304078B32068006800F0080050B394F8B2
:101C20005C1010208840A8602068006800F48020C4
:101C300080B12068006800F4002028B9206CC8B189
:101C40002046216C884715E0A06C98B12046A16C15
:101C500088470FE02068006800F4807028B9206889
:101C6000006820F0080021680860206C10B1204650
:101C7000216C884794F85C10202088403040002870
:101C800065D02068006800F0100000285FD094F84C
:101C90005C1020208840A86094F83500052828D1E1
:101CA0002068006820F016002168086020684069FC
:101CB00020F0800021684861206C08B9A06C28B130
:101CC0002068006820F008002168086094F85C1023
:101CD0003F208840A860012084F8350000BF002024
:101CE00084F8340000BF206D10B12046216D884774
:101CF000F8BD2068006800F4802080B1206800688A
:101D000000F4002028B9606C10B12046616C88474F
:101D10001DE0E06BD8B12046E16B884717E02068F2
:101D2000006800F4807068B92068006820F0100036
:101D300021680860012084F8350000BF002084F885
:101D4000340000BFE06B10B12046E16B8847606D46
:101D500038B3606D00F00100F0B1052084F8350063
:101D60002068006820F001002168086000BF00982A
:101D7000401C0090B84200D905E02068006800F0DF
:101D800001000028F3D100BF012084F8350000BF16
:101D9000002084F8340000BFE06C10B12046E16CF4
:101DA000884700BFA4E70000280000202DE9F0418B
:101DB0000446002500F0D0F9074614B90120BDE81B
:101DC000F081606A00B100BF022084F8350000BFD6
:101DD000002084F8340000BF2068006820F0010073
:101DE000216808600AE000F0B7F9C01B052805D992
:101DF00020206065032084F83500E0E72068006853
:101E000000F001000028EED1206805682148054057
:101E1000D4E901010843E168084321690843616985
:101E20000843A1690843E1690843216A084305435F
:101E3000606A042803D1D4E90B01084305432068F4
:101E400005602068456925F00705606A0543606AFA
:101E500004280DD1A06A0543E06A48B12046FEF788
:101E600045FF28B140206065012084F83500A6E7D1
:101E7000206845612046FEF71FFF064694F85C1077
:101E80003F208840B06000206065012084F8350064
:101E9000002094E73F8010F02DE9F04704460D46FE
:101EA00016461F464FF00008D4F8589000BF94F82B
:101EB0003400012802D10220BDE8F087012084F817
:101EC000340000BF94F83500012825D1022084F8A1
:101ED0003500002060653B46324629462046FEF725
:101EE0005AFF94F85C103F208840C9F80800206829
:101EF000006840F0160021680860206C28B1206856
:101F0000006840F00800216808602068006840F020
:101F100001002168086006E000BF002084F834005A
:101F200000BF4FF002084046C6E7000070B5044607
:101F300000F012F906462546681C10B104480078E6
:101F4000054400BF00F008F9801BA842FAD370BD19
:101F500024000020F8B502460B460025002400208E
:101F60000021D6E0012606FA01F51E6806EA0504FE
:101F7000AC4274D11E7906F00306012E04D01E79FE
:101F800006F00306022E13D190684F000326BE40D0
:101F9000B0434F00DE68BE40304390605068012679
:101FA0008E40B0431E79C6F300168E403043506019
:101FB0001E7906F00306032E09D0D0684F000326D1
:101FC000BE40B0434F009E68BE403043D0601E7993
:101FD00006F00306022E13D1CF0802F1200656F8B0
:101FE00027004E07F70E0F26BE40B0434F07FF0EE7
:101FF0001E69BE403043CF0802F1200646F8270094
:1020000010684F000326BE40B0431E7906F0030659
:102010004F00BE40304310605E6806F44036002E2C
:1020200076D000BF002600963C4E366846F48046C7
:102030003A4F3E603E46366806F48046009600BF42
:1020400000BF374E8F0856F827008E07370F0F2630
:10205000BE40B043334EB24202D1002624E057E0E6
:10206000314EB24201D101261EE0304EB24201D1C2
:10207000022619E02E4EB24201D1032614E02D4E65
:10208000B24201D104260FE02B4EB24201D1052607
:102090000AE02A4EB24201D1062605E0284EB2429D
:1020A00001D1072600E008268F073F0FBE403043CE
:1020B0001B4E8F0846F82700224E3068A0435E680A
:1020C00006F4801606B120431E4E3060361D30687F
:1020D000A0435E6806F4001606B12043194E361D73
:1020E0003060184E361F3068A0435E6806F4003634
:1020F00006B12043134E361F3060361F3068A043B0
:102100005E6806F4803606B120430E4E083E30600D
:10211000491C1029FFF426AFF8BD000044380240E6
:10212000083801400000024000040240000802405C
:10213000000C02400010024000140240001802404F
:10214000001C0240083C0140024613690B400BB1E1
:10215000012000E00020704701480068704700003F
:102160001C0000200348006803490978084401491D
:10217000086070471C0000202400002010B50D48A6
:10218000006840F400700B4908600846006840F49D
:10219000806008600846006840F480700860032092
:1021A00000F0D6F80F2000F007F800F055F80020F6
:1021B00010BD0000003C0240F0B587B00446002688
:1021C000002700BF002000901E48006840F4003047
:1021D0001C4908600846006800F40030009000BF09
:1021E00000BF01A902A800F089F900F0BFF946007C
:1021F0001548B6FBF0F0471E14481549086040F238
:10220000E7311348C160476000210161816081614D
:1022100000F062FC054695B90D4800F091FC0546BA
:102220006DB9192000F042F8102C07D20022214687
:10223000192000F04FF80748046000E00125284607
:1022400007B0F0BD4438024040420F000044014056
:10225000C80600202000002008B500BF0020009024
:102260001148006840F480400F4908600846006843
:1022700000F48040009000BF00BF00BF002000902D
:10228000081F006840F08050091F08600846006879
:1022900000F08050009000BF00BF00220F21901E70
:1022A00000F018F808BD0000443802400146084616
:1022B00000280DDB00BF00BF00F01F0301229A4081
:1022C00043099B0003F1E023C3F8002100BF00BFD6
:1022D00000BF70472DE9F05F80460D461646002787
:1022E00002F054F9074639462A46334601F0070002
:1022F000C0F1070ABAF1040F02D94FF0040A01E055
:10230000C0F1070AD14600F1040ABAF1070F02D260
:102310004FF0000A01E0A0F1030AD4464FF0010A91
:102320000AFA09FAAAF1010A0AEA020A0AFA0CFAF6
:102330004FF0010B0BFA0CFBABF1010B0BEA030B9B
:102340004AEA0B042146404602F028F9BDE8F09F16
:1023500000BF00F00702064B19684FF6FF03194053
:10236000044B0B4343EA0221014B196000BF704745
:102370000CED00E00000FA0570B504460D460CB9FE
:10238000012070BD5848006800F00700A84209D23B
:1023900055490D700846006800F00700A84201D0BA
:1023A0000120EEE7207800F0020002281DD12078FD
:1023B00000F00400042805D14C48006840F4E050C7
:1023C0004A490860207800F00800082805D14748ED
:1023D000006840F46040454908604448006820F0C7
:1023E000F000A168084341490860207800F001002E
:1023F000A8B36068012807D13C4808380068C0F3DA
:102400004040B8B90120BCE76068022802D060688B
:10241000032807D1354808380068C0F3406048B940
:102420000120AEE7314808380068C0F3400008B921
:102430000120A6E72D48006820F0030061680843EA
:102440002A490860FFF788FE064609E0FFF784FE88
:10245000801B41F28831884202D9032091E707E0CE
:102460002248006800F00C006168B0EB810FEDD1EC
:102470001D48006800F00700A84209D91A490D70EC
:102480000846006800F00700A84201D0012078E764
:10249000207800F00400042807D11448006820F4D4
:1024A000E050E168084311490860207800F0080016
:1024B000082808D10D48006820F46040216940EAEE
:1024C000C1000A49086000F061F808490968C1F3D1
:1024D0000311074A515CC840064908600648006875
:1024E000FFF76AFE00204CE7003C0240083802403B
:1024F0006C7E000828000020200000200F220260CF
:102500000D4A126802F0030242600B4A126802F0A0
:10251000F0028260084A126802F4E052C260064A81
:10252000126802F46042D2080261044A126802F0A2
:1025300007020A607047000008380240003C024071
:1025400001480068704700002800002000B5FFF730
:10255000F7FF04490968C1F38221034A515CC8406E
:1025600000BD0000083802407C7E000800B5FFF77F
:10257000E7FF04490968C1F34231034A515CC8408E
:1025800000BD0000083802407C7E00082DE9F047BD
:10259000002400250026A1462548006800F00C0014
:1025A00020B1042805D008283AD105E0DFF884904E
:1025B00039E0DFF8809036E01D48001F006800F029
:1025C0003F041B48001F006800F4800078B11948E0
:1025D0001749091F0968C1F38811A0FB0170014662
:1025E000224600233846FDF7AFFE05460EE01148AF
:1025F0000F49091F0968C1F38811A0FB017001464A
:10260000224600233846FDF79FFE05460848001F76
:102610000068C0F30140401C4600B5FBF6F902E03B
:10262000DFF8109000BF00BF4846BDE8F08700000B
:10263000083802400024F400F8B504460CB9012023
:10264000F8BD207800F00100002874D0F948006837
:1026500000F00C0004280DD0F648006800F00C00D3
:10266000082813D1F348001F006800F48000B0F57B
:10267000800F0BD1EF4808380068C0F340400028B5
:1026800059D06068002856D10120D9E700BF6068A2
:10269000B0F5803F08D1E7480838006840F4803042
:1026A000E449083908601EE06068B0F5A02F0DD13C
:1026B000E0480838006840F48020DE4908390860A6
:1026C0000846006840F4803008600CE0D9480838BB
:1026D000006820F48030D74908390860084600684F
:1026E00020F48020086000BF606890B1FFF734FDDF
:1026F000054606E0FFF730FD401B642801D90320A2
:102700009EE7CC4808380068C0F340400028F1D06C
:1027100011E0FFF721FD054606E0FFF71DFD401B18
:10272000642801D903208BE7C24808380068C0F349
:1027300040400028F1D1207800F0020002285FD14B
:10274000BC48006800F00C0058B1BA48006800F0BE
:102750000C0008281CD1B748001F006800F4800056
:10276000B0B9B44808380068C0F3400020B1E06850
:10277000012801D0012063E7AE480838006820F046
:10278000F800216940EAC100AA490839086037E029
:10279000E06800B30120A8490860FFF7DDFC0546AA
:1027A00006E0FFF7D9FC401B022801D9032047E7C8
:1027B000A04808380068C0F340000028F1D09D48C8
:1027C0000838006820F0F800216940EAC100994902
:1027D0000839086014E0002097490860FFF7BCFC46
:1027E000054606E0FFF7B8FC401B022801D903208C
:1027F00026E7904808380068C0F340000028F1D16F
:10280000207800F0080008282CD16069A8B10120C8
:102810008A490860FFF7A0FC054606E0FFF79CFC2C
:10282000401B022801D903200AE782486C30006867
:10283000C0F340000028F1D014E000207F49086078
:10284000FFF78AFC054606E0FFF786FC401B0228DE
:1028500001D90320F4E677486C300068C0F34000EB
:102860000028F1D1207800F00400042870D100275E
:1028700070483830006800F0805090B900BF0020E8
:1028800000906C483830006840F080506949383119
:1028900008600846006800F08050009000BF00BF4C
:1028A00001276748006800F48070B0B96448006888
:1028B00040F4807062490860FFF74EFC054606E070
:1028C000FFF74AFC401B022801D90320B8E65C4808
:1028D000006800F480700028F2D000BFA0680128D2
:1028E00008D154486830006840F00100514968310F
:1028F00008601DE0A06805280DD14E4868300068CA
:1029000040F004004B49683108600846006840F018
:10291000010008600CE047486830006820F00100C2
:102920004449683108600846006820F004000860E7
:1029300000BFA068A8B1FFF70FFC054609E0FFF74C
:102940000BFC401B41F28831884202D9032077E614
:1029500026E0384868300068C0F340000028EED018
:1029600013E0FFF7F9FB054608E0FFF7F5FB401B16
:1029700041F28831884201D9032061E62D48683050
:102980000068C0F340000028EFD1012F07D129488B
:102990003830006820F0805026493831086000BF88
:1029A000A069002845D02348006800F00C000828E2
:1029B0005DD0A069022845D100201F490866FFF7B5
:1029C000CBFB054606E0FFF7C7FB401B022801D9F9
:1029D000032035E6174808380068C0F34060002837
:1029E000F1D1D4E907010843616A40EA811101226B
:1029F000A06AC2EB500041EA00412C20005D41EA90
:102A000000600C49091F086001200B490866FFF7A8
:102A1000A3FB054606E0FFF79FFB401B022801D9F8
:102A200003200DE6034808380068C0F34060002822
:102A3000F1D049E00838024000004742800E47428A
:102A400000700040002021490866FFF785FB05461D
:102A500006E0FFF781FB401B022801D90320EFE5C8
:102A60001B480068C0F340600028F2D12CE0A06948
:102A7000012800D1E4E51648001D0668A069012878
:102A800020D006F48001E06981421BD106F03F01AD
:102A9000206A814216D147F6C0703040616AB0EBBF
:102AA000811F0FD106F440310122A06AC2EB500011
:102AB000B1EB004F06D106F070612C20005DB1EB48
:102AC000006F01D00120BBE50020B9E500004742BE
:102AD000003802407047704710B504460CB9012019
:102AE00010BD94F83D0028B9002084F83C00204631
:102AF00000F025F8022084F83D00211D206801F037
:102B000039F8012084F8460000BF84F83E00012116
:102B10003F200155402001554120015500BF00BF15
:102B2000012084F8420043200155442001554520EE
:102B3000015500BF012084F83D000020D0E7704718
:102B4000014691F83D00012801D001207047022084
:102B500081F83D000868C06840F001000B68D8604B
:102B60001A4B086898421BD00868B0F1804F17D004
:102B7000174B0868984213D0164B086898420FD03C
:102B8000154B086898420BD0144B0868984207D040
:102B9000134B0868984203D0124B086898420CD136
:102BA0000868806800F00702062A0CD008680068F0
:102BB00040F001000B68186005E00868006840F00C
:102BC00001000B6818600020C0E700000000014011
:102BD0000004004000080040000C004000040140D8
:102BE0000040014000180040704770B5044620685E
:102BF000C5682068066906F00200022819D105F0B0
:102C00000200022815D1401F2168086101202077A9
:102C10002068806900F0030018B12046FFF7E4FF48
:102C200005E0204600F097F8204600F095F80020D7
:102C3000207706F00400042819D105F004000428C8
:102C400015D1C0432168086102202077206880697F
:102C500000F4407018B12046FFF7C6FF05E020469B
:102C600000F079F8204600F077F80020207706F091
:102C70000800082819D105F00800082815D1C0431C
:102C800021680861042020772068C06900F00300F3
:102C900018B12046FFF7A8FF05E0204600F05BF8DA
:102CA000204600F059F80020207706F01000102888
:102CB00019D105F01000102815D1C0432168086112
:102CC000082020772068C06900F4407018B12046C1
:102CD000FFF78AFF05E0204600F03DF8204600F0AF
:102CE0003BF80020207706F0010048B105F0010014
:102CF00030B16FF0010021680861204600F02EF825
:102D000006F08000802809D105F08000802805D1D8
:102D1000C043216808612046FFF7DCFE06F0400052
:102D2000402809D105F04000402805D1C043216862
:102D30000861204600F01EF806F02000202809D186
:102D400005F02000202805D1C043216808612046F5
:102D5000FFF7C1FE70BD70477047000010B5044614
:102D600003492068884201D1FFF7FCF910BD00003B
:102D7000004401407047704710B5044600BF00BFD3
:102D800021680C3151E8001F21F4907021680C314A
:102D900041E80002002AF3D100BF00BF00BF216854
:102DA000143151E8001F21F001002168143141E87D
:102DB0000002002AF3D100BF206B01280ED100BF12
:102DC00000BF21680C3151E8001F21F0100021687C
:102DD0000C3141E80002002AF3D100BF20684069AD
:102DE00000F04000402820D100BF00BF216814310E
:102DF00051E8001F21F040002168143141E8000231
:102E0000002AF3D100BFE06B78B10020E16B0865C8
:102E1000E06BFEF73EFE40B1E06BFEF7A4FE20281B
:102E200003D110206064032010BD0020E085202025
:102E300084F842000020206300BFF5E770470000DF
:102E40002DE9F84F0446206805682068C6682068A8
:102E500047694FF00009CA4605F00F09B9F1000FA4
:102E60000AD105F0200038B106F0200020B120463C
:102E700000F0EBFFBDE8F88FB9F1000F7CD007F050
:102E8000010018B906F49070002875D005F0010013
:102E900030B106F4807018B1606C40F001006064DD
:102EA00005F0040030B107F0010018B1606C40F08B
:102EB0000200606405F0020030B107F0010018B1B3
:102EC000606C40F00400606405F0080048B106F052
:102ED000200010B907F0010018B1606C40F0080044
:102EE0006064606C002846D005F0200028B106F030
:102EF000200010B1204600F0A8FF20684069C0F310
:102F0000801A606C00F0080010B9BAF1000F2DD0E3
:102F1000204600F041FF2068406900F04000402852
:102F200020D100BF00BF2168143151E8001F21F0FB
:102F300040002168143141E80002002AF3D100BFAB
:102F4000E06B50B17748E16B0865E06BFEF7F7FD89
:102F500088B1E06B016D88470DE02046FFF76EFFFA
:102F600009E009E02046FFF769FF04E02046FFF78B
:102F700065FF002060647DE7206B012878D105F0B3
:102F80001000002874D006F010000028FAD000BF0E
:102F90000020009020680068009020684068009041
:102FA00000BF00BF2068406900F04000402860D1A9
:102FB000E06B006840681FFA80F8B8F1000F56D047
:102FC000A08D404553DDA4F82E80E06BC069B0F5BC
:102FD000807F43D000BF00BF21680C3151E8001F43
:102FE00021F4807021680C3141E80002002AF3D1FD
:102FF00000BF00BF00BF2168143151E8001F21F05D
:1030000001002168143141E80002002AF3D100BF19
:1030100000BF00BF2168143151E8001F21F04000BB
:103020002168143141E80002002AF3D100BF2020BA
:1030300084F842000020206300BF00BF21680C31EB
:1030400051E8001F21F0100021680C3141E8000216
:10305000002AF3D100BFE06BFEF71BFD0220606386
:10306000A08DE28D801A81B22046FFF784FE01E731
:1030700042E0A08DE18D401A1FFA80F8E08DD0B3B8
:10308000B8F1000F37D000BF00BF21680C3151E804
:10309000001F21F4907021680C3141E80002002AE1
:1030A000F3D100BF00BF00BF2168143151E8001FF9
:1030B00021F001002168143141E80002002AF3D117
:1030C00000BF202084F842000020206300BF00BF22
:1030D00021680C3151E8001F21F0100021680C31EB
:1030E00041E80002002AF3D100BF0220606341469C
:1030F0002046FFF740FEBDE605F0800030B106F047
:10310000800018B1204601F099F8B3E605F04000C0
:1031100030B106F0400018B1204600F073FEA9E679
:1031200000BFA7E65D3C000810B504460CB90120BD
:1031300010BDA06900B100E000BF94F8410028B9BB
:10314000002084F84000204600F02AF8242084F86B
:1031500041002068C06820F400502168C860204603
:1031600000F0F2FE2068006920F4904021680861B8
:103170002068406920F02A00216848612068C06802
:1031800040F400502168C86000206064202084F86A
:10319000410084F842000020606300BFC8E70000DF
:1031A00010B586B00446142101A8FDF7DDF9DB490E
:1031B000206888424DD100BF00200090D8480068A8
:1031C00040F48010D64908600846006800F480107A
:1031D000009000BF00BF00BF00200090D048103812
:1031E000006840F00400CE491039086008460068C5
:1031F00000F00400009000BF00BF00BF002000905E
:103200000846006840F0080008600846006800F0C2
:103210000800009000BF00BF8814019002200290B7
:1032200000200390032004900820059001A9BD48C8
:10323000FEF790FE042001900220029000200390EF
:10324000032004900820059001A9B748FEF782FEEC
:1032500062E1B6492068884278D100BF0020009022
:10326000AF48001D006840F01000AD49091D08601E
:103270000846006800F01000009000BF00BF00BFCB
:1032800000200090A6481038006840F00100A449D2
:10329000103908600846006800F00100009000BF87
:1032A00000BF4FF4C0600190022002900020039004
:1032B000032004900720059001A99D48FEF74AFECF
:1032C0009C489D4908604FF00060486000219A4882
:1032D0008160C1604FF480610161002141618161C1
:1032E000C16101624162FEF761FD08B1FDF74BFE6D
:1032F00000BF9148E063846300BF8E4878308F49F7
:1033000008604FF00060486040218C4881600021D7
:10331000C1604FF480610161002141618161C1613F
:1033200001624162FEF742FD08B1FDF72CFE00BFCD
:103330008248A063846300BF002205212520FEF798
:10334000C9FF2520FEF7B2FFE6E0FFE77C492068D1
:10335000884275D100BF002000907148006840F499
:1033600000306F4908600846006800F400300090A3
:1033700000BF00BF00BF00200090694810380068FF
:1033800040F001006649103908600846006800F006
:103390000100009000BF00BF0C20019002200290AD
:1033A00000200390032004900720059001A96048A5
:1033B000FEF7D0FD6348644908604FF00060486044
:1033C000002161488160C1604FF48061016100218A
:1033D00041618161C16101624162FEF7E7FC08B1B0
:1033E000FDF7D1FD00BF5848E063846300BF554836
:1033F0001830564908604FF000604860402153483B
:1034000081600021C1604FF4806101610021416150
:103410008161C16101624162FEF7C8FC08B1FDF73C
:10342000B2FD00BF4948A063846300BF00220521AC
:103430002620FEF74FFF2620FEF738FF6CE0FFE75F
:1034400043492068884231D100BF002000903448B1
:10345000006840F48020324908600846006800F4A3
:103460008020009000BF00BF00BF002000902C48CB
:103470001038006840F002002949103908600846F9
:10348000006800F00200009000BF00BF4FF44060F1
:103490000190022002900020039003200490072056
:1034A000059001A92B48FEF755FD35E02A49206813
:1034B000884231D100BF002000901948001D0068EB
:1034C00040F020001649091D08600846006800F019
:1034D0002000009000BF00BF00BF002000901048F7
:1034E0001038006840F004000D49103908600846A3
:1034F000006800F00400009000BF00BFC0200190F1
:1035000002200290002003900320049008200590E0
:1035100001A90448FEF71EFD06B010BD0050004092
:103520004038024000080240000C024000100140F8
:10353000000002404064024048050020A805002029
:103540000044004088600240080600206806002011
:1035500000480040000402400014014070B50446D9
:103560000D46164694F8420020280BD105B10EB93D
:10357000012070BD0020206332462946204600F01D
:10358000F9FDF6E70220F4E770477047704700BF87
:10359000FEE7000010B50D480D49086006204860A0
:1035A00000210B488160C1604FF4003101610901C5
:1035B00041610021017641768176C17601774177BC
:1035C000FEF777F808B1FDF7DEFC10BD006400409F
:1035D0009003002010B50D480D4908600620486092
:1035E00000210B488160C1604FF400310161090185
:1035F00041610021017641768176C176017741777C
:10360000FEF757F808B1FDF7BEFC10BD006800409A
:10361000B803002008B500BF002000901E480068D5
:1036200040F400101C4908600846006800F40010CF
:10363000009000BF00BF00BF002000900846006857
:1036400040F4800008600846006800F480000090A4
:1036500000BF00BF002205211020FEF73BFE102016
:10366000FEF724FE002205211120FEF733FE112073
:10367000FEF71CFE002205213A20FEF72BFE3A2021
:10368000FEF714FE002205214620FEF723FE462009
:10369000FEF70CFE08BD00003038024000B5ABB0AC
:1036A0001C22244924A8FCF70BFF002124A802F0C7
:1036B0006EFA214908601C221E491C311DA8FCF726
:1036C000FFFE00211DA802F062FA1C4908601C22BE
:1036D0001849383116A8FCF7F3FE002116A802F0AD
:1036E00056FA174908601C22124954310FA8FCF7FA
:1036F000E7FE00210FA802F04AFA124908601C22D6
:103700000C49703108A8FCF7DBFE002108A802F084
:103710003EFA0D4908601C2206498C3101A8FCF7CD
:10372000CFFE002101A802F032FA084908602BB050
:1037300000BD0000BC7D000814000020080000202F
:1037400000000020040000200C00002010000020D9
:1037500000B587B0142102A8FCF706FF00BF0020C7
:1037600001902A48006840F0040028490860084693
:10377000006800F00400019000BF00BF00BF0020FF
:1037800001900846006840F0800008600846006824
:1037900000F08000019000BF00BF00BF002001903A
:1037A0000846006840F0010008600846006800F024
:1037B0000100019000BF00BF00BF0020019008463B
:1037C000006840F0020008600846006800F002004F
:1037D000019000BF00BF00BF0020019008460068B4
:1037E00040F0080008600846006800F008000190FA
:1037F00000BF00BF0815029000200390049002A9AA
:103800000348FEF7A7FB07B000BD000030380240B8
:103810000008024010B50B480B4908604FF4E13036
:103820004860002108488160C16001610C2141614C
:1038300000218161C161FFF777FC08B1FDF7A3FBAF
:1038400010BD000000500040E003002010B50B4800
:103850000B4908600B4848604FF48051084881606C
:103860000021C16001610C21416100218161C161C0
:10387000FFF75AFC08B1FDF786FB10BD00100140B0
:1038800028040020A086010010B50B480B490860F1
:103890004FF4E1304860002108488160C160016157
:1038A0000C21416100218161C161FFF73DFC08B13C
:1038B000FDF769FB10BD00000044004070040020CB
:1038C00010B50B480B4908604FF47A30486000216E
:1038D00008488160C16001610C2141610021816162
:1038E000C161FFF721FC08B1FDF74DFB10BD0000E1
:1038F00000480040B804002010B50B480B49086090
:103900004FF47A304860002108488160C16001614D
:103910000C21416100218161C161FFF705FC08B103
:10392000FDF731FB10BD0000001401400005002030
:103930001F48B0F90400C0EB001000EE100AB8EE0A
:10394000C00A1C4880ED000A90ED000AB5EEC00ADE
:10395000F1EE10FA02DD90ED000A04E0154890ED5A
:10396000000AB1EE400ADFED140AB4EEE00AF1EE0F
:1039700010FA11DD0F4890ED000AB5EEC00AF1EE25
:1039800010FA04DD9FED0C0A80ED000A04E09FEDC3
:103990000B0A084880ED000A064890ED000A80ED09
:1039A000010A90ED000AB1EE400A80ED020A70476C
:1039B000884A00203844002000007A4400007AC47D
:1039C0000748B0F9000000EE100AB8EEC00ADFEDBB
:1039D000050A20EE200A044880ED020A7047000024
:1039E000884A00209A9919BE1048002000BFFEE7BF
:1039F00000BFFEE72DE9F0412DED068B04460D4694
:103A00001646B0EE408AF0EE608AB0EE419AF0EED3
:103A1000619AB0EE42AAF0EE62AA1F460D4844F841
:103A2000840F0D48606054F884C93B46F0EE6A2A62
:103A3000B0EE4A2AF0EE691AB0EE491AF0EE680AC2
:103A4000B0EE480A324629462046E047BDEC068BD8
:103A5000BDE8F081B15D0008D35D000800BF012022
:103A600002F00AF8FBE7000010B500BF502080F319
:103A70001188BFF34F8FBFF36F8F00BF03F020FBA0
:103A800018B14FF080500449086000BF002080F357
:103A9000118800BF10BD000004ED00E000B593B038
:103AA000302107A8FCF760FD142102A8FCF75CFD9B
:103AB00000BF002001902448006840F08050224957
:103AC00008600846006800F08050019000BF00BF09
:103AD00000BF002001901D48006840F480401B4951
:103AE00008600846006800F48040019000BF00BFF5
:103AF000012007900004089002200D9041050E91CE
:103B000008210F91A82110910221119104211291F5
:103B100007A8FEF791FD08B1FDF735FA0F200290D6
:103B200002200390002004904FF4A05005904FF421
:103B300080500690052102A8FEF71EFC08B1FDF793
:103B400022FA13B000BD000040380240007000406F
:103B50000348006840F470000149086070470000A5
:103B600088ED00E010B50248FFF73FF810BD0000F7
:103B7000C806002010B502682D4B98420ED0B0F157
:103B8000804F0BD02B4B984208D02B4B984205D03E
:103B90002A4B984202D02A4B984203D122F070025D
:103BA0004B681A43224B984220D0B0F1804F1DD071
:103BB000204B98421AD0204B984217D01F4B984266
:103BC00014D01F4B984211D01E4B98420ED01E4B62
:103BD00098420BD01D4B984208D01D4B984205D0FF
:103BE0001C4B984202D01C4B984203D122F44072E5
:103BF000CB681A4322F080034C6943EA0402026056
:103C00008B68C3620B688362094B984202D00C4BED
:103C1000984201D10B69036301234361036903F0F7
:103C200001031BB1036923F00103036110BD000010
:103C3000000001400004004000080040000C00406B
:103C400000040140004001400044014000480140A0
:103C500000180040001C00400020004070B50546E0
:103C6000AC6B0020E085E0842046FFF7E7F870BDEC
:103C700070B506460025B46B20684069C0F3C015D6
:103C800094F84100212805D125B10020E084204688
:103C900000F0C8F820684069C0F3801594F842002D
:103CA000222805D125B10020E085204600F074F8D7
:103CB000606C40F0100060642046FFF7BFF870BDF4
:103CC00070B50546AC6B2868006800F48070002869
:103CD00042D1E08500BF00BF21680C3151E8001FD0
:103CE00021F4807021680C3141E80002002AF3D1F0
:103CF00000BF00BF00BF2168143151E8001F21F050
:103D000001002168143141E80002002AF3D100BF0C
:103D100000BF00BF2168143151E8001F21F04000AE
:103D20002168143141E80002002AF3D100BF2020AD
:103D300084F84200206B01280ED100BF00BF21682B
:103D40000C3151E8001F21F0100021680C3141E8CE
:103D50000002002AF3D100BF00206063206B01281D
:103D600004D1A18D2046FFF706F802E02046FFF7B8
:103D70000BFC70BD70B50546AC6B01206063206B19
:103D8000012805D1A08D41082046FEF7F4FF02E08E
:103D90002046FFF7FAFB70BD00BF00BF02680C327F
:103DA00052E8002F22F4907102680C3242E80013AE
:103DB000002BF3D100BF00BF00BF0268143252E8ED
:103DC000002F22F001010268143242E80013002B98
:103DD000F3D100BF016B01290ED100BF00BF026803
:103DE0000C3252E8002F22F0100102680C3242E837
:103DF0000013002BF3D100BF202180F842100021D6
:103E00000163704710B504462068C06820F0400088
:103E10002168C860202084F841002046FFF7B6FBE7
:103E2000002010BD00BF00BF02680C3252E8002F16
:103E300022F0C00102680C3242E80013002BF3D1DB
:103E400000BF202180F841107047F8B5044694F86F
:103E50004200222875D1A068B0F5805F0CD120699E
:103E600050B90025A66A20684068C0F30800308079
:103E7000A06A801CA06215E0A56A0026A068B0F5C3
:103E8000805F03D0A06828B9206918B9206840680D
:103E9000287004E02068406800F07F002870A06A65
:103EA000401CA062E08D401E80B2E085002846D113
:103EB0002068C06820F020002168C8602068C068C1
:103EC00020F480702168C8602068406920F00100FB
:103ED00021684861202084F8420000206063206B44
:103EE000012826D10020206300BF00BF21680C31CB
:103EF00051E8001F21F0100021680C3141E8000258
:103F0000002AF3D100BF2068006800F010001028DC
:103F10000AD100BF0020009020680068009020684F
:103F20004068009000BF00BFA18D2046FEF723FF30
:103F300002E02046FFF728FB0020F8BD01E000204A
:103F4000FBE70220F9E700002DE9F84F044620685E
:103F5000006920F44050E168084321680861216944
:103F6000A068084361690843E1690843009020683C
:103F7000C06849F20C618843009908432168C86011
:103F80002068406920F44070A169084321684861B5
:103F900076492068884203D075492068884203D159
:103FA000FEF7E4FA814602E0FEF7D0FA8146E069C6
:103FB000B0F5004F6CD102206168A0FB01500346B0
:103FC0001920A9FB007001462A463846FCF7BCF9C7
:103FD0006421B0FBF1F04FEA001A02206168A0FBF7
:103FE00001510B461920A9FB00712A463846FCF7FF
:103FF000ABF9834602206168A0FB015003461920FB
:10400000A9FB00712A463846FCF79EF96421B0FBF3
:10401000F1F000EBC00101EB0010ABEB80003221AE
:1040200001EBC0006421B0FBF1F000F0F8000AEBF6
:10403000400A02206168A0FB015003461920A9FB39
:10404000007001462A463846FCF77EF98346022076
:104050006168A0FB015003461920A9FB00712A46A4
:104060003846FCF771F96421B0FBF1F000EBC001B8
:1040700001EB0010ABEB8000322101EBC0006421AA
:10408000B0FBF1F000F007005044216888606AE05E
:1040900004206168A0FB015003461920A9FB0070B1
:1040A00001462A463846FCF74FF9824604206168EB
:1040B000A0FB015003461920A9FB007001462A46C7
:1040C0003846FCF741F96421B0FBF1F000EBC00188
:1040D00001EB0010AAEB8000322101EB00106421FB
:1040E000B0FBF1F000F0F00A04206168A0FB017061
:1040F00003461920A9FB00513A462846FCF724F94B
:104100006421B0FBF1F00AEB001A04206168A0FB07
:1041100001510B461920A9FB00712A463846FCF7CD
:1041200013F9834604206168A0FB0150034619205F
:10413000A9FB007001462A463846FCF705F96421C0
:10414000B0FBF1F000EBC00101EB0010ABEB800025
:10415000322101EB00106421B0FBF1F000F00F0000
:10416000504421688860BDE8F88F000000100140CD
:104170000014014077B581B0044615460298A0624C
:10418000A58500206064222084F842002848E16B65
:10419000C8632848E16B08642748E16BC8640020C5
:1041A000E16B086502AE32682368191D2B46E06B8F
:1041B000FDF772FE00BF00200090206800680090AC
:1041C00020684068009000BF00BF206970B100BF48
:1041D00000BF21680C3151E8001F41F48070216854
:1041E0000C3141E80002002AF3D100BF00BF00BF3C
:1041F0002168143151E8001F41F001002168143199
:1042000041E80002002AF3D100BF00BF00BF2168CF
:10421000143151E8001F41F040002168143141E899
:104220000002002AF3D100BF002004B070BD0000DE
:10423000C13C0008753D0008713C0008014691F83A
:104240004100212828D18868B0F5805F0BD108692A
:1042500048B90A6A1088C0F308000B685860086AF9
:10426000801C086205E00B6A581C086218780B680D
:104270005860C88C401E80B2C88458B90868C068AD
:1042800020F080000B68D8600868C06840F04000EB
:104290000B68D860002070470220FCE710B5034887
:1042A000FEF7CEFD014800F03DF810BD28040020C7
:1042B00010B50348FEF7C4FD014800F033F810BD07
:1042C0007004002010B504461149206888420DD1C1
:1042D0001049114802F0AEF812210E48FCF722F9FD
:1042E00012220C492046FFF739F90FE00B492068EC
:1042F00088420BD10A4801F071FA64210848FCF7A2
:1043000011F9642206492046FFF728F910BD000084
:1043100000100140064A0020884A00200044004066
:10432000A249002038B5044620680068C0F3001098
:1043300080B100BF002000902068006800902068D5
:104340004068009000BF00BF2046FEF715FD2046E4
:10435000FFF7B8FF38BD000008B500BF002000908F
:10436000184800680068009016480068406800908F
:1043700000BF00BF13480068C06840F0100011493A
:104380000968C860122210490E48FFF7E7F800BF1D
:10439000002000900D480068006800900B480068FD
:1043A0004068009000BF00BF08480068C06840F047
:1043B000100006490968C860642205490348FFF7F0
:1043C000CDF808BD28040020064A00207004002013
:1043D000A249002000BFFEE770B504460D46A4F2D6
:1043E000012070B1012802D005281ED113E0104829
:1043F0008069401C0E49886129460D4800F04CFF39
:1044000014E00C488069401C0A4988612946094823
:1044100000F042FF0AE008488069401C06498861B4
:104420002946054800F038FF00BF00BF00BF70BD3F
:104430001C44002000440020F44700207047000086
:1044400010B5044626480078012804D002282DD053
:10445000032842D140E02348D0ED0D0AB0EE600AB7
:10446000FCF740FD1F48D0ED0E0AB0EE600AFCF7E5
:1044700039FD1C48D0ED0F0AB0EE600AFCF732FDA2
:104480001848D0ED070AB0EE600AFCF72BFD15487E
:10449000D0ED080AB0EE600AFCF724FD1148D0ED1B
:1044A000090AB0EE600AFCF71DFD17E00E48D0EDDA
:1044B000070AB0EE600AFCF715FD0B48D0ED080ABC
:1044C000B0EE600AFCF70EFD0748D0ED090AB0EE29
:1044D000600AFCF707FD01E000E000BF00BF10BD6F
:1044E000A4000020384400201048002070B5054684
:1044F0000C4600260DB1022C01D8002070BDA11E73
:10450000094802882846FCF74FFD0646F1B2A01E76
:10451000285C814206D1601E285CB0EB162F01D1C9
:104520000120EBE70020E9E70001002070B5054617
:104530000C4600260DB1022C01DC002070BD601E6F
:1045400081B2FF222846FCF749FD0646601E285C22
:10455000B04201D10120F1E70020EFE703B4019858
:104560004100009850EAC12018BF04204A0D18BF2E
:1045700040F0010040F2FF72B2EB515F08BF40F023
:104580000200012808BF052002B0704702480068F9
:10459000C0F30220704700000CED00E010B50028C9
:1045A00004DB0A07130E054A135406E00A07140E2B
:1045B000034A00F00F031B1FD45410BD00E400E0B9
:1045C00018ED00E00000000010B52F499FED2C1BF6
:1045D0002DED020B84B0059820F000408842DCBF2E
:1045E00000209DED040B32DD2849884209D1049852
:1045F00040B94FF00100FBF7E6FF00F03DFC06B0CC
:1046000010BD05DB9DED040B00F02AFC06B010BDCB
:1046100068469DED040B00F03BF810F0030011D04C
:10462000012818D09DED021B9DED000B02281AD029
:1046300000F04AFA51EC100B02F0B8FE06B041EC63
:10464000100B10BD9DED021B9DED000B012000F035
:104650006FFB06B010BD9DED021B9DED000B00F041
:1046600033FA06B010BD012000F062FB51EC100BD4
:1046700002F09CFE06B041EC100B10BD00000000E3
:104680000000000000000000FB21E93F0000F07F77
:104690002DE9F14F04462DED020B2DED088B8AB06C
:1046A0009FEDE70B80ED020B139EE74826F00045D7
:1046B00085420ADC9DED120B002084ED000B0AB050
:1046C000BDEC088B03B0BDE8F08FE0489FEDE0AB98
:1046D0009FEDE1BBA84247DDE14F9FEDE39B9FEDDE
:1046E000E48B9DED120B53EC1A2B51EC100B002EAA
:1046F0001CDD03F0FDF941EC100BBD4208D053EC7A
:104700001B2B51EC100B03F0F3F9C4E900010BE093
:1047100053EC192B51EC100B03F0EAF953EC182B66
:1047200003F0E6F9C4E900010120C8E702F07CFECD
:1047300041EC100BBD4208D053EC1B2B51EC100B7D
:1047400002F072FEC4E900010BE053EC192B51ECAE
:10475000100B02F069FE53EC182B02F065FEC4E961
:1047600000014FF0FF30AAE7C348A84279DB9DED76
:10477000120B51EC100B00F0ECFE41EC180B9FED0E
:10478000C00B53EC102B03F0A9F89FEDBF1B53ECAB
:10479000112B02F049FE03F047F8074603F073F8C7
:1047A00041EC190B53EC1A2B03F098F853EC182B2F
:1047B00003F092F941EC180B53EC1B2B51EC190B45
:1047C00003F08CF8DFF8C8A241EC100B4FEA155843
:1047D0000125FA4453EC102B51EC180B03F088F927
:1047E000032DC4E900013DD0C1F30A5005EB45118A
:1047F000A8EB00001139814234DA0AEB051BB0EE58
:1048000048AA9BED000BF0EE68AA53EC102B51EC7C
:10481000190B03F063F841EC1B0B51EC1A0B53EC32
:104820001B2B03F065F941EC180B51EC1A0B53EC00
:10483000182B03F05DF953EC1B2B03F059F99BED9A
:10484000020B41EC1A0B53EC102B51EC190B03F03B
:1048500045F853EC1A2B03F04BF941EC100B6D1C8F
:10486000B8E70EE0002EA8BF3846BFF628AF94ED9B
:10487000000B51EC100B02F099FDC4E900017842E5
:104880001DE7C6F3130040F4801EC6F30A50A0F2E1
:10489000F530471100F01F05C5F12000DDF848B0E4
:1048A00008900020069007900520EC467949002DDD
:1048B00007EB0002794408BF51F8221009D051F8E3
:1048C000223001EB8201AB404A68089922FA01F1DB
:1048D0001943A1FB0E26A1FB0B131A449A4234BFC5
:1048E0000123002303EB06080CEB8003D3E901A6A8
:1048F0000E448E4234BF0121002192448A4411B1FA
:10490000924502D903E0924501D2012100E0002145
:10491000C3E901A641444CF82010011EA0F101009A
:10492000C4DC029800F10050850F0298DDE90367AE
:104930008000DDF8148002F0A6FF41EC1A0B30462F
:1049400002F0B8FF9FED541B53EC112B02F0C6FF91
:1049500041EC1B0B384602F0ADFF9FED511B53ECB1
:10496000112B02F0BBFF41EC180B404602F0A2FFF6
:104970009FED4D1B53EC112B02F0B0FF41EC190BD6
:1049800051EC180B53EC192B02F04EFD53EC1B2B82
:1049900002F04AFD53EC1A2B02F046FDCDE9080166
:1049A000002008909DED080B53EC1A2B51EC100BD6
:1049B00003F09EF853EC1B2B03F09AF853EC182BE2
:1049C00003F096F853EC192B03F086F89FED381B93
:1049D00053EC112B02F082FF9FED370B41EC180BCB
:1049E00053EC102B9DED080B51EC100B02F076FFF1
:1049F00053EC182B02F018FD9FED310B41EC180B16
:104A000053EC102B9DED080B51EC100B02F066FFE0
:104A100053EC182B02F008FD41EC100B139810F02A
:104A2000004F06D06D4251EC100B02F0BFFC41EC80
:104A3000100B284684ED000B41E60000000000004A
:104A40000000000000000000FB21E93F7CD902408B
:104A500000004054FB21F93F3163621A61B4D03D3C
:104A6000FB21F93F000000000000601A61B4D03D56
:104A70007370032E8A19A33BFB213941000000000B
:104A800083C8C96D305FE43F000000000000E03FD4
:104A9000123A000060390000000000000000103EE3
:104AA000000000000000103C000000000000103A70
:104AB000182D4454FB21F93D3326A611460B113C19
:104AC00000000054FB21F93D10B52DED040B2DED38
:104AD000088B82B0B0EE419AF0EE619A0B9820F00C
:104AE00000449FED4BABB4F1795F11DA9DED0A0BF9
:104AF00051EC100B02F098FE002801BFB0EE4A0AFC
:104B0000F0EE6A0A02B0BDEC088B04BF04B010BD21
:104B10009DED0A0B53EC102B51EC100B02F0DEFE56
:104B200041EC180B3C480621B0EE480AF0EE680A4A
:104B3000784400F081F853EC182B51EC100B02F084
:104B4000CDFE9DED0A0B41EC1B0B53EC192B51ECE8
:104B5000100B02F0C3FE41EC190B53EC1B2B51EC74
:104B6000180B02F0BBFE53EC192B02F0C1FF9FEDB6
:104B70002C0B41EC190B53EC102B51EC180B02F0E1
:104B8000ADFE41EC100B2848844210DA53EC192B8F
:104B900051EC100B02F0ACFF53EC1A2B02F09CFF0F
:104BA00041EC100B02B0BDEC088B04B010BD1F48E7
:104BB000A042BCBF9FED1E1B8DED001B06DBA4F5C4
:104BC00000100190002000909DED001B51EC100B97
:104BD00053EC112B02F08CFF9DED000B41EC180BF8
:104BE00053EC102B51EC1A0B02F082FF41EC1A0B24
:104BF00053EC192B51EC180B02F07AFF53EC1A2BE3
:104C000002F06AFF41EC100BCCE70000000000004E
:104C1000000000000000F03F8436000000000000AB
:104C2000000000000000E03F3333D33F0000E93FC5
:104C3000000000000000D23F70B504462DED028B4D
:104C40004D1E00EBC500B0EE408AF0EE608A90ED9C
:104C5000000B35F0060017D053EC182B51EC100B5D
:104C600002F03CFE41EC100B6D1E04EBC50090ED14
:104C7000001B51EC100B53EC112B02F0D5FB41EC57
:104C8000100B35F00600E7D1022D36D0042D1CD0D4
:104C9000062D1CBFBDEC028B70BD53EC182B51ECE4
:104CA000100B02F01BFE94ED0A1B53EC112B02F0CB
:104CB000BBFB53EC182B02F011FE94ED081B53ECD8
:104CC000112B02F0B1FB41EC100B53EC182B51EC03
:104CD000100B02F003FE94ED061B53EC112B02F0B7
:104CE000A3FB53EC182B02F0F9FD94ED040B53ECED
:104CF000102B02F099FB41EC100B53EC182B51ECEC
:104D0000100B02F0EBFD94ED021B53EC112B02F0A3
:104D10008BFB53EC182B02F0E1FD94ED001B53ECE0
:104D2000112B02F081FBBDEC028B41EC100B70BD2E
:104D300031B504462DED040B2DED0A8BB0EE41BAD2
:104D4000F0EE61BA0B989DED0A0B20F00040B0F137
:104D5000795F0DDA51EC100BFFF700FC042808BF57
:104D600000F09AF89DED0A0BBDEC0A8B05B030BD42
:104D700053EC102B51EC100B02F0B0FD41EC180B72
:104D80009DED0A0B53EC182B51EC100B02F0A6FD15
:104D900041EC190B2C48B0EE480AF0EE680A0521E8
:104DA0007844FFF749FF9FED2ACBB0EE40AAF0EE22
:104DB00060AA9CB353EC1C2B51EC190B02F08EFD36
:104DC00041EC1C0B53EC1A2B51EC190B02F086FD35
:104DD0009FED210B41EC190B53EC102B51EC1B0BED
:104DE00002F07CFD53EC192B02F082FE53EC182BE1
:104DF00002F074FD53EC1B2B02F07AFE53EC1C2BDB
:104E000002F076FE9DED0A1B53EC112B02F064FEBE
:104E1000BDEC0A8B05B041EC100B30BDFFE753EC45
:104E20001A2B51EC180B02F059FD53EC1C2B02F01D
:104E3000FBFA53EC192B02F051FD9DED0A1B53ECCC
:104E4000112B02F0F1FAE3E70C350000000000003E
:104E5000495555555555C5BF000000000000E03FBD
:104E600010B553EC102B51EC100B02F0DDFA41ECB5
:104E7000100B10BD000000009FED050B10B553ECAA
:104E8000102B51EC100B02F077FB41EC100B10BD16
:104E900000000000000000009FED050B10B553EC72
:104EA000102B51EC100B02F019FD41EC100B10BD52
:104EB000000000000000001090ED001A70EE201AB3
:104EC000B4EEE11AF1EE10FA03DD30EE201A80EDB7
:104ED000001A90ED001AF1EE401A71EEA01AB4EE2D
:104EE000E11AF1EE10FA05D2B1EE401A31EE201AB5
:104EF00080ED001A704700002DE9F04788B00746A2
:104F00000C4615461E46DDF840804FF0000A029719
:104F100000200490059008200690200A8DF80000DB
:104F2000E0B28DF80100280A8DF80200E8B28DF891
:104F30000300300A8DF80400F0B28DF805004FEA46
:104F400018208DF8060008F0FF008DF80700D14604
:104F50000F48FCF76CFA00F0FF0A0EE009F10100BF
:104F600000F0FF090A48FCF762FA00F0FF0AB9F105
:104F7000140F02DB08B0BDE8F087BAF1000FEDD0E6
:104F8000044B6A4602A90248FCF74FF800BFF1E75C
:104F900090030020B000002086B000BF4FF0FF3229
:104FA0004021684600F0C2FD9DE8070003AB07C33F
:104FB00003980828F2D11848007828B9174800212A
:104FC000C1600161164881811548B0F90C0000905C
:104FD0001348B0F90C30B0F90C20B0F90C1040F2C5
:104FE000FE20FFF789FF0E48B0F90C0000900C4836
:104FF000B0F90C30B0F90C20B0F90C104FF4FF7080
:10500000FFF77AFF002003460246014600904FF466
:105010000070FFF771FFC1E79400002038440020C2
:105020001048002000B58BB00B4B0FCBCDE9092306
:10503000CDE907011C22084910316846FBF740FA08
:10504000064A07A9064800F011F8064A69460648CC
:1050500000F00CF80BB000BD88810008D9430008AF
:10506000900300203D440008B803002070B50446BA
:105070000E46154631462046FBF7DAFD2046FCF782
:10508000D2FC1149206888420CD1104805600221E9
:105090002046FBF7B5FF2068406940F00200216818
:1050A00048610FE00A49206888420BD10948056031
:1050B00010212046FBF7A4FF2068406940F0100053
:1050C0002168486170BD000000640040A800002015
:1050D00000680040AC00002010B50A4890F8580065
:1050E00020B1012806D002280AD106E00548002197
:1050F000016005E0FEF71CFC02E0FBF7A9FA00BF27
:1051000000BF10BD3844002010B50123DFED3E2A5A
:105110009FED3D2ADFED3C1A9FED3B1ADFED3A0A89
:105120009FED390A002211463848FEF763FC01233F
:10513000DFED352A9FED342ADFED331A9FED321A69
:10514000DFED310A9FED300A002211463048FEF7AC
:1051500051FC0123DFED2C2A9FED2B2ADFED2A1ACB
:105160009FED291ADFED280A9FED270A002211463C
:105170002848FEF73FFC0123DFED232A9FED222A7A
:10518000DFED211A9FED201ADFED1F0A9FED1E0AA9
:10519000002211462048FEF72DFC0123DFED1A2ADC
:1051A0009FED192ADFED181A9FED171ADFED160A89
:1051B0009FED150A002211461848FEF71BFC01233B
:1051C000DFED112A9FED102ADFED0F1A9FED0E1A69
:1051D000DFED0D0A9FED0C0A002211461048FEF784
:1051E00009FCB2EE0E0A0F4880ED020AB2EE0E0A7A
:1051F00080ED030A0C48806920B10C48806908B131
:10520000012010BD0020FCE70000000098440020B1
:1052100024450020B04500203C460020C846002020
:1052200054470020984A0020004400201C440020DD
:1052300008B500F040FC0090FFF766FF00BF01F0EA
:105240005BFA00F093F9FFF747FF01F07FFA0121C5
:10525000684600F01DFCF2E708B500F02CFC009059
:1052600000BF01F049FA0548FBF75AFE01F06EFA5B
:105270000221684600F00CFCF3E70000B8040020AF
:10528000034800210180C16002480180C16070476D
:10529000004400201C440020CA788B7842EA032294
:1052A00012B282804A790B7942EA032212B2C2809A
:1052B000028842804A780B7842EA03220280028800
:1052C0004388D21AB2F5805F03DD8268521E826085
:1052D00008E002884388D21A12F5805F02DA8268F9
:1052E000521C82600388826803EB4232838AD21A9E
:1052F000C260704790ED0B0AD0ED0E0A20EE200A36
:10530000B5EEC00AF1EE10FA53DD90ED0B0AB5EEE2
:10531000C00AF1EE10FA02DD90ED0B0A03E090ED09
:105320000B0AB1EE400AD0ED170AB4EEE00AF1EE36
:1053300010FA00D8704790ED160AD0ED170A70EEFB
:10534000200A90ED0B0AB5EEC00AF1EE10FA02DD6C
:1053500090ED0B0A03E090ED0B0AB1EE400AF4EE7B
:10536000C00AF1EE10FA20DBD0ED160A90ED0B0A20
:10537000B5EEC00AF1EE10FA02DD90ED0B0A03E083
:1053800090ED0B0AB1EE400A30EEC00AD0ED170ADC
:1053900030EE200AD0ED160A80EE201A90ED100AA9
:1053A00021EE000A80ED100A03E09FED030A80ED74
:1053B000100A00BFBEE700000000000090ED0F0AD9
:1053C000D0ED1F0A60EE200A90ED200A90ED1F1A22
:1053D00030EE011A80EE810AD0ED150A90ED201A08
:1053E00060EE810A90ED201AD0ED1F1A31EE211ADD
:1053F000C0EE811A30EE210A80ED0F0A7047704727
:1054000090ED0E0AD0ED100A30EE200A434981EDEE
:10541000000A90ED0D0AD0ED0E0A30EE200AD0ED14
:105420000F0A30EE200A3E4981ED000A91ED000A94
:10543000B5EEC00AF1EE10FA02DD91ED000A04E0CB
:10544000374991ED000AB1EE400AD0ED1B0AF8EEA3
:10545000600AB4EEE00AF1EE10FA0EDD90ED0B0AF0
:10546000D0ED0E0A20EE200AB5EEC00AF1EE10FAD9
:1054700003DD9FED2C0A80ED100A284991ED000A0A
:10548000B5EEC00AF1EE10FA02DD91ED000A04E07B
:10549000224991ED000AB1EE400A016F09B1016F96
:1054A00001E0016F494200EE901AF8EE600AB4EE96
:1054B000E00AF1EE10FA03DD9FED1A0A80ED100A02
:1054C000016F494200EE101AB8EE400A1349D1EDBF
:1054D000000AB4EEE00AF1EE10FA06DB016F494271
:1054E00000EE101AB8EE400A13E090ED1C0AB8EE78
:1054F000400A0A49D1ED000AB4EEE00AF1EE10FAD2
:1055000004D890ED1C0AB8EE400A02E0034991ED80
:10551000000A024981ED000A70470000FC000020EB
:10552000F80000200000000090ED0B0AD0ED0A0A00
:1055300030EE200AB0EE001AC0EE010A90ED010A2A
:1055400020EE800AD0ED1F0A20EE200A80ED100A1E
:10555000704782B0CDE9000121F0004001909DED3F
:10556000000B02B051EC100B704700003C48C068C3
:10557000002810DA3B48C068002802DD3948C068BE
:1055800002E03848C0684042002804DA0220364968
:1055900081F85B0062E03248C068002810DD3148C5
:1055A000C068002802DD2F48C06802E02D48C068AE
:1055B0004042002804DD03202B4981F85B004DE0C8
:1055C0002748C068002820DD2548C06800281CDA6C
:1055D0002448C068002802DD2248C06802E0214853
:1055E000C0684042002810DD1E48C068002802DD67
:1055F0001C48C06802E01B48C0684042002804DA2A
:105600000420194981F85B0028E01548C06800288B
:1056100010DA1448C068002802DD1248C06802E0B1
:105620001048C0684042002804DA00200E4981F882
:105630005B0013E00A48C06800280FDD0948C06815
:10564000002802DD0748C06802E00648C068404202
:10565000002803DD0120044981F85B007047000049
:10566000004400201C4400203844002010B50B48A2
:10567000807B20B1012806D002280AD106E0074825
:105680000021816005E0FEF79BF902E0FBF740F99D
:1056900000BF00BF00F04CF810BD00001048002013
:1056A00010B50123DFED1A2A9FED192ADFED181A34
:1056B0009FED171ADFED160A9FED150A002211461D
:1056C0001448FEF797F90123DFED112A9FED102A08
:1056D000DFED0F1A9FED0E1AF7EE000A9FED0E0A8E
:1056E00042F2107246F660510C48FEF783F99FEDC6
:1056F0000C0A0C4880ED000A9FED0B0A80ED010AB0
:105700000A48806908B1012010BD0020FCE70000B4
:10571000000000003848002000003443C448002046
:105720009A9919BE984A0020A69B443BF447002052
:1057300010B5114890ED020A80ED070A0F48B0F944
:10574000040000EE100AB8EEC00A0B4880ED080A0B
:1057500090ED071AF0EE410A90ED081AB0EE410AFA
:10576000074800F043FABDEEC00A10EE100A00B27E
:105770000149888110BD000010480020F447002036
:10578000C448002008B500F096F90090FFF788FFA4
:1057900000BF00F0B1FF0A48FBF72CFB094880ED81
:1057A000000AFFF763FF40210748006800F08EF908
:1057B00000F0CCFF0121684600F06AF9E9E700003B
:1057C000A00000209C0000200800002000BFEFF394
:1057D000058008B1012070470020FCE72DE9F04169
:1057E00004460026002714B9701EBDE8F0816D48FC
:1057F00021680160217901712078A52875D10521E2
:105800002046FEF793FE012870D1607800F109056B
:1058100029462046FEF76AFE0128F5D10126607967
:10582000A17940EA012740F20321781A8F426AD019
:1058300019DCB7F5817F45D00ADC012F26D0022F75
:1058400030D0032F32D0A7F20110002829D133E045
:10585000B7F5827F3BD0A7F2051090B3FC2846D065
:10586000FD28F3D149E005286ED008DC012850D08E
:10587000022856D0032859D0042812D15AE006280D
:105880006AD007286DD0FE2879D172E0464854F8D6
:10589000071F01606168416021890181A17AE41FCD
:1058A00081726CE04148E179017068E02022E11DDD
:1058B0003F48FAF7C0FD62E03E48D4F807100160A7
:1058C0005DE00BE03C48D4F80710016057E03B482E
:1058D000B4F807100180617A817050E03848B4F85C
:1058E00007100180617A817049E059E048E00D229B
:1058F000E11D3448FAF79FFD41E01022E11D3248D6
:10590000FAF799FD3BE01022E11D3048FAF793FDCC
:1059100035E02F48D4F807100160B4F80B108180EF
:105920002DE02C48B4F80710018028E02A48E179DE
:10593000017024E02948D4F807100160B4F80B1076
:105940008180617B81711AE02548D4F807100160DD
:10595000B4F80B10818012E02248D4F807100160DF
:105960000DE02148D4F807100160B4F80B108180D5
:1059700005E01422E11D1D48FAF75DFD00BF00BFE0
:105980000848B0F80110E01D08448078A52807D128
:105990000449B1F80120E11D1144881CFFF71EFFE6
:1059A000304622E702010020184A002007010020AB
:1059B000234A0020080100200C01002010010020D3
:1059C00013010020434A0020504A0020604A002072
:1059D000160100201C0100201E0100201F010020D4
:1059E000260100202C010020300100206C4A0020FC
:1059F000FCF7C4FBFEF752F8FDF7AAFEFDF70AFE1E
:105A0000FDF7C8FDFDF7E6FDFDF704FFFDF71EFFFE
:105A1000FDF756FFFDF770FFFDF736FFFEF79CFC24
:105A2000FFF700FBA820FBF70BFA4FF4FA70FCF726
:105A30007DFAFDF733FE00F039F800BFFEE70146BE
:105A40000020842901D0CA1C104470470020084956
:105A500008700849087000BF0648007810B900F0C7
:105A6000D9FD01E000F0B2FD0A2000F005F8F3E7EF
:105A7000940000209500002070B5044625460DB125
:105A8000294600E00121084600F020FF002070BDFB
:105A900070B505460C4626460EB1304600E00120A2
:105AA0000146284600F040FF002070BD10B500F010
:105AB000A5FF002010BD10B5FFF788FE10B101F062
:105AC000F5FA10BD01F0ECFAFBE700003EB5044624
:105AD0000D46002002900190FFF778FEB8B102A8B1
