:020000040800F2
:10000000B8500020E9020008ED3700088B330008E3
:10001000E937000865090008D14100080000000028
:10002000000000000000000000000000290200089D
:10003000810D0008000000008502000865380008F6
:100040000303000803030008030300080303000878
:100050000303000803030008030300080303000868
:100060000303000803030008030300080303000858
:100070000303000803030008030300080303000848
:10008000590B0008690B0008030300084D0A00081B
:100090001D0A00082D0A00083D0A00080303000895
:1000A0000303000861390008030300080303000884
:1000B0000303000803030008030300080303000808
:1000C00003030008030300080303000803030008F8
:1000D0000303000899400008AD400008030300082E
:1000E00003030008030300080303000803030008D8
:1000F00003030008030300080303000803030008C8
:1001000003030008030300080303000803030008B7
:1001100003030008030300080303000803030008A7
:100120000303000803030008790B00080303000819
:100130000303000803030008030300080303000887
:100140000303000803030008030300080303000877
:100150000303000803030008890B000803030008D9
:100160000303000803030008030300080303000857
:100170000303000803030008030300080000000055
:10018000030300080303000800F002F800F03CF845
:100190000AA090E8000C82448344AAF10107DA45E2
:1001A00001D100F031F8AFF2090EBAE80F0013F0F8
:1001B000010F18BFFB1A43F001031847F86900004C
:1001C000186A0000103A24BF78C878C1FAD85207DC
:1001D00024BF30C830C144BF04680C6070470000C1
:1001E0000023002400250026103A28BF78C1FBD840
:1001F000520728BF30C148BF0B6070471FB506F0DB
:10020000B1FA1FBD10B510BD00F0CCF91146FFF7D3
:10021000F5FF04F045FE00F0EAF903B4FFF7F2FF42
:1002200003BC00F0EDF900002C4B19680868B0E839
:10023000F04F80F30988BFF36F8F4FF0000080F319
:10024000118870470000000008480068006880F3CB
:1002500008884FF0000080F3148862B661B6BFF3DF
:100260004F8FBFF36F8F00DF00BF00BF08ED00E0CE
:10027000DFF80C00016841F470010160704700BFB5
:1002800088ED00E0EFF30980BFF36F8F134B1A681E
:100290001EF0100F08BF20ED108A20E9F04F10600B
:1002A00009B44FF0500080F31188BFF34F8FBFF3B4
:1002B0006F8F05F0E3FD4FF0000080F3118809BC5B
:1002C00019680868B0E8F04F1EF0100F08BFB0ECD6
:1002D000108A80F30988BFF36F8F70472C000020CD
:1002E000EFF3058070470000094880470948004740
:1002F000FEE7FEE7FEE7FEE7FEE7FEE7FEE7FEE7D6
:10030000FEE7FEE704480549054A064B7047000032
:100310004D39000889010008B84A0020B850002073
:10032000B84C0020B84C002053EA020C00F0698061
:100330002DE9F04B4FF00006002B1FBFB3FA83F5F9
:1003400003FA05F424FA05F65E4012BF1643B2FA2A
:1003500082F502FA05F4C5F120051EBF22FA05FC5C
:1003600044EA0C04203556EA044C4FEA144418BF02
:10037000641C4FF000084FF00009904271EB030C31
:1003800039D3002919BFB1FA81F701FA07F6B0FA9B
:1003900080F700FA07F6C7F120071EBF20FA07FC16
:1003A00046EA0C062037B6FBF4FCA7EB0507103F26
:1003B00007F01F0BCBF120060CFA0BFB2CFA06F60C
:1003C00044BFB3460026202FA4BF5E464FF0000B6B
:1003D0005BEA060C08BF4FF0010B19EB0B09ABFBF6
:1003E000027C48EB0608C01B06FB02CC0BFB03CCCF
:1003F00071EB0C01C1E70B46024641464846BDE899
:10040000F08B13B54FF000004FF00001AFF3008008
:10041000BDE81C407047032A40F2308010F0030C06
:1004200000F0158011F8013BBCF1020F624498BF47
:1004300011F801CB00F8013B38BF11F8013BA2F1E4
:10044000040298BF00F801CB38BF00F8013B11F05F
:10045000030300F02580083AC0F0088051F8043BFF
:10046000083A51F804CBA0E80810F5E7121D5CBF6C
:1004700051F8043B40F8043BAFF30080D20724BF9F
:1004800011F8013B11F801CB48BF11F8012B24BF33
:1004900000F8013B00F801CB48BF00F8012B704782
:1004A00010B5203AC0F00B80B1E81850203AA0E80F
:1004B0001850B1E81850A0E81850BFF4F5AF5FEA43
:1004C000027C24BFB1E81850A0E8185044BF18C9F6
:1004D00018C0BDE810405FEA827C24BF51F8043B9D
:1004E00040F8043B08BF7047D20728BF31F8023BF1
:1004F00048BF11F8012B28BF20F8023B48BF00F885
:10050000012B70474FF000020429C0F0128010F058
:10051000030C00F01B80CCF1040CBCF1020F18BFDF
:1005200000F8012BA8BF20F8022BA1EB0C0100F072
:100530000DB85FEAC17C24BF00F8012B00F8012B45
:1005400048BF00F8012B70474FF0000200B513467A
:1005500094469646203922BFA0E80C50A0E80C50E3
:10056000B1F12001BFF4F7AF090728BFA0E80C5094
:1005700048BF0CC05DF804EB890028BF40F8042B8D
:1005800008BF704748BF20F8022B11F0804F18BFFA
:1005900000F8012B7047704770477047004870475C
:1005A000544A00207546FFF7F9FFAE46050069463C
:1005B000534620F00700854618B020B5FFF7A2FE8D
:1005C000BDE820404FF000064FF000074FF0000854
:1005D0004FF0000B21F00701AC46ACE8C009ACE8D5
:1005E000C009ACE8C009ACE8C0098D46704710B539
:1005F0000446AFF300802046BDE81040FFF70DBE73
:1006000001491820ABBEFEE726000200704700003B
:1006100010B52DED028BA648406800EE100ABCEE26
:10062000C00A10EE100A84B2A24890F85C000128BB
:100630007DD1502C15D006DC322C09D03C2C0AD0B0
:10064000462C17D10AE0642C0ED0782C12D10EE083
:100650009FED998A0FE09FED988A0CE09FED968AB6
:1006600009E09FED958A06E09FED938A03E09FEDF8
:10067000928A00E000BF00BF8E4890F85A0040B157
:10068000012807D1BFEE000A28EE000AB0EE408A2A
:1006900000E000BF00BF874890F85B00052874D2D7
:1006A000DFE800F0B4D903376C00824890F85A00B4
:1006B00001281CD1DFED801AB0EE481ADFED7F0A69
:1006C000B0EE000A7E4805F0D1F87D4890ED010AB1
:1006D000784880ED000A90ED000AB5EEC00AF1EE10
:1006E00010FA15D10020734981F85A0010E0DFEDAF
:1006F000721AB0EE481ADFED730AB0EE000A7048C5
:1007000005F0B4F86E4890ED010A6A4880ED000AE1
:1007100000BF684890F85A00F0B9F0EE481A9FED13
:10072000661ADFED690AB0EE000A654800E0B9E03C
:1007300005F09CF8624890ED010A5E4880ED000AE1
:1007400090ED000AB5EEC00AF1EE10FA15D10120C5
:10075000584981F85A0010E0F1EE481A9FED561AF8
:10076000DFED5A0AB0EE000A554805F07FF854480C
:1007700090ED010A4F4880ED000A00BF4D4890F807
:100780005A0018B1012840D11EE089E0494890ED97
:10079000000AB4EEC80AF1EE10FA11D2DFED461AE3
:1007A000B0EE481ADFED470AB0EE000A444805F003
:1007B0005DF8434890ED010A3E4880ED000A02E0F2
:1007C0003C4880ED008A00BF3A4890ED000AF1EE07
:1007D000480AB4EEE00AF1EE10FA11DDF1EE481A23
:1007E0009FED351ADFED390AB0EE000A344805F006
:1007F0003DF8334890ED010A2E4880ED000A04E0F0
:10080000B1EE480A2B4880ED000A00BF294890F855
:100810005A00012809D19FED280A264880ED000AD8
:100820000020244981F85A0014E0224890F85A0028
:1008300080B9DFED211AB0EE481ADFED220AB0EEE2
:10084000000A1F4805F012F81D4890ED010A1948EA
:1008500080ED000A00BF174890F85A0048B99FED94
:10086000160A144880ED000A0120124981F85A0046
:1008700015E0104890F85A00012810D1DFED0E1A4B
:10088000B0EE481ADFED0F0AB0EE000A0C4804F093
:10089000EDFF0B4890ED010A064880ED000A00BF0D
:1008A00000BF01E005F030FBBDEC028B10BD000085
:1008B000F8490020E8430020000000000000484301
:1008C000904700200000C842000048C30000C8C292
:1008D0001B488088B0F5967F1FD008DC642810D0B4
:1008E000962811D0C82812D0FA2822D112E0B0F5EB
:1008F000AF7F15D0B0F5FA7F15D0B0F5167F18D1BF
:1009000014E09FED100A15E0B3EE090A12E09FED26
:100910000E0A0FE09FED0D0A0CE09FED0D0A09E0B5
:100920009FED0C0A06E09FED0C0A03E09FED0B0A19
:1009300000E000BF00BF0A4880ED000A70470000D9
:10094000EB4900200000000000008C420000F04253
:10095000000020430000484300005C4300007F4348
:10096000C047002000BFFEE770B506460C4615469E
:100970002846E91705EB917189106161002020611B
:10098000012020622146304600F0F2FA70BD2DE9C8
:10099000F04107460E461546002436E02046E11792
:1009A00004EB91718910A4EB810131B1012909D0C7
:1009B00002290CD0032919D10EE055F8240040017A
:1009C000306013E055F82400400170600EE055F8E7
:1009D00024004001B06009E055F824004001F060B7
:1009E000224631463846FFF7BFFF00BF00BF601CFC
:1009F00055F8200040F6FF71884204D12246314666
:100A00003846FFF7B1FF601CC4B255F8240040F629
:100A1000FF718842C2D1BDE8F081000010B50248E4
:100A200000F01EFC10BD00004003002010B502487D
:100A300000F016FC10BD00004003002010B5024875
:100A400000F00EFC10BD00004003002010B502486D
:100A500000F006FC10BD00004003002070B5064603
:100A60000C4615462846E91705EB917189100E31A1
:100A700061610120206120622146304600F078FA51
:100A800070BD2DE9F04107460E461546002436E0BC
:100A90002046E11704EB91718910A4EB810131B17B
:100AA000012909D002290CD0032919D10EE055F8EB
:100AB00024004001306013E055F8240040017060CC
:100AC0000EE055F824004001B06009E055F824001C
:100AD0004001F060224631463846FFF7BFFF00BFB5
:100AE00000BF601C55F8200040F6FF71884204D119
:100AF000224631463846FFF7B1FF601CC4B255F8B4
:100B0000240040F6FF718842C2D1BDE8F0810000A8
:100B100030B58BB004460D460120079000200890A8
:100B20000E200A900A492068884205D12A4601A968
:100B30002046FFF72CFF08E006492068884204D1D0
:100B40002A4601A92046FFF79CFF0BB030BD0000EC
:100B5000006400400068004010B5024800F004FF47
:100B600010BD0000B805002010B5024800F0FCFEE2
:100B700010BD00001806002010B5024800F0F4FE79
:100B800010BD0000F804002010B5024800F0ECFE93
:100B900010BD0000580500200146087810381823C1
:100BA000B0FBF3F20848805CC865032A05D90868E1
:100BB0006FF30900001D886503E008686FF3090002
:100BC0008865886D7047000018680008014600209D
:100BD0008A6A8B69CBB932B1012A0DD0022A03D0BF
:100BE000032A10D10EE000BFCB6A03F08073B3F18B
:100BF000807F00D1012007E0CB6AB3F1C07F00D134
:100C0000012001E000E000BF34E08B69B3F5005F34
:100C10001AD132B1012A07D0022A03D0032A11D1F6
:100C20000AE000BF01200EE0CB6A03F08073B3F14D
:100C3000807F00D1012006E0CB6AB3F1C07F00D1F4
:100C4000012000E000BF15E032B1012A05D0022AE0
:100C500004D0032A0CD103E000BF00BF012008E04C
:100C6000CB6A03F08073B3F1807F00D1012000E0F4
:100C700000BF00BF704730B50468246824F48024A6
:100C800005682C60046863608468402C04D10468A3
:100C9000A2600468E16003E00468A1600468E260A7
:100CA00030BD000010B501460A2900DC09B900205A
:100CB00010BD042202EB8102D0B20023074C04F8DD
:100CC00021308A00521CA35480238A00921CA35412
:100CD0007F238A00D21CA35400BFE9E71C490020EF
:100CE00010B52DED020B0C4890F82D00401C0A4960
:100CF00081F82D00084690F82D000A2800DD1CBD63
:100D0000054890F82D00401E8006020E02496846F4
:100D100000F03AF800BFF2E71C49002010B5044685
:100D200000F026F8114991F82D00FFF7BBFF0F499D
:100D300081F82C0000200CE000BF2168096801F058
:100D400040010029F9D00949095C22685160411C21
:100D5000C8B2064991F82C108142EDDC002003490D
:100D600081F82D0081F82C0010BD00001C490020E6
:100D700010B50248007803F061FA10BD970000201A
:100D8000704772B600BFFEE730B503461C788C543E
:100D90005D78541C0D559D78941C0D55DD78D41C40
:100DA0000D5530BD30B5034613B94FF6FF7030BD59
:100DB00009E013F8014B82EA0400C0B2054D35F892
:100DC000100080EA2222081EA1F10101F1D1104693
:100DD000EDE700003A69000830B5034605E013F876
:100DE000010B80EA02040448025D081EA1F101051E
:100DF000A9B2F4D1104630BD3968000810B50246DA
:100E000092F82030012B01D0022B06D110684069E6
:100E1000084314686061002010BD506A40F48020CF
:100E200050620120F8E7F0B504460D461E4694F8DE
:100E3000207020688368A86800B900E000BF012F17
:100E400001D0022F7DD103F0806030B903F0006043
:100E500018B903F0805000287ED0C3F3016101204F
:100E600088403060A86860B9B5F800C0E86840EA1A
:100E70004C5C206800F5C07000EB0110C0F800C0A9
:100E80000FE0D5E901C040EACC00D5F80CC040EA3B
:100E90000C00D4F800C00CF5C07C0CEB011CCCF8A5
:100EA0000000D5F810C0206800F5C07000EB0110FC
:100EB000C0F804C0287D01280ED1206800F5C0705C
:100EC00000EB0110406840F4807C206800F5C070A1
:100ED00000EB0110C0F804C0D079000692F806C0FB
:100EE00040EA0C4092F805C040EA0C2092F804C099
:100EF00040EA0C00D4F800C00CF5C07C0CEB011CDF
:100F0000CCF80C00D078000692F802C040EA0C4001
:100F100092F801C040EA0C2092F800C040EA0C00B0
:100F2000D4F800C00CF5C07C0CEB011CCCF8080018
:100F3000206800F5C07000EB0110006840F0010C63
:100F400001E00FE008E0206800F5C07000EB011040
:100F5000C0F800C00020F0BD606A40F4001060627C
:100F60000120F8E7606A40F4802060620120F2E727
:100F7000F0B504460A46216894F82050012D01D0AE
:100F8000022D7ED1424901F50071086840F0010050
:100F90000860086820F47C5008600868566A40EAD7
:100FA00006200860107D00F01F06012000FA06F3FD
:100FB000C8699843C861A1F50071D069C8B9D1F872
:100FC0000C029843C1F80C02908880B2968940EADE
:100FD000064601F51070576940F83760108880B2F6
:100FE000168940EA064601F51070576900EBC70004
:100FF0004660D069012819D1D1F80C021843C1F814
:101000000C02908880B2168840EA064601F51070FE
:10101000576940F83760908980B2168940EA0646E1
:1010200001F51070576900EBC7004660906928B958
:10103000D1F804029843C1F8040204E0D1F8040294
:101040001843C1F80402106928B9D1F81402984372
:10105000C1F8140204E0D1F814021843C1F81402D4
:10106000106A012804D1D1F81C021843C1F81C02EF
:10107000D1F8000220F00100C1F800020020F0BD0C
:10108000FFE7606A40F4802060620120F7E700001B
:1010900000640040704770B5044694F82050012D5C
:1010A00001D0022D7DD151B92068C06800F0030045
:1010B00080B9606A40F400106062012070BD206851
:1010C000006900F0030028B9606A40F40010606213
:1010D0000120F3E7206800F5D87000EB01100068EC
:1010E00000F004009060906840B9206800F5D87066
:1010F00000EB01100068400D106007E0206800F56B
:10110000D87000EB01100068C0085060206800F53E
:10111000D87000EB0110006800F00200D060206879
:1011200000F5D87000EB0110406800F00F000828AF
:1011300002D30820106108E0206800F5D87000EBA9
:101140000110406800F00F001061206800F5D870B1
:1011500000EB0110406800F47F40000A90612068B5
:1011600000F5D87000EB01104068000C5061206859
:1011700000F5D87000EB011080681870206800F549
:10118000D87000EB0110806800F47F40000A5870AE
:10119000206800F5D87000EB0110806800F47F0033
:1011A00000E03CE0000C9870206800F5D87000EB7F
:1011B00001108068000ED870206800F5D87000EB30
:1011C0000110C0681871206800F5D87000EB01109C
:1011D000C06800F47F40000A5871206800F5D8709C
:1011E00000EB0110C06800F47F00000C98712068CB
:1011F00000F5D87000EB0110C068000ED87131B94D
:101200002068C06840F020002668F06005E0206893
:10121000006940F020002668306100204EE7606AD7
:1012200040F480206062012048E70146002091F8E8
:101230002020012A01D0022A11D10B689B6803F0FB
:10124000806303B1401C0B689B6803F0006303B12B
:10125000401C0B689B6803F0805303B1401C70472F
:101260002DE9F05F04460025206846692068D0F823
:101270000490206887682068D0F80CA02068D0F817
:1012800010B02068D0F8188006F00100002855D072
:1012900007F00100C0B101202168886007F002005A
:1012A00018B1204600F0EDFA0EE007F0040010B18E
:1012B00045F4006508E007F0080010B145F48055DA
:1012C00002E0204600F0DCFA07F48070C8B14FF469
:1012D00080702168886007F4007018B1204600F023
:1012E000D2FA0EE007F4806010B145F4005508E032
:1012F00007F4006010B145F4804502E0204600F09C
:10130000C1FA07F48030C8B14FF48030216888609A
:1013100007F4003018B1204600F0B7FA0EE007F4E9
:10132000802010B145F4004508E007F4002010B11A
:1013300045F4803502E0204600F0A6FA06F00800E9
:1013400038B10AF0100020B145F400751020216872
:10135000C86006F0040040B10AF0080028B1082077
:101360002168C860204600F01FFA06F0020038B17C
:101370002068C06800F0030010B1204600F016FAA3
:1013800006F0400038B10BF0100020B145F4806544
:1013900010202168086106F0200040B10BF0080021
:1013A00028B1082021680861204600F01BFA06F0E9
:1013B000100038B12068006900F0030010B1204629
:1013C00000F012FA06F4003040B109F0100028B124
:1013D000102021684860204600F022FA06F4803090
:1013E00040B109F0080028B1082021684860204673
:1013F00000F04CFA06F4004088B309F0040078B31A
:1014000006F4807020B108F0010008B145F0010534
:1014100006F4007020B108F0020008B145F00205A2
:1014200006F4806020B108F0040008B145F004051E
:1014300006F40060A0B108F0700088B108F07000F8
:10144000402817D006DC10280BD020280CD03028DC
:1014500019D10CE0502810D0602814D110E01DE004
:1014600019E045F008050FE045F010050CE045F0E7
:10147000200509E045F0400506E045F0800503E061
:1014800045F4807500E000BF00BF2068806920F04F
:101490007000216888610420216848602DB1606A6D
:1014A000284360622046FFF7F5FDBDE8F09F70B568
:1014B00004460CB9012070BD94F8200010B92046F4
:1014C00000F0B0F82068006840F001002168086072
:1014D00000F040FD05460DE000F03CFD401B0A28F1
:1014E00008D9606A40F400306062052084F820006A
:1014F0000120E0E72068406800F001000028EBD000
:101500002068006820F002002168086000F022FDD9
:1015100005460DE000F01EFD401B0A2808D9606A50
:1015200040F400306062052084F820000120C2E70A
:101530002068406800F002000028EBD1207E0128DE
:1015400006D12068006840F080002168086005E04E
:101550002068006820F0800021680860607E012813
:1015600006D12068006840F040002168086005E06E
:101570002068006820F0400021680860A07E0128F3
:1015800006D12068006840F020002168086005E06E
:101590002068006820F0200021680860E07E0128B3
:1015A00006D12068006820F010002168086005E07E
:1015B0002068006840F0100021680860207F012842
:1015C00006D12068006840F008002168086005E046
:1015D0002068006820F0080021680860607F01280A
:1015E00006D12068006840F004002168086005E02A
:1015F0002068006820F0040021680860D4E9020136
:10160000084321690843616908436168491E08432A
:101610002168C86100206062012084F82000002059
:1016200049E7000010B586B00446142101A8FEF772
:101630008BFF57492068884259D156480068401CA2
:10164000544908600846006801280FD100BF0020F7
:1016500000905148006840F000704F49086008460B
:10166000006800F00070009000BF00BF00BF0020C5
:10167000009049481038006840F008004649103989
:1016800008600846006800F00800009000BF00BF36
:101690000320019002200290002003900320049078
:1016A0000920059001A93D4800F052FB00220521C8
:1016B000132000F00DFD132000F0F6FC00220521A0
:1016C000142000F005FD142000F0EEFC002205219E
:1016D000152000F0FDFC152000F0E6FC002205219D
:1016E000162000F0F5FC162000F0DEFC4DE02C4941
:1016F0002068884249D100BF002000902648006839
:1017000040F08060244908600846006800F080606E
:10171000009000BF00BF1F480068401C1D490860C2
:101720000846006801280FD100BF002000901A4829
:10173000006840F00070184908600846006800F032
:101740000070009000BF00BF00BF00200090124852
:101750001038006840F002000F4910390860084650
:10176000006800F00200009000BF00BF4FF440503E
:101770000190022002900020039003200490092091
:10178000059001A9074800F0E3FA06B010BD00007B
:10179000006400401800002040380240000C024065
:1017A00000680040000402407047000010B5044685
:1017B0000949206888420DD1084BA3F11C02002181
:1017C0002046FFF768FC05491C3908681C31044AAB
:1017D0001268904710BD00000064004014490020CA
:1017E000980000207047000010B5044609492068A1
:1017F00088420DD1084BA3F11C0201212046FFF7BE
:101800004AFC05491C3908681C31044A1268904793
:1018100010BD000000680040144900209C0000201A
:10182000704770B5044694F82000012822D10220A8
:1018300084F820002068006820F00100216808601A
:1018400000F088FB05460DE000F084FB401B0A28F1
:1018500008D9606A40F400306062052084F82000F6
:10186000012070BD2068406800F001000028EBD125
:101870006062F6E7606A40F4002060620120F0E7F1
:10188000704770477047704770477047704770B532
:101890000446A56D00F05EFB064694F8350002286C
:1018A00008D08020606500BF002084F8340000BFAD
:1018B000012070BD2068006820F0160021680860D3
:1018C0002068406920F0800021684861206C08B9D8
:1018D000A06C28B12068006820F00800216808602A
:1018E0002068006820F001002168086010E000F026
:1018F00031FB801B05280BD920206065032084F86C
:10190000350000BF002084F8340000BF0320D0E77A
:101910002068006800F001000028E8D194F85C100D
:101920003F208840A860012084F8350000BF0020D7
:1019300084F8340000BF00BFBBE7014691F83500D2
:10194000022803D08020486501207047052081F8D7
:1019500035000868006820F001000A681060002067
:10196000F3E70146486D7047F8B504460020009043
:101970008C4800684FF41651B0FBF1F7A56D2E6846
:1019800094F85C1008208840304098B120680068C6
:1019900000F0040070B12068006820F004002168A5
:1019A000086094F85C1008208840A860606D40F0E2
:1019B0000100606594F85C1001208840304068B1F7
:1019C0002068406900F0800040B194F85C1001206C
:1019D0008840A860606D40F00200606594F85C107B
:1019E00004208840304068B12068006800F00200A0
:1019F00040B194F85C1004208840A860606D40F00D
:101A00000400606594F85C1010208840304078B382
:101A10002068006800F0080050B394F85C101020B3
:101A20008840A8602068006800F4802080B12068A9
:101A3000006800F4002028B9206CC8B12046216C51
:101A4000884715E0A06C98B12046A16C88470FE04C
:101A50002068006800F4807028B92068006820F0D1
:101A6000080021680860206C10B12046216C88476E
:101A700094F85C10202088403040002865D0206811
:101A8000006800F0100000285FD094F85C1020205F
:101A90008840A86094F83500052828D1206800689F
:101AA00020F01600216808602068406920F080005E
:101AB00021684861206C08B9A06C28B120680068D2
:101AC00020F008002168086094F85C103F208840EE
:101AD000A860012084F8350000BF002084F834009D
:101AE00000BF206D10B12046216D8847F8BD2068E9
:101AF000006800F4802080B12068006800F40020B5
:101B000028B9606C10B12046616C88471DE0E06B1D
:101B1000D8B12046E16B884717E02068006800F4E0
:101B2000807068B92068006820F0100021680860A3
:101B3000012084F8350000BF002084F8340000BF85
:101B4000E06B10B12046E16B8847606D38B3606D83
:101B500000F00100F0B1052084F83500206800682D
:101B600020F001002168086000BF0098401C009030
:101B7000B84200D905E02068006800F001000028A4
:101B8000F3D100BF012084F8350000BF002084F8A5
:101B9000340000BFE06C10B12046E16C884700BF04
:101BA000A4E70000280000202DE9F04104460025AC
:101BB00000F0D0F9074614B90120BDE8F081606A51
:101BC00000B100BF022084F8350000BF002084F877
:101BD000340000BF2068006820F001002168086020
:101BE0000AE000F0B7F9C01B052805D92020606580
:101BF000032084F83500E0E72068006800F0010069
:101C00000028EED12068056821480540D4E901018B
:101C10000843E16808432169084361690843A169F1
:101C20000843E1690843216A08430543606A0428C0
:101C300003D1D4E90B0108430543206805602068FF
:101C4000456925F00705606A0543606A04280DD1DF
:101C5000A06A0543E06A48B12046FEF7B7FF28B105
:101C600040206065012084F83500A6E720684561C2
:101C70002046FEF791FF064694F85C103F2088400E
:101C8000B06000206065012084F83500002094E7F2
:101C90003F8010F02DE9F04704460D4616461F46DA
:101CA0004FF00008D4F8589000BF94F83400012891
:101CB00002D10220BDE8F087012084F8340000BF83
:101CC00094F83500012825D1022084F83500002041
:101CD00060653B46324629462046FEF7CCFF94F825
:101CE0005C103F208840C9F808002068006840F078
:101CF000160021680860206C28B12068006840F058
:101D00000800216808602068006840F00100216830
:101D1000086006E000BF002084F8340000BF4FF0E8
:101D200002084046C6E7000070B5044600F012F90C
:101D300006462546681C10B104480078054400BFDB
:101D400000F008F9801BA842FAD370BD24000020DF
:101D5000F8B502460B460025002400200021D6E0FD
:101D6000012606FA01F51E6806EA0504AC4274D1A4
:101D70001E7906F00306012E04D01E7906F0030634
:101D8000022E13D190684F000326BE40B0434F008F
:101D9000DE68BE4030439060506801268E40B043FC
:101DA0001E79C6F300168E40304350601E7906F04F
:101DB0000306032E09D0D0684F000326BE40B0436F
:101DC0004F009E68BE403043D0601E7906F0030687
:101DD000022E13D1CF0802F1200656F827004E0735
:101DE000F70E0F26BE40B0434F07FF0E1E69BE40E0
:101DF0003043CF0802F1200646F8270010684F0054
:101E00000326BE40B0431E7906F003064F00BE40D5
:101E1000304310605E6806F44036002E76D000BF76
:101E2000002600963C4E366846F480463A4F3E60A7
:101E30003E46366806F48046009600BF00BF374E27
:101E40008F0856F827008E07370F0F26BE40B04385
:101E5000334EB24202D1002624E057E0314EB24266
:101E600001D101261EE0304EB24201D1022619E016
:101E70002E4EB24201D1032614E02D4EB24201D1C2
:101E800004260FE02B4EB24201D105260AE02A4E6D
:101E9000B24201D1062605E0284EB24201D1072602
:101EA00000E008268F073F0FBE4030431B4E8F08CF
:101EB00046F82700224E3068A0435E6806F480167C
:101EC00006B120431E4E3060361D3068A0435E6868
:101ED00006F4001606B12043194E361D3060184E28
:101EE000361F3068A0435E6806F4003606B1204312
:101EF000134E361F3060361F3068A0435E6806F40C
:101F0000803606B120430E4E083E3060491C102931
:101F1000FFF426AFF8BD0000443802400838014005
:101F2000000002400004024000080240000C024091
:101F3000001002400014024000180240001C024041
:101F4000083C0140024613690B400BB1012000E040
:101F50000020704701480068704700001C00002006
:101F6000034800680349097808440149086070473C
:101F70001C0000202400002010B50D48006840F42B
:101F800000700B4908600846006840F480600860F3
:101F90000846006840F480700860032000F0D6F81E
:101FA0000F2000F007F800F055F8002010BD0000E9
:101FB000003C0240F0B587B004460026002700BF71
:101FC000002000901E48006840F400301C49086062
:101FD0000846006800F40030009000BF00BF01A96F
:101FE00002A800F089F900F0BFF946001548B6FBD9
:101FF000F0F0471E14481549086040F2E7311348D5
:10200000C1604760002101618160816100F062FC74
:10201000054695B90D4800F091FC05466DB91920AB
:1020200000F042F8102C07D200222146192000F0BF
:102030004FF80748046000E00125284607B0F0BDCE
:102040004438024040420F0000440140780600201E
:102050002000002008B500BF002000901148006853
:1020600040F480400F4908600846006800F4804052
:10207000009000BF00BF00BF00200090081F006854
:1020800040F08050091F08600846006800F080504A
:10209000009000BF00BF00220F21901E00F018F832
:1020A00008BD0000443802400146084600280DDB08
:1020B00000BF00BF00F01F0301229A4043099B00AC
:1020C00003F1E023C3F8002100BF00BF00BF704749
:1020D0002DE9F05F80460D461646002702F03CF9D8
:1020E000074639462A46334601F00700C0F1070A81
:1020F000BAF1040F02D94FF0040A01E0C0F1070A57
:10210000D14600F1040ABAF1070F02D24FF0000ADB
:1021100001E0A0F1030AD4464FF0010A0AFA09FAD5
:10212000AAF1010A0AEA020A0AFA0CFA4FF0010BB4
:102130000BFA0CFBABF1010B0BEA030B4AEA0B04A5
:102140002146404602F010F9BDE8F09F00BF00F0C4
:102150000702064B19684FF6FF031940044B0B4367
:1021600043EA0221014B196000BF70470CED00E00B
:102170000000FA0570B504460D460CB9012070BD8B
:102180005848006800F00700A84209D255490D7070
:102190000846006800F00700A84201D00120EEE7E1
:1021A000207800F0020002281DD1207800F0040001
:1021B000042805D14C48006840F4E0504A490860C2
:1021C000207800F00800082805D14748006840F44E
:1021D0006040454908604448006820F0F000A1686C
:1021E000084341490860207800F00100A8B3606806
:1021F000012807D13C4808380068C0F34040B8B90E
:102200000120BCE76068022802D06068032807D17B
:10221000354808380068C0F3406048B90120AEE78F
:10222000314808380068C0F3400008B90120A6E72B
:102230002D48006820F00300616808432A490860BF
:10224000FFF788FE064609E0FFF784FE801B41F297
:102250008831884202D9032091E707E022480068CC
:1022600000F00C006168B0EB810FEDD11D480068F3
:1022700000F00700A84209D91A490D700846006805
:1022800000F00700A84201D0012078E7207800F094
:102290000400042807D11448006820F4E050E168E5
:1022A000084311490860207800F00800082808D188
:1022B0000D48006820F46040216940EAC1000A49E5
:1022C000086000F061F808490968C1F30311074A82
:1022D000515CC8400649086006480068FFF76AFE7E
:1022E00000204CE7003C024008380240206800080B
:1022F00028000020200000200F2202600D4A1268F2
:1023000002F0030242600B4A126802F0F00282609F
:10231000084A126802F4E052C260064A126802F4E7
:102320006042D2080261044A126802F007020A60A1
:102330007047000008380240003C02400148006835
:10234000704700002800002000B5FFF7F7FF0449A0
:102350000968C1F38221034A515CC84000BD0000F6
:10236000083802403068000800B5FFF7E7FF04496D
:102370000968C1F34231034A515CC84000BD000006
:1023800008380240306800082DE9F0470024002595
:102390000026A1462548006800F00C0020B1042862
:1023A00005D008283AD105E0DFF8849039E0DFF85D
:1023B000809036E01D48001F006800F03F041B4875
:1023C000001F006800F4800078B119481749091F00
:1023D0000968C1F38811A0FB017001462246002361
:1023E0003846FDF7A1FF05460EE011480F49091FC9
:1023F0000968C1F38811A0FB017001462246002341
:102400003846FDF791FF05460848001F0068C0F3F5
:102410000140401C4600B5FBF6F902E0DFF81090E1
:1024200000BF00BF4846BDE8F08700000838024002
:102430000024F400F8B504460CB90120F8BD20785A
:1024400000F00100002874D0F948006800F00C008A
:1024500004280DD0F648006800F00C00082813D1BD
:10246000F348001F006800F48000B0F5800F0BD126
:10247000EF4808380068C0F34040002859D0606831
:10248000002856D10120D9E700BF6068B0F5803F31
:1024900008D1E7480838006840F48030E44908393A
:1024A00008601EE06068B0F5A02F0DD1E048083844
:1024B000006840F48020DE4908390860084600685A
:1024C00040F4803008600CE0D9480838006820F4F7
:1024D0008030D749083908600846006820F4802019
:1024E000086000BF606890B1FFF734FD054606E064
:1024F000FFF730FD401B642801D903209EE7CC483C
:1025000008380068C0F340400028F1D011E0FFF720
:1025100021FD054606E0FFF71DFD401B642801D99B
:1025200003208BE7C24808380068C0F34040002809
:10253000F1D1207800F0020002285FD1BC48006889
:1025400000F00C0058B1BA48006800F00C000828F0
:102550001CD1B748001F006800F48000B0B9B4482F
:1025600008380068C0F3400020B1E068012801D0BD
:10257000012063E7AE480838006820F0F8002169C0
:1025800040EAC100AA490839086037E0E06800B3B2
:102590000120A8490860FFF7DDFC054606E0FFF7CB
:1025A000D9FC401B022801D9032047E7A04808387E
:1025B0000068C0F340000028F1D09D48083800684A
:1025C00020F0F800216940EAC10099490839086003
:1025D00014E0002097490860FFF7BCFC054606E0C0
:1025E000FFF7B8FC401B022801D9032026E79048DA
:1025F00008380068C0F340000028F1D1207800F0CE
:10260000080008282CD16069A8B101208A49086017
:10261000FFF7A0FC054606E0FFF79CFC401B0228E4
:1026200001D903200AE782486C300068C0F34000FB
:102630000028F1D014E000207F490860FFF78AFCF1
:10264000054606E0FFF786FC401B022801D903205F
:10265000F4E677486C300068C0F340000028F1D100
:10266000207800F00400042870D10027704838302A
:10267000006800F0805090B900BF002000906C48C6
:102680003830006840F080506949383108600846A9
:10269000006800F08050009000BF00BF012767482D
:1026A000006800F48070B0B96448006840F480703D
:1026B00062490860FFF74EFC054606E0FFF74AFC5A
:1026C000401B022801D90320B8E65C48006800F4EA
:1026D00080700028F2D000BFA068012808D15448BB
:1026E0006830006840F001005149683108601DE021
:1026F000A06805280DD14E486830006840F00400FD
:102700004B49683108600846006840F001000860E5
:102710000CE047486830006820F001004449683107
:1027200008600846006820F00400086000BFA06848
:10273000A8B1FFF70FFC054609E0FFF70BFC401BB3
:1027400041F28831884202D9032077E626E03848F2
:1027500068300068C0F340000028EED013E0FFF7B7
:10276000F9FB054608E0FFF7F5FB401B41F2883115
:10277000884201D9032061E62D4868300068C0F323
:1027800040000028EFD1012F07D1294838300068D8
:1027900020F0805026493831086000BFA069002829
:1027A00045D02348006800F00C0008285DD0A069DF
:1027B000022845D100201F490866FFF7CBFB0546DC
:1027C00006E0FFF7C7FB401B022801D9032035E6CE
:1027D000174808380068C0F340600028F1D1D4E9F8
:1027E00007010843616A40EA81110122A06AC2EB35
:1027F000500041EA00412C20005D41EA00600C4994
:10280000091F086001200B490866FFF7A3FB054676
:1028100006E0FFF79FFB401B022801D903200DE6CD
:10282000034808380068C0F340600028F1D049E050
:102830000838024000004742800E474200700040C6
:10284000002021490866FFF785FB054606E0FFF7F3
:1028500081FB401B022801D90320EFE51B480068DB
:10286000C0F340600028F2D12CE0A069012800D11B
:10287000E4E51648001D0668A069012820D006F48A
:102880008001E06981421BD106F03F01206A81424C
:1028900016D147F6C0703040616AB0EB811F0FD18E
:1028A00006F440310122A06AC2EB5000B1EB004FA8
:1028B00006D106F070612C20005DB1EB006F01D0F5
:1028C0000120BBE50020B9E5000047420038024086
:1028D0007047704710B504460CB9012010BD94F83C
:1028E0003D0028B9002084F83C00204600F025F87F
:1028F000022084F83D00211D206801F039F80120F4
:1029000084F8460000BF84F83E0001213F200155B5
:10291000402001554120015500BF00BF012084F82F
:10292000420043200155442001554520015500BF78
:10293000012084F83D000020D0E77047014691F85F
:102940003D00012801D001207047022081F83D00A0
:102950000868C06840F001000B68D8601A4B08682E
:1029600098421BD00868B0F1804F17D0174B086809
:10297000984213D0164B086898420FD0154B086840
:1029800098420BD0144B0868984207D0134B086844
:10299000984203D0124B086898420CD108688068AE
:1029A00000F00702062A0CD00868006840F0010019
:1029B0000B68186005E00868006840F001000B68CB
:1029C00018600020C0E70000000001400004004043
:1029D00000080040000C004000040140004001409D
:1029E00000180040704770B504462068C56820682C
:1029F000066906F00200022819D105F0020002283B
:102A000015D1401F21680861012020772068806966
:102A100000F0030018B12046FFF7E4FF05E0204670
:102A200000F097F8204600F095F80020207706F097
:102A30000400042819D105F00400042815D1C0436E
:102A400021680861022020772068806900F44070C6
:102A500018B12046FFF7C6FF05E0204600F079F8E0
:102A6000204600F077F80020207706F008000828BC
:102A700019D105F00800082815D1C0432168086164
:102A8000042020772068C06900F0030018B12046B8
:102A9000FFF7A8FF05E0204600F05BF8204600F0B5
:102AA00059F80020207706F01000102819D105F001
:102AB0001000102815D1C043216808610820207734
:102AC0002068C06900F4407018B12046FFF78AFF03
:102AD00005E0204600F03DF8204600F03BF80020DD
:102AE000207706F0010048B105F0010030B16FF029
:102AF000010021680861204600F02EF806F08000F1
:102B0000802809D105F08000802805D1C0432168C4
:102B100008612046FFF7DCFE06F04000402809D19E
:102B200005F04000402805D1C043216808612046D7
:102B300000F01EF806F02000202809D105F0200042
:102B4000202805D1C043216808612046FFF7C1FE57
:102B500070BD70477047000010B5044603492068F7
:102B6000884201D1FFF7FCF910BD0000004401408C
:102B70007047704710B5044600BF00BF21680C3194
:102B800051E8001F21F4907021680C3141E80002E7
:102B9000002AF3D100BF00BF00BF2168143151E803
:102BA000001F21F001002168143141E80002002AD1
:102BB000F3D100BF206B01280ED100BF00BF2168F8
:102BC0000C3151E8001F21F0100021680C3141E860
:102BD0000002002AF3D100BF2068406900F04000E5
:102BE000402820D100BF00BF2168143151E8001FE8
:102BF00021F040002168143141E80002002AF3D19D
:102C000000BFE06B78B10020E16B0865E06BFEF778
:102C10003EFE40B1E06BFEF7A4FE202803D1102059
:102C20006064032010BD0020E085202084F842006D
:102C30000020206300BFF5E7704700002DE9F84F42
:102C40000446206805682068C668206847694FF018
:102C50000009CA4605F00F09B9F1000F0AD105F0C5
:102C6000200038B106F0200020B1204600F0EBFF34
:102C7000BDE8F88FB9F1000F7CD007F0010018B95A
:102C800006F49070002875D005F0010030B106F40C
:102C9000807018B1606C40F00100606405F00400C1
:102CA00030B107F0010018B1606C40F002006064C0
:102CB00005F0020030B107F0010018B1606C40F07F
:102CC0000400606405F0080048B106F0200010B967
:102CD00007F0010018B1606C40F008006064606C9F
:102CE000002846D005F0200028B106F0200010B1E1
:102CF000204600F0A8FF20684069C0F3801A606C8D
:102D000000F0080010B9BAF1000F2DD0204600F0F5
:102D100041FF2068406900F04000402820D100BFFA
:102D200000BF2168143151E8001F21F040002168E4
:102D3000143141E80002002AF3D100BFE06B50B12A
:102D40007748E16B0865E06BFEF7F7FD88B1E06B53
:102D5000016D88470DE02046FFF76EFF09E009E0AE
:102D60002046FFF769FF04E02046FFF765FF0020DB
:102D700060647DE7206B012878D105F01000002801
:102D800074D006F010000028FAD000BF0020009098
:102D900020680068009020684068009000BF00BF75
:102DA0002068406900F04000402860D1E06B006876
:102DB00040681FFA80F8B8F1000F56D0A08D40454A
:102DC00053DDA4F82E80E06BC069B0F5807F43D05E
:102DD00000BF00BF21680C3151E8001F21F4807052
:102DE00021680C3141E80002002AF3D100BF00BF86
:102DF00000BF2168143151E8001F21F00100216853
:102E0000143141E80002002AF3D100BF00BF00BF27
:102E10002168143151E8001F21F04000216814316D
:102E200041E80002002AF3D100BF202084F84200CC
:102E30000020206300BF00BF21680C3151E8001F53
:102E400021F0100021680C3141E80002002AF3D182
:102E500000BFE06BFEF71BFD02206063A08DE28DDA
:102E6000801A81B22046FFF784FE01E742E0A08D80
:102E7000E18D401A1FFA80F8E08DD0B3B8F1000F51
:102E800037D000BF00BF21680C3151E8001F21F48A
:102E9000907021680C3141E80002002AF3D100BF94
:102EA00000BF00BF2168143151E8001F21F001006C
:102EB0002168143141E80002002AF3D100BF20202C
:102EC00084F842000020206300BF00BF21680C315D
:102ED00051E8001F21F0100021680C3141E8000288
:102EE000002AF3D100BF0220606341462046FFF76D
:102EF00040FEBDE605F0800030B106F0800018B15C
:102F0000204601F099F8B3E605F0400030B106F034
:102F1000400018B1204600F073FEA9E600BFA7E606
:102F2000593A000810B504460CB9012010BDA0693B
:102F300000B100E000BF94F8410028B9002084F8F7
:102F40004000204600F02AF8242084F84100206840
:102F5000C06820F400502168C860204600F0F2FEEE
:102F60002068006920F49040216808612068406969
:102F700020F02A00216848612068C06840F40050B1
:102F80002168C86000206064202084F8410084F833
:102F900042000020606300BFC8E7000010B586B0A3
:102FA0000446142101A8FDF7CFFADB4920688842C6
:102FB0004DD100BF00200090D848006840F4801038
:102FC000D64908600846006800F48010009000BFF1
:102FD00000BF00BF00200090D0481038006840F0CB
:102FE0000400CE49103908600846006800F004006B
:102FF000009000BF00BF00BF00200090084600689E
:1030000040F0080008600846006800F008000090E2
:1030100000BF00BF8814019002200290002003909E
:10302000032004900820059001A9BD48FEF790FEFA
:1030300004200190022002900020039003200490BD
:103040000820059001A9B748FEF782FE62E1B64963
:103050002068884278D100BF00200090AF48001D52
:10306000006840F01000AD49091D0860084600687E
:1030700000F01000009000BF00BF00BF00200090D3
:10308000A6481038006840F00100A44910390860D3
:103090000846006800F00100009000BF00BF4FF438
:1030A000C060019002200290002003900320049051
:1030B0000720059001A99D48FEF74AFE9C489D49BE
:1030C00008604FF00060486000219A488160C1604C
:1030D0004FF480610161002141618161C161016240
:1030E0004162FEF761FD08B1FDF74BFE00BF91485C
:1030F000E063846300BF8E4878308F4908604FF0EA
:103100000060486040218C4881600021C1604FF41C
:1031100080610161002141618161C161016241629F
:10312000FEF742FD08B1FDF72CFE00BF8248A06308
:10313000846300BF002205212520FEF7C9FF25205A
:10314000FEF7B2FFE6E0FFE77C492068884275D1D0
:1031500000BF002000907148006840F400306F49C3
:1031600008600846006800F40030009000BF00BF0F
:1031700000BF0020009069481038006840F001004E
:103180006649103908600846006800F001000090A8
:1031900000BF00BF0C20019002200290002003908D
:1031A000032004900720059001A96048FEF7D0FD98
:1031B0006348644908604FF000604860002161483E
:1031C0008160C1604FF480610161002141618161D2
:1031D000C16101624162FEF7E7FC08B1FDF7D1FD74
:1031E00000BF5848E063846300BF55481830564913
:1031F00008604FF000604860402153488160002122
:10320000C1604FF480610161002141618161C16150
:1032100001624162FEF7C8FC08B1FDF7B2FD00BFD4
:103220004948A063846300BF002205212620FEF7E1
:103230004FFF2620FEF738FF6CE0FFE74349206888
:10324000884231D100BF002000903448006840F42B
:103250008020324908600846006800F48020009011
:1032600000BF00BF00BF002000902C48103800684D
:1032700040F002002949103908600846006800F053
:103280000200009000BF00BF4FF440600190022098
:10329000029000200390032004900720059001A9CC
:1032A0002B48FEF755FD35E02A492068884231D188
:1032B00000BF002000901948001D006840F0200069
:1032C0001649091D08600846006800F020000090BB
:1032D00000BF00BF00BF00200090104810380068F9
:1032E00040F004000D49103908600846006800F0FD
:1032F0000400009000BF00BFC02001900220029097
:1033000000200390032004900820059001A90448A0
:10331000FEF71EFD06B010BD0050004040380240D0
:1033200000080240000C0240001001400000024072
:1033300040640240F804002058050020004400408A
:1033400088600240B80500201806002000480040B0
:10335000000402400014014070B504460D461646B4
:1033600094F8420020280BD105B10EB9012070BDA0
:103370000020206332462946204600F0F9FDF6E79A
:103380000220F4E770477047704700BFFEE7000077
:1033900010B50D480D4908600620486000210B4813
:1033A0008160C1604FF40031016109014161002178
:1033B000017641768176C17601774177FEF777F81D
:1033C00008B1FDF7DEFC10BD0064004040030020A2
:1033D00010B50D480D4908600620486000210B48D3
:1033E0008160C1604FF40031016109014161002138
:1033F000017641768176C17601774177FEF757F8FD
:1034000008B1FDF7BEFC10BD006800406803002055
:1034100008B500BF002000901E48006840F400106E
:103420001C4908600846006800F40010009000BFC6
:1034300000BF00BF002000900846006840F48000F4
:1034400008600846006800F48000009000BF00BFDC
:10345000002205211020FEF73BFE1020FEF724FE7F
:10346000002205211120FEF733FE1120FEF71CFE7D
:10347000002205213A20FEF72BFE3A20FEF714FE2B
:10348000002205214620FEF723FE4620FEF70CFE13
:1034900008BD00003038024000B5ABB01C22244902
:1034A00024A8FCF7FDFF002124A801F0BAFD214962
:1034B00008601C221E491C311DA8FCF7F1FF0021E9
:1034C0001DA801F0AEFD1C4908601C2218493831C6
:1034D00016A8FCF7E5FF002116A801F0A2FD174988
:1034E00008601C22124954310FA8FCF7D9FF0021B3
:1034F0000FA801F096FD124908601C220C4970319A
:1035000008A8FCF7CDFF002108A801F08AFD0D49AD
:1035100008601C2206498C3101A8FCF7C1FF00217C
:1035200001A801F07EFD084908602BB000BD000035
:103530007067000814000020080000200000002030
:10354000040000200C0000201000002000B587B00F
:10355000142102A8FCF7F8FF00BF002001902A48C0
:10356000006840F00400284908600846006800F040
:103570000400019000BF00BF00BF0020019008467A
:10358000006840F0800008600846006800F0800095
:10359000019000BF00BF00BF0020019008460068F6
:1035A00040F0010008600846006800F0010001904A
:1035B00000BF00BF00BF002001900846006840F037
:1035C000020008600846006800F00200019000BF99
:1035D00000BF00BF002001900846006840F00800CE
:1035E00008600846006800F00800019000BF00BFB6
:1035F0000815029000200390049002A90348FEF7EA
:10360000A7FB07B000BD00003038024000080240B0
:1036100010B50B480B4908604FF4E13048600021B9
:1036200008488160C16001610C2141610021816114
:10363000C161FFF777FC08B1FDF7A3FB10BD0000E7
:10364000005000409003002010B50B480B49086063
:103650000B4848604FF48051084881600021C160E8
:1036600001610C21416100218161C161FFF75AFCB8
:1036700008B1FDF786FB10BD00100140D803002003
:10368000A086010010B50B480B4908604FF4E130EB
:103690004860002108488160C16001610C214161DE
:1036A00000218161C161FFF73DFC08B1FDF769FBB5
:1036B00010BD0000004400402004002010B50B485D
:1036C0000B4908604FF47A30486000210848816057
:1036D000C16001610C21416100218161C161FFF77D
:1036E00021FC08B1FDF74DFB10BD00000048004073
:1036F0006804002010B50B480B4908604FF47A307D
:103700004860002108488160C16001610C2141616D
:1037100000218161C161FFF705FC08B1FDF731FBB4
:1037200010BD000000140140B00400201F48B0F993
:103730000400C0EB001000EE100AB8EEC00A1C48EE
:1037400080ED000A90ED000AB5EEC00AF1EE10FA25
:1037500002DD90ED000A04E0154890ED000AB1EE9C
:10376000400ADFED140AB4EEE00AF1EE10FA11DDC2
:103770000F4890ED000AB5EEC00AF1EE10FA04DD34
:103780009FED0C0A80ED000A04E09FED0B0A08484B
:1037900080ED000A064890ED000A80ED010A90EDE8
:1037A000000AB1EE400A80ED020A7047304A00205C
:1037B000E843002000007A4400007AC40748B0F9CA
:1037C000000000EE100AB8EEC00ADFED050A20EE98
:1037D000200A044880ED000A70470000304A0020AB
:1037E0009A9919BEC047002000BFFEE700BFFEE760
:1037F0002DE9F0412DED068B04460D461646B0EE40
:10380000408AF0EE608AB0EE419AF0EE619AB0EE36
:1038100042AAF0EE62AA1F460D4844F8840F0D48F4
:10382000606054F884C93B46F0EE6A2AB0EE4A2A3A
:10383000F0EE691AB0EE491AF0EE680AB0EE480AE6
:10384000324629462046E047BDEC068BBDE8F081B4
:10385000455200086752000800BF012001F062FBDA
:10386000FBE7000010B500BF502080F31188BFF3C4
:103870004F8FBFF36F8F00BF02F0FEFD18B14FF006
:1038800080500449086000BF002080F3118800BF09
:1038900010BD000004ED00E000B593B0302107A892
:1038A000FCF752FE142102A8FCF74EFE00BF0020D8
:1038B00001902448006840F0805022490860084682
:1038C000006800F08050019000BF00BF00BF0020E2
:1038D00001901D48006840F480401B49086008467C
:1038E000006800F48040019000BF00BF01200790F5
:1038F0000004089002200D9041050E9108210F91BF
:10390000A8211091022111910421129107A8FEF71C
:1039100091FD08B1FDF735FA0F20029002200390C7
:10392000002004904FF4A05005904FF48050069072
:10393000052102A8FEF71EFC08B1FDF722FA13B01C
:1039400000BD00004038024000700040034800689D
:1039500040F47000014908607047000088ED00E005
:1039600010B50248FFF73FF810BD000078060020B0
:1039700010B502682D4B98420ED0B0F1804F0BD09D
:103980002B4B984208D02B4B984205D02A4B98429B
:1039900002D02A4B984203D122F070024B681A439E
:1039A000224B984220D0B0F1804F1DD0204B98423E
:1039B0001AD0204B984217D01F4B984214D01F4B5F
:1039C000984211D01E4B98420ED01E4B98420BD0FD
:1039D0001D4B984208D01D4B984205D01C4B984275
:1039E00002D01C4B984203D122F44072CB681A4398
:1039F00022F080034C6943EA040202608B68C362D0
:103A00000B688362094B984202D00C4B984201D15B
:103A10000B69036301234361036903F001031BB1D5
:103A2000036923F00103036110BD000000000140A1
:103A30000004004000080040000C00400004014069
:103A4000004001400044014000480140001800408F
:103A5000001C00400020004070B50546AC6B002003
:103A6000E085E0842046FFF7E7F870BD70B50646B4
:103A70000025B46B20684069C0F3C01594F841007C
:103A8000212805D125B10020E084204600F0C8F8A7
:103A900020684069C0F3801594F84200222805D1BF
:103AA00025B10020E085204600F074F8606C40F0FD
:103AB000100060642046FFF7BFF870BD70B5054682
:103AC000AC6B2868006800F48070002842D1E08563
:103AD00000BF00BF21680C3151E8001F21F4807045
:103AE00021680C3141E80002002AF3D100BF00BF79
:103AF00000BF2168143151E8001F21F00100216846
:103B0000143141E80002002AF3D100BF00BF00BF1A
:103B10002168143151E8001F21F040002168143160
:103B200041E80002002AF3D100BF202084F84200BF
:103B3000206B01280ED100BF00BF21680C3151E875
:103B4000001F21F0100021680C3141E80002002A1A
:103B5000F3D100BF00206063206B012804D1A18D48
:103B60002046FFF706F802E02046FFF70BFC70BD89
:103B700070B50546AC6B01206063206B012805D150
:103B8000A08D41082046FEF7F4FF02E02046FFF733
:103B9000FAFB70BD00BF00BF02680C3252E8002F74
:103BA00022F4907102680C3242E80013002BF3D12A
:103BB00000BF00BF00BF0268143252E8002F22F09D
:103BC00001010268143242E80013002BF3D100BF58
:103BD000016B01290ED100BF00BF02680C3252E810
:103BE000002F22F0100102680C3242E80013002B73
:103BF000F3D100BF202180F84210002101637047FB
:103C000010B504462068C06820F040002168C860F4
:103C1000202084F841002046FFF7B6FB002010BDAD
:103C200000BF00BF02680C3252E8002F22F0C00132
:103C300002680C3242E80013002BF3D100BF2021B0
:103C400080F841107047F8B5044694F842002228E5
:103C500075D1A068B0F5805F0CD1206950B90025FE
:103C6000A66A20684068C0F308003080A06A801C03
:103C7000A06215E0A56A0026A068B0F5805F03D0B9
:103C8000A06828B9206918B920684068287004E045
:103C90002068406800F07F002870A06A401CA06285
:103CA000E08D401E80B2E085002846D12068C068C3
:103CB00020F020002168C8602068C06820F480706F
:103CC0002168C8602068406920F0010021684861CF
:103CD000202084F8420000206063206B012826D158
:103CE0000020206300BF00BF21680C3151E8001F95
:103CF00021F0100021680C3141E80002002AF3D1C4
:103D000000BF2068006800F0100010280AD100BF32
:103D100000200090206800680090206840680090B3
:103D200000BF00BFA18D2046FEF723FF02E0204622
:103D3000FFF728FB0020F8BD01E00020FBE7022090
:103D4000F9E700002DE9F84F04462068006920F4E7
:103D50004050E1680843216808612169A068084370
:103D600061690843E169084300902068C06849F22E
:103D70000C618843009908432168C8602068406945
:103D800020F44070A16908432168486176492068A1
:103D9000884203D075492068884203D1FEF7E4FACF
:103DA000814602E0FEF7D0FA8146E069B0F5004FA7
:103DB0006CD102206168A0FB015003461920A9FBC9
:103DC000007001462A463846FCF7AEFA6421B0FB83
:103DD000F1F04FEA001A02206168A0FB01510B4686
:103DE0001920A9FB00712A463846FCF79DFA834644
:103DF00002206168A0FB015003461920A9FB007155
:103E00002A463846FCF790FA6421B0FBF1F000EB4B
:103E1000C00101EB0010ABEB8000322101EBC000D0
:103E20006421B0FBF1F000F0F8000AEB400A022038
:103E30006168A0FB015003461920A9FB00700146F0
:103E40002A463846FCF770FA834602206168A0FBD8
:103E5000015003461920A9FB00712A463846FCF799
:103E600063FA6421B0FBF1F000EBC00101EB00103C
:103E7000ABEB8000322101EBC0006421B0FBF1F01C
:103E800000F007005044216888606AE004206168FF
:103E9000A0FB015003461920A9FB007001462A46E9
:103EA0003846FCF741FA824604206168A0FB0150C5
:103EB00003461920A9FB007001462A463846FCF744
:103EC00033FA6421B0FBF1F000EBC00101EB00100C
:103ED000AAEB8000322101EB00106421B0FBF1F06D
:103EE00000F0F00A04206168A0FB0170034619206D
:103EF000A9FB00513A462846FCF716FA6421B0FBAC
:103F0000F1F00AEB001A04206168A0FB01510B4696
:103F10001920A9FB00712A463846FCF705FA8346AA
:103F200004206168A0FB015003461920A9FB007022
:103F300001462A463846FCF7F7F96421B0FBF1F058
:103F400000EBC00101EB0010ABEB8000322101EB74
:103F500000106421B0FBF1F000F00F005044216824
:103F60008860BDE8F88F0000001001400014014097
:103F700077B581B0044615460298A062A585002059
:103F80006064222084F842002848E16BC863284816
:103F9000E16B08642748E16BC8640020E16B0865A9
:103FA00002AE32682368191D2B46E06BFDF772FEE6
:103FB00000BF0020009020680068009020684068E2
:103FC000009000BF00BF206970B100BF00BF216832
:103FD0000C3151E8001F41F4807021680C3141E838
:103FE0000002002AF3D100BF00BF00BF21681431D6
:103FF00051E8001F41F001002168143141E800023E
:10400000002AF3D100BF00BF00BF2168143151E87E
:10401000001F41F040002168143141E80002002AED
:10402000F3D100BF002004B070BD0000BD3A00080D
:10403000713B00086D3A0008014691F841002128C3
:1040400028D18868B0F5805F0BD1086948B90A6A41
:104050001088C0F308000B685860086A801C08626A
:1040600005E00B6A581C086218780B685860C88C09
:10407000401E80B2C88458B90868C06820F080002B
:104080000B68D8600868C06840F040000B68D860D2
:10409000002070470220FCE710B50348FEF7CEFD74
:1040A000014800F03DF810BDD803002010B50348CA
:1040B000FEF7C4FD014800F033F810BD20040020D5
:1040C00010B504461149206888420DD110491148A5
:1040D00001F0FAFB12210E48FCF714FA12220C49E7
:1040E0002046FFF739F90FE00B49206888420BD1D1
:1040F0000A4800F0CBFD64210848FCF703FA64226B
:1041000006492046FFF728F910BD000000100140C5
:10411000AE490020304A0020004400404A490020B7
:1041200038B5044620680068C0F3001080B100BFB5
:10413000002000902068006800902068406800908F
:1041400000BF00BF2046FEF715FD2046FFF7B8FF71
:1041500038BD000008B500BF002000901848006876
:1041600000680090164800684068009000BF00BFDB
:1041700013480068C06840F0100011490968C86021
:10418000122210490E48FFF7E7F800BF0020009008
:104190000D480068006800900B4800684068009077
:1041A00000BF00BF08480068C06840F01000064922
:1041B0000968C860642205490348FFF7CDF808BDC7
:1041C000D8030020AE490020200400204A490020E6
:1041D00000BFFEE770B504460D46A4F2022020B1F0
:1041E00001280CD004281ED113E010488069401C1F
:1041F0000E49886129460D4800F0BAFA14E00C48CF
:104200008069401C0A4988612946094800F0B0FAD3
:104210000AE008488069401C06498861294605482B
:1042200000F0A6FA00BF00BF00BF70BDCC43002065
:10423000B0430020A44700207047000010B504469A
:1042400026480078012804D002282DD0032842D126
:1042500040E02348D0ED0D0AB0EE600AFCF740FDC7
:104260001F48D0ED0E0AB0EE600AFCF739FD1C487D
:10427000D0ED0F0AB0EE600AFCF732FD1848D0ED21
:10428000070AB0EE600AFCF72BFD1548D0ED080ACE
:10429000B0EE600AFCF724FD1148D0ED090AB0EE3B
:1042A000600AFCF71DFD17E00E48D0ED050AB0EEE0
:1042B000600AFCF715FD0B48D0ED060AB0EE600A67
:1042C000FCF70EFD0748D0ED070AB0EE600AFCF7D8
:1042D00007FD01E000E000BF00BF10BD9700002017
:1042E000E8430020C047002070B505460C46002674
:1042F0000DB1022C01D8002070BDA11E0948028812
:104300002846FCF74FFD0646F1B2A01E285C81420C
:1043100006D1601E285CB0EB162F01D10120EBE71F
:104320000020E9E7B000002070B505460C460026E5
:104330000DB1022C01DC002070BD601E81B2FF2295
:104340002846FCF749FD0646601E285CB04201D1B4
:104350000120F1E70020EFE702480068C0F30220E7
:10436000704700000CED00E010B5002804DB0A07E0
:10437000130E054A135406E00A07140E034A00F010
:104380000F031B1FD45410BD00E400E018ED00E043
:1043900090ED001A70EE201AB4EEE11AF1EE10FA68
:1043A00003DD30EE201A80ED001A90ED001AF1EED8
:1043B000401A71EEA01AB4EEE11AF1EE10FA05D22D
:1043C000B1EE401A31EE201A80ED001A704700005D
:1043D0002DE9F04788B007460C4615461E46DDF825
:1043E00040804FF0000A02970020049005900820BA
:1043F0000690200A8DF80000E0B28DF80100280A2E
:104400008DF80200E8B28DF80300300A8DF8040040
:10441000F0B28DF805004FEA18208DF8060008F07C
:10442000FF008DF80700D1460F48FCF7FEFE00F0B4
:10443000FF0A0EE009F1010000F0FF090A48FCF74D
:10444000F4FE00F0FF0AB9F1140F02DB08B0BDE87A
:10445000F087BAF1000FEDD0044B6A4602A902487A
:10446000FCF7E1FC00BFF1E740030020A0000020C2
:1044700086B000BF4FF0FF324021684600F0A0FD3B
:104480009DE8070003AB07C303980828F2D118483A
:10449000007828B917480021C16001611648818061
:1044A0001548B0F9040000901348B0F90430B0F991
:1044B0000420B0F9041040F2FE20FFF789FF0E48F7
:1044C000B0F9040000900C48B0F90430B0F90420B1
:1044D000B0F904104FF4FF70FFF77AFF0020034695
:1044E0000246014600904FF40070FFF771FFC1E7EC
:1044F00094000020E8430020C047002000B58BB0A6
:104500000B4B0FCBCDE90923CDE907011C2208494C
:1045100010316846FBF7C4FF064A07A9064800F0B9
:1045200011F8064A6946064800F00CF80BB000BDC9
:104530003C6B0008D54100084003002039420008C8
:104540006803002070B504460E46154631462046E5
:10455000FCF7DEFA2046FDF764F91149206888422D
:104560000CD11048056002212046FCF747FC20686A
:10457000406940F00200216848610FE00A49206864
:1045800088420BD10948056010212046FCF736FC13
:104590002068406940F010002168486170BD00004B
:1045A0000064004098000020006800409C0000204B
:1045B00010B50A4890F8580020B1012806D002280A
:1045C00009D106E005480021016004E0FFF7AEF8DC
:1045D00000BFFCF71DF800BF10BD0000E84300203D
:1045E00010B50123DFED3E2A9FED3D2ADFED3C1A99
:1045F0009FED3B1ADFED3A0A9FED390A0022114682
:104600003848FFF7F5F80123DFED352A9FED342A0E
:10461000DFED331A9FED321ADFED310A9FED300ADC
:10462000002211463048FFF7E3F80123DFED2C2A82
:104630009FED2B2ADFED2A1A9FED291ADFED280ABC
:104640009FED270A002211462848FFF7D1F80123E1
:10465000DFED232A9FED222ADFED211A9FED201A9C
:10466000DFED1F0A9FED1E0A002211462048FFF7CA
:10467000BFF80123DFED1A2A9FED192ADFED181A82
:104680009FED171ADFED160A9FED150A002211465D
:104690001848FFF7ADF80123DFED112A9FED102A2E
:1046A000DFED0F1A9FED0E1ADFED0D0A9FED0C0ADC
:1046B000002211461048FFF79BF8B2EE0E0A0F4891
:1046C00080ED020AB2EE0E0A80ED030A0C48806902
:1046D00020B10C48806908B1012010BD0020FCE722
:1046E0000000000048440020D44400206045002021
:1046F000EC4500207846002004470020404A002076
:10470000B0430020CC43002008B500F01FFC00900F
:10471000FFF766FF00BF01F039FA00F087F9FFF7F5
:1047200047FF01F05DFA0121684600F007FCF2E75F
:1047300008B500F00BFC009000BF01F027FA054817
:10474000FCF7ECFA01F04CFA0221684600F0F6FBA7
:10475000F3E7000068040020034800210180C160E5
:1047600002480180C1607047B0430020CC43002064
:10477000CA788B7842EA032212B282804A790B7996
:1047800042EA032212B2C280028842804A780B7841
:1047900042EA0322028002884388D21AB2F5805F7F
:1047A00003DD8268521E826008E002884388D21AC4
:1047B00012F5805F02DA8268521C82600388826888
:1047C00003EB4232838AD21AC260704790ED0B0A23
:1047D000D0ED0E0A20EE200AB5EEC00AF1EE10FA76
:1047E00053DD90ED0B0AB5EEC00AF1EE10FA02DDD2
:1047F00090ED0B0A03E090ED0B0AB1EE400AD0ED0C
:10480000170AB4EEE00AF1EE10FA00D8704790ED06
:10481000160AD0ED170A70EE200A90ED0B0AB5EEDD
:10482000C00AF1EE10FA02DD90ED0B0A03E090ED04
:104830000B0AB1EE400AF4EEC00AF1EE10FA20DBEA
:10484000D0ED160A90ED0B0AB5EEC00AF1EE10FAA3
:1048500002DD90ED0B0A03E090ED0B0AB1EE400A89
:1048600030EEC00AD0ED170A30EE200AD0ED160A5D
:1048700080EE201A90ED100A21EE000A80ED100A59
:1048800003E09FED030A80ED100A00BFBEE70000C1
:104890000000000090ED0F0AD0ED1F0A60EE200A24
:1048A00090ED200A90ED1F1A30EE011A80EE810A79
:1048B000D0ED150A90ED201A60EE810A90ED201AD5
:1048C000D0ED1F1A31EE211AC0EE811A30EE210A06
:1048D00080ED0F0A7047704790ED0E0AD0ED100A78
:1048E00030EE200A434981ED000A90ED0D0AD0ED2B
:1048F0000E0A30EE200AD0ED0F0A30EE200A3E49B3
:1049000081ED000A91ED000AB5EEC00AF1EE10FA51
:1049100002DD91ED000A04E0374991ED000AB1EEA5
:10492000400AD0ED1B0AF8EE600AB4EEE00AF1EEA0
:1049300010FA0EDD90ED0B0AD0ED0E0A20EE200AE3
:10494000B5EEC00AF1EE10FA03DD9FED2C0A80ED02
:10495000100A284991ED000AB5EEC00AF1EE10FAEE
:1049600002DD91ED000A04E0224991ED000AB1EE6A
:10497000400A016F09B1016F01E0016F494200EE89
:10498000901AF8EE600AB4EEE00AF1EE10FA03DDD8
:104990009FED1A0A80ED100A016F494200EE101ACD
:1049A000B8EE400A1349D1ED000AB4EEE00AF1EE88
:1049B00010FA06DB016F494200EE101AB8EE400A09
:1049C00013E090ED1C0AB8EE400A0A49D1ED000A46
:1049D000B4EEE00AF1EE10FA04D890ED1C0AB8EE3D
:1049E000400A02E0034991ED000A024981ED000A04
:1049F00070470000AC000020A8000020000000006C
:104A000090ED0B0AD0ED0A0A30EE200AB0EE001A43
:104A1000C0EE010A90ED010A20EE800AD0ED1F0AD7
:104A200020EE200A80ED100A704700003C48C06864
:104A3000002810DA3B48C068002802DD3948C06809
:104A400002E03848C0684042002804DA02203649B3
:104A500081F85B0062E03248C068002810DD314810
:104A6000C068002802DD2F48C06802E02D48C068F9
:104A70004042002804DD03202B4981F85B004DE013
:104A80002748C068002820DD2548C06800281CDAB7
:104A90002448C068002802DD2248C06802E021489E
:104AA000C0684042002810DD1E48C068002802DDB2
:104AB0001C48C06802E01B48C0684042002804DA75
:104AC0000420194981F85B0028E01548C0680028D7
:104AD00010DA1448C068002802DD1248C06802E0FD
:104AE0001048C0684042002804DA00200E4981F8CE
:104AF0005B0013E00A48C06800280FDD0948C06861
:104B0000002802DD0748C06802E00648C06840424D
:104B1000002803DD0120044981F85B007047000094
:104B2000B0430020CC430020E843002010B50B48E0
:104B3000807920B1012806D002280AD106E0074872
:104B40000021016005E0FEF739FE02E0FBF7C0FE40
:104B500000BF00BF00F04EF810BD0000C0470020AD
:104B600010B50123DFED1A2A9FED192ADFED181A7F
:104B70009FED171ADFED160A9FED150A0022114668
:104B80001448FEF735FE0123DFED112A9FED102AB0
:104B9000DFED0F1A9FED0E1ADFED0F0A9FED0F0AE2
:104BA00042F2107246F660510D48FEF721FE9FED6D
:104BB0000D0A0D4880ED000A9FED0C0A80ED010AF8
:104BC0000B48806908B1012010BD0020FCE70000FF
:104BD00000000000E04700209A99993E000034430D
:104BE0006C4800209A9919BE404A0020A69B443B7D
:104BF000A447002010B5114890ED000A80ED050A89
:104C00000F48B0F9040000EE100AB8EEC00A0B48D5
:104C100080ED060A90ED051AF0EE410A90ED061AB5
:104C2000B0EE410A074800F02BFABDEEC00A10EEC4
:104C3000100A00B20149888010BD0000C047002062
:104C4000A44700206C48002008B500F07FF90090D0
:104C5000FFF786FF00BF00F099FFFFF767FF4021D5
:104C60000548006800F07CF900F0BAFF01216846B1
:104C700000F064F9EFE700000800002000BFEFF348
:104C8000058008B1012070470020FCE72DE9F041C4
:104C900004460026002714B9701EBDE8F0816D4857
:104CA00021680160217901712078A52875D105213D
:104CB0002046FFF739FB012870D1607800F1090523
:104CC00029462046FFF710FB0128F5D1012660791F
:104CD000A17940EA012740F20321781A8F426AD075
:104CE00019DCB7F5817F45D00ADC012F26D0022FD1
:104CF00030D0032F32D0A7F20110002829D133E0A1
:104D0000B7F5827F3BD0A7F2051090B3FC2846D0C0
:104D1000FD28F3D149E005286ED008DC012850D0E9
:104D2000022856D0032859D0042812D15AE0062868
:104D30006AD007286DD0FE2879D172E0464854F831
:104D4000071F01606168416021890181A17AE41F28
:104D500081726CE04148E179017068E02022E11D38
:104D60003F48FBF758FB62E03E48D4F8071001606B
:104D70005DE00BE03C48D4F80710016057E03B4889
:104D8000B4F807100180617A817050E03848B4F8B7
:104D900007100180617A817049E059E048E00D22F6
:104DA000E11D3448FBF737FB41E01022E11D32489A
:104DB000FBF731FB3BE01022E11D3048FBF72BFBFA
:104DC00035E02F48D4F807100160B4F80B1081804B
:104DD0002DE02C48B4F80710018028E02A48E1793A
:104DE000017024E02948D4F807100160B4F80B10D2
:104DF0008180617B81711AE02548D4F80710016039
:104E0000B4F80B10818012E02248D4F8071001603A
:104E10000DE02148D4F807100160B4F80B10818030
:104E200005E01422E11D1D48FBF7F5FA00BF00BFA5
:104E30000848B0F80110E01D08448078A52807D183
:104E40000449B1F80120E11D1144881CFFF71EFF41
:104E5000304622E7B2000020C0490020B700002001
:104E6000CB490020B8000020BC000020C00000207A
:104E7000C3000020EB490020F8490020084A002028
:104E8000C6000020CC000020CE000020CF00002073
:104E9000D6000020DC000020E0000020144A0020A2
:104EA000FDF76AF8FEF7F8FCFEF750FBFEF7B0FAE4
:104EB000FEF76EFAFEF78CFAFEF7AAFBFEF7C4FBCC
:104EC000FEF7FCFBFEF716FCFEF7DCFBFFF742F9F2
:104ED000FFF714FB4FF4FA70FCF726FFFEF7DCFA3D
:104EE00000F02FF800BFFEE701460020842901D022
:104EF000CA1C104470470000002008490870084987
:104F0000087000BF0648007810B900F0CDFD01E040
:104F100000F0A6FD0A2000F005F8F3E79400002059
:104F20009500002070B5044625460DB1294600E0E5
:104F30000121084600F014FF002070BD02468120C8
:104F4000704710B500F03AFF002010BD10B5FFF714
:104F500095FE10B101F086FA10BD01F07DFAFBE775
:104F60003EB504460D46002002900190FFF786FEF4
:104F7000B8B102A801AB012229460090204601F0F9
:104F8000B7F9012802D04FF000403EBD029898B119
:104F90004FF0805009490860BFF34F8FBFF36F8F08
:104FA0000AE001AB01222946204601F00DF9012853
:104FB00002D04FF00040E8E70198E6E704ED00E09A
:104FC000FEB506460F461446002001900025601CE1
:104FD00008B96D1E03E014B1254605B90125FFF798
:104FE0004DFE10B18220009016E02B4601AA3946F2
:104FF000002001F0E5FA012806D015B90020009044
:105000000AE04020009007E00198002802DA86209C
:10501000009001E0082000909DE8070086E8070066
:10502000FEBD7FB504460D46606998B1A06988B1A0
:10503000B4F90800FFF758FF0646D4E90510CDE99A
:10504000006102902B462269D4E9001001F05EF85D
:10505000039013E0B4F90800FFF746FF064603A8E3
:10506000CDE90060238A9AB22B46D4E9001001F002
:105070001BF8012802D0002004B070BD0398FBE7A4
:1050800010B52DED028B0446B0EE408AF0EE608A3A
:1050900084ED088AC4ED058A38EEC80A84ED0B0A4F
:1050A00094ED180AB5EEC00AF1EE10FA19D094ED9D
:1050B0000B0AB5EEC00AF1EE10FA02DD94ED0B0A10
:1050C00003E094ED0B0AB1EE400AD4ED180AB4EEF9
:1050D000E00AF1EE10FA04DD9FED590ABDEC028BF7
:1050E00010BD94ED190AB5EEC00AF1EE10FA17D012
:1050F00094ED0B0AB5EEC00AF1EE10FA02DD94ED64
:105100000B0A03E094ED0B0AB1EE400AD4ED190A44
:10511000B4EEE00AF1EE10FA02D29FED490ADDE7A3
:1051200094ED000AD4ED0B0A20EE200A84ED0D0A5E
:1051300094ED010AD4ED0B0A20EE200A84ED100A4A
:1051400094ED0B0AD4ED0A0A30EE600AD4ED020A9F
:1051500020EE200A84ED0F0A94F8740000F0040099
:1051600010B12046FFF74CFC94F8740000F02000CA
:1051700010B12046FFF72AFB94F8740000F00200FB
:1051800010B12046FFF7A7FB94F8740000F0400030
:1051900010B12046FFF77EFB94F8740000F0010088
:1051A00010B12046FFF798FB94ED0E0AD4ED100ADB
:1051B00030EE200A84ED0E0AD4ED1C0AF8EE600AE7
:1051C000B0EE600ADFED1E0A04F13800FFF7E0F8E8
:1051D00094ED0D0AD4ED0E0A30EE200AD4ED0F0A3C
:1051E00030EE200A84ED110AD4ED1B0AF8EE600AB5
:1051F000B0EE600ADFED120A04F14400FFF7C8F8D0
:1052000094ED110A84ED120A94ED0A0A84ED090A5C
:1052100094ED0B0A84ED0A0A94ED070A84ED060A60
:1052200094ED080A84ED070A94ED040A84ED030A5C
:1052300094ED050A84ED040A94ED110A4EE700008E
:10524000000000000267C166C0ED191A80ED000A77
:10525000C0ED010A80ED021A80ED162AC0ED172A72
:1052600080F87430704780ED000AC0ED010A80EDCF
:10527000021A70472DE9F04105460E461C480768A2
:105280001C480068001D00F02BFC50B9194800684C
:1052900090F82C100120884017490968814316486E
:1052A0000160681C38B936B112480168091D1348FD
:1052B00000F060FC1AE07C190E4800684460BC42B3
:1052C00007D20C480168091D0D48006800F038FC41
:1052D0000CE008480168091D0A48006800F030FC2D
:1052E00009480068844201D207480460BDE8F081A3
:1052F000400000202C000020440000209C070020DB
:1053000034000020300000205C00002010B504466E
:1053100000F03CFC23480068401C224908602248F9
:10532000006840B9204804600846006801280DD193
:1053300000F03EF90AE01D48006838B91A480068D4
:10534000C06AE16A884201D81748046018480068BA
:10535000401C1749086094F82C100120884015491A
:105360000968084313490860E16A01EB8101124AA8
:1053700002EB8100211D00F0FDFB00F031FC0B4829
:10538000006868B108480068C06AE16A884207D2CC
:105390004FF0805009490860BFF34F8FBFF36F8F04
:1053A00010BD00003C0000202C0000204800002020
:1053B0005800002044000020C006002004ED00E05A
:1053C00010B516E000F0E2FB0C48C068C468201D70
:1053D00000F086FB0A480068401E09490860094839
:1053E0000068401E0749086000F0FAFB204600F004
:1053F0000BF8044800680028E4D110BD880700209D
:105400003C0000203800002010B5044694F85100FC
:1054100030B9206B00F002FC204600F0FFFB1AE0E0
:1054200094F85100012803D1204600F0F7FB12E068
:1054300094F85100022801D1012000E0002050B969
:1054400000BF502080F31188BFF34F8FBFF36F8FE1
:1054500000BF00BFFEE710BD30B54FF470531748D2
:1054600000F007042CB1C01D20F00700134C041BF2
:105470001B1B0246124C22600024114D6C60D01898
:10548000083820F007000F4C206000240D4D2D68D7
:105490006C600C4D2D682C601146441A4C60094C10
:1054A00024680C60084D4C682C60084D4C682C60DA
:1054B0004FF00044064D2C6030BD0000B0070020C6
:1054C0006800002070000020780000207400002098
:1054D0008400002000BFFFF773FF06480068012822
:1054E000F9D94FF0805004490860BFF34F8FBFF3E4
:1054F0006F8FF0E7C006002004ED00E02DE9FF5FAC
:1055000081460E469246DDE90E7B109CAAF1010011
:10551000216B01EB800828F0070808F0070008B9A4
:10552000012000E0002050B900BF502080F3118816
:10553000BFF34F8FBFF36F8F00BF00BFFEE786B191
:10554000002507E0715D04F134004155705D00B93C
:1055500002E06D1C102DF5D300BF00214320015542
:1055600002E0002084F83400072F00D30627E7620A
:1055700067640020A064201D00F0DFFA04F1180029
:1055800000F0DBFA2461C7F10700A061646200202B
:10559000E06484F8500049464046039A00F050F910
:1055A0002060BBF1000F01D0CBF80040BDE8FF9FA9
:1055B00010B5002407E004EB84010F4A02EB8100E0
:1055C00000F0AEFA641C072CF5D30C4800F0A8FAE2
:1055D0000B4800F0A5FA0B4800F0A2FA0A4800F0C8
:1055E0009FFA0A4800F09CFA0448094908600448F8
:1055F0000849086010BD0000C00600204C070020CC
:105600006007002074070020880700209C07002006
:10561000300000203400002010B50146164800E09C
:10562000006803688B42FBD30246436813448B42F5
:1056300004D143684C682344436001460A464B68E2
:1056400013440468A34211D10C4C03682468A3429C
:1056500008D04B680468646823444B6003681B6887
:105660000B6005E0054B1B680B6001E003680B60F5
:10567000884200D0016010BD68000020700000204A
:105680000A490968096809B9012100E0002121B12E
:105690004FF0FF31064A116006E004490968C96805
:1056A000C868034A4168116070470000300000205C
:1056B0005C0000200E480068401C08B9012000E092
:1056C000002050B900BF502080F31188BFF34F8FE6
:1056D000BFF36F8F00BF00BFFEE700BF502080F315
:1056E0001188BFF34F8FBFF36F8F00BF00BFFEE77E
:1056F000880000202DE9F04104464FF0000800F03A
:10570000B5FB4948006808B9FFF7A6FE474800689E
:105710002040002870D1D4B1083404F00700B0B1A3
:1057200004F00700C0F10800044404F0070008B9C1
:10573000012000E0002050B900BF502080F3118804
:10574000BFF34F8FBFF36F8F00BF00BFFEE7002C8A
:1057500052D03748006884424ED8364E30460568ED
:1057600001E02E462D686868A04202D22868002811
:10577000F7D12D48006885423ED0306800F1080816
:10578000286830606868001B102819D92F1907F0A5
:10579000070008B9012000E0002050B900BF5020E8
:1057A00080F31188BFF34F8FBFF36F8F00BF00BF2F
:1057B000FEE76868001B78606C603846FFF72CFFD6
:1057C0001B4968680968081A194908600846006892
:1057D00019490968884203D21548006816490860CB
:1057E0001249686809680843686000202860134807
:1057F0000068401C1149086000F032FF08F0070003
:1058000008B9012000E0002050B900BF502080F30B
:105810001188BFF34F8FBFF36F8F00BF00BFFEE74C
:105820004046BDE8F08100007000002084000020A8
:105830007400002068000020780000207C00002018
:10584000001F4FF080730360001F21F0010303600D
:10585000001F054B036014380260001F6FF0020345
:105860000360203870470000B556000880ED031A29
:10587000C0ED021A80ED040AC0ED000A90ED012A85
:10588000D0ED002A90ED043A02EE832A80ED012A41
:1058900090ED012AD0ED032AB4EEE22AF1EE10FADF
:1058A00004DD90ED032A80ED012A0CE090ED012A41
:1058B000D0ED022AB4EEE22AF1EE10FA03D290ED16
:1058C000022A80ED012A704770B504460D462878FB
:1058D000697840EA0120C0F30A0020802088A0F502
:1058E000806000B220806878C010A97840EA41103A
:1058F000C0F30A0060806088A0F5806000B260801C
:10590000A8788011E97840EA8100297940EA81206D
:10591000C0F30A00A080A088A0F5806000B2A0803B
:1059200028794010697940EAC110C0F30A00E0808C
:10593000E088A0F5806000B2E080287C697C40EAC5
:105940000120C0F30A0020812089A0F5806000B208
:105950002081687900118008A0726879C0F3011075
:10596000E072B4F90000002802DDB4F9000002E0A2
:10597000B4F900004042B0F5257F26DCB4F90200FE
:10598000002802DDB4F9020002E0B4F9020040424E
:10599000B0F5257F19DCB4F90400002802DDB4F964
:1059A000040002E0B4F904004042B0F5257F0CDCAD
:1059B000B4F90600002802DDB4F9060002E0B4F9EB
:1059C00006004042B0F5257F03DD0D212046FAF7A1
:1059D00099FDB4F90200002802DDB4F9020002E0EA
:1059E000B4F9020040421E2801DA00206080B4F9B8
:1059F0000000002802DDB4F9000002E0B4F9000064
:105A000040421E2801DA00202080B4F9020000285C
:105A100002DDB4F9020002E0B4F9020040421E289F
:105A200001DA00206080B4F90400002802DDB4F936
:105A3000040002E0B4F9040040421E2801DA00200C
:105A4000A080B4F90600002802DDB4F9060002E0E7
:105A5000B4F9060040421E2801DA0020E08070BD43
:105A60000E48807A012804D002280ED0032812D1D3
:105A700005E001200A4908700A4988710CE00020FD
:105A8000074908700749887106E002200449087038
:105A90000449887100E000BF00BF7047304A002011
:105AA00094000020C04700200B48807A032812D1C0
:105AB0000948C07A01280ED10748B0F9060010F550
:105AC000167F08DA0448B0F90400B0F5167F02DD4D
:105AD0000120024908707047304A002095000020DC
